{
  "_format": "hh-sol-artifact-1",
  "contractName": "VireoETH",
  "sourceName": "contracts/VireoETH.sol",
  "abi": [
    {
      "inputs": [],
      "stateMutability": "nonpayable",
      "type": "constructor"
    },
    {
      "inputs": [],
      "name": "InvalidShortString",
      "type": "error"
    },
    {
      "inputs": [
        {
          "internalType": "string",
          "name": "str",
          "type": "string"
        }
      ],
      "name": "StringTooLong",
      "type": "error"
    },
    {
      "anonymous": false,
      "inputs": [
        {
          "indexed": true,
          "internalType": "address",
          "name": "owner",
          "type": "address"
        },
        {
          "indexed": true,
          "internalType": "address",
          "name": "spender",
          "type": "address"
        },
        {
          "indexed": false,
          "internalType": "uint256",
          "name": "value",
          "type": "uint256"
        }
      ],
      "name": "Approval",
      "type": "event"
    },
    {
      "anonymous": false,
      "inputs": [
        {
          "indexed": true,
          "internalType": "address",
          "name": "delegator",
          "type": "address"
        },
        {
          "indexed": true,
          "internalType": "address",
          "name": "fromDelegate",
          "type": "address"
        },
        {
          "indexed": true,
          "internalType": "address",
          "name": "toDelegate",
          "type": "address"
        }
      ],
      "name": "DelegateChanged",
      "type": "event"
    },
    {
      "anonymous": false,
      "inputs": [
        {
          "indexed": true,
          "internalType": "address",
          "name": "delegate",
          "type": "address"
        },
        {
          "indexed": false,
          "internalType": "uint256",
          "name": "previousBalance",
          "type": "uint256"
        },
        {
          "indexed": false,
          "internalType": "uint256",
          "name": "newBalance",
          "type": "uint256"
        }
      ],
      "name": "DelegateVotesChanged",
      "type": "event"
    },
    {
      "anonymous": false,
      "inputs": [],
      "name": "EIP712DomainChanged",
      "type": "event"
    },
    {
      "anonymous": false,
      "inputs": [
        {
          "indexed": true,
          "internalType": "address",
          "name": "previousOwner",
          "type": "address"
        },
        {
          "indexed": true,
          "internalType": "address",
          "name": "newOwner",
          "type": "address"
        }
      ],
      "name": "OwnershipTransferred",
      "type": "event"
    },
    {
      "anonymous": false,
      "inputs": [
        {
          "indexed": false,
          "internalType": "address",
          "name": "account",
          "type": "address"
        }
      ],
      "name": "Paused",
      "type": "event"
    },
    {
      "anonymous": false,
      "inputs": [
        {
          "indexed": true,
          "internalType": "address",
          "name": "from",
          "type": "address"
        },
        {
          "indexed": true,
          "internalType": "address",
          "name": "to",
          "type": "address"
        },
        {
          "indexed": false,
          "internalType": "uint256",
          "name": "value",
          "type": "uint256"
        }
      ],
      "name": "Transfer",
      "type": "event"
    },
    {
      "anonymous": false,
      "inputs": [
        {
          "indexed": false,
          "internalType": "address",
          "name": "account",
          "type": "address"
        }
      ],
      "name": "Unpaused",
      "type": "event"
    },
    {
      "inputs": [],
      "name": "CLOCK_MODE",
      "outputs": [
        {
          "internalType": "string",
          "name": "",
          "type": "string"
        }
      ],
      "stateMutability": "view",
      "type": "function"
    },
    {
      "inputs": [],
      "name": "DOMAIN_SEPARATOR",
      "outputs": [
        {
          "internalType": "bytes32",
          "name": "",
          "type": "bytes32"
        }
      ],
      "stateMutability": "view",
      "type": "function"
    },
    {
      "inputs": [
        {
          "internalType": "address",
          "name": "owner",
          "type": "address"
        },
        {
          "internalType": "address",
          "name": "spender",
          "type": "address"
        }
      ],
      "name": "allowance",
      "outputs": [
        {
          "internalType": "uint256",
          "name": "",
          "type": "uint256"
        }
      ],
      "stateMutability": "view",
      "type": "function"
    },
    {
      "inputs": [
        {
          "internalType": "address",
          "name": "spender",
          "type": "address"
        },
        {
          "internalType": "uint256",
          "name": "amount",
          "type": "uint256"
        }
      ],
      "name": "approve",
      "outputs": [
        {
          "internalType": "bool",
          "name": "",
          "type": "bool"
        }
      ],
      "stateMutability": "nonpayable",
      "type": "function"
    },
    {
      "inputs": [
        {
          "internalType": "address",
          "name": "account",
          "type": "address"
        }
      ],
      "name": "balanceOf",
      "outputs": [
        {
          "internalType": "uint256",
          "name": "",
          "type": "uint256"
        }
      ],
      "stateMutability": "view",
      "type": "function"
    },
    {
      "inputs": [
        {
          "internalType": "uint256",
          "name": "amount",
          "type": "uint256"
        }
      ],
      "name": "burn",
      "outputs": [],
      "stateMutability": "nonpayable",
      "type": "function"
    },
    {
      "inputs": [
        {
          "internalType": "address",
          "name": "account",
          "type": "address"
        },
        {
          "internalType": "uint256",
          "name": "amount",
          "type": "uint256"
        }
      ],
      "name": "burnFrom",
      "outputs": [],
      "stateMutability": "nonpayable",
      "type": "function"
    },
    {
      "inputs": [
        {
          "internalType": "address",
          "name": "account",
          "type": "address"
        },
        {
          "internalType": "uint32",
          "name": "pos",
          "type": "uint32"
        }
      ],
      "name": "checkpoints",
      "outputs": [
        {
          "components": [
            {
              "internalType": "uint32",
              "name": "fromBlock",
              "type": "uint32"
            },
            {
              "internalType": "uint224",
              "name": "votes",
              "type": "uint224"
            }
          ],
          "internalType": "struct ERC20Votes.Checkpoint",
          "name": "",
          "type": "tuple"
        }
      ],
      "stateMutability": "view",
      "type": "function"
    },
    {
      "inputs": [],
      "name": "clock",
      "outputs": [
        {
          "internalType": "uint48",
          "name": "",
          "type": "uint48"
        }
      ],
      "stateMutability": "view",
      "type": "function"
    },
    {
      "inputs": [],
      "name": "decimals",
      "outputs": [
        {
          "internalType": "uint8",
          "name": "",
          "type": "uint8"
        }
      ],
      "stateMutability": "view",
      "type": "function"
    },
    {
      "inputs": [
        {
          "internalType": "address",
          "name": "spender",
          "type": "address"
        },
        {
          "internalType": "uint256",
          "name": "subtractedValue",
          "type": "uint256"
        }
      ],
      "name": "decreaseAllowance",
      "outputs": [
        {
          "internalType": "bool",
          "name": "",
          "type": "bool"
        }
      ],
      "stateMutability": "nonpayable",
      "type": "function"
    },
    {
      "inputs": [
        {
          "internalType": "address",
          "name": "delegatee",
          "type": "address"
        }
      ],
      "name": "delegate",
      "outputs": [],
      "stateMutability": "nonpayable",
      "type": "function"
    },
    {
      "inputs": [
        {
          "internalType": "address",
          "name": "delegatee",
          "type": "address"
        },
        {
          "internalType": "uint256",
          "name": "nonce",
          "type": "uint256"
        },
        {
          "internalType": "uint256",
          "name": "expiry",
          "type": "uint256"
        },
        {
          "internalType": "uint8",
          "name": "v",
          "type": "uint8"
        },
        {
          "internalType": "bytes32",
          "name": "r",
          "type": "bytes32"
        },
        {
          "internalType": "bytes32",
          "name": "s",
          "type": "bytes32"
        }
      ],
      "name": "delegateBySig",
      "outputs": [],
      "stateMutability": "nonpayable",
      "type": "function"
    },
    {
      "inputs": [
        {
          "internalType": "address",
          "name": "account",
          "type": "address"
        }
      ],
      "name": "delegates",
      "outputs": [
        {
          "internalType": "address",
          "name": "",
          "type": "address"
        }
      ],
      "stateMutability": "view",
      "type": "function"
    },
    {
      "inputs": [],
      "name": "eip712Domain",
      "outputs": [
        {
          "internalType": "bytes1",
          "name": "fields",
          "type": "bytes1"
        },
        {
          "internalType": "string",
          "name": "name",
          "type": "string"
        },
        {
          "internalType": "string",
          "name": "version",
          "type": "string"
        },
        {
          "internalType": "uint256",
          "name": "chainId",
          "type": "uint256"
        },
        {
          "internalType": "address",
          "name": "verifyingContract",
          "type": "address"
        },
        {
          "internalType": "bytes32",
          "name": "salt",
          "type": "bytes32"
        },
        {
          "internalType": "uint256[]",
          "name": "extensions",
          "type": "uint256[]"
        }
      ],
      "stateMutability": "view",
      "type": "function"
    },
    {
      "inputs": [
        {
          "internalType": "uint256",
          "name": "timepoint",
          "type": "uint256"
        }
      ],
      "name": "getPastTotalSupply",
      "outputs": [
        {
          "internalType": "uint256",
          "name": "",
          "type": "uint256"
        }
      ],
      "stateMutability": "view",
      "type": "function"
    },
    {
      "inputs": [
        {
          "internalType": "address",
          "name": "account",
          "type": "address"
        },
        {
          "internalType": "uint256",
          "name": "timepoint",
          "type": "uint256"
        }
      ],
      "name": "getPastVotes",
      "outputs": [
        {
          "internalType": "uint256",
          "name": "",
          "type": "uint256"
        }
      ],
      "stateMutability": "view",
      "type": "function"
    },
    {
      "inputs": [
        {
          "internalType": "address",
          "name": "account",
          "type": "address"
        }
      ],
      "name": "getVotes",
      "outputs": [
        {
          "internalType": "uint256",
          "name": "",
          "type": "uint256"
        }
      ],
      "stateMutability": "view",
      "type": "function"
    },
    {
      "inputs": [
        {
          "internalType": "address",
          "name": "spender",
          "type": "address"
        },
        {
          "internalType": "uint256",
          "name": "addedValue",
          "type": "uint256"
        }
      ],
      "name": "increaseAllowance",
      "outputs": [
        {
          "internalType": "bool",
          "name": "",
          "type": "bool"
        }
      ],
      "stateMutability": "nonpayable",
      "type": "function"
    },
    {
      "inputs": [
        {
          "internalType": "address",
          "name": "to",
          "type": "address"
        },
        {
          "internalType": "uint256",
          "name": "amount",
          "type": "uint256"
        }
      ],
      "name": "mint",
      "outputs": [],
      "stateMutability": "nonpayable",
      "type": "function"
    },
    {
      "inputs": [],
      "name": "name",
      "outputs": [
        {
          "internalType": "string",
          "name": "",
          "type": "string"
        }
      ],
      "stateMutability": "view",
      "type": "function"
    },
    {
      "inputs": [
        {
          "internalType": "address",
          "name": "owner",
          "type": "address"
        }
      ],
      "name": "nonces",
      "outputs": [
        {
          "internalType": "uint256",
          "name": "",
          "type": "uint256"
        }
      ],
      "stateMutability": "view",
      "type": "function"
    },
    {
      "inputs": [
        {
          "internalType": "address",
          "name": "account",
          "type": "address"
        }
      ],
      "name": "numCheckpoints",
      "outputs": [
        {
          "internalType": "uint32",
          "name": "",
          "type": "uint32"
        }
      ],
      "stateMutability": "view",
      "type": "function"
    },
    {
      "inputs": [],
      "name": "owner",
      "outputs": [
        {
          "internalType": "address",
          "name": "",
          "type": "address"
        }
      ],
      "stateMutability": "view",
      "type": "function"
    },
    {
      "inputs": [],
      "name": "pause",
      "outputs": [],
      "stateMutability": "nonpayable",
      "type": "function"
    },
    {
      "inputs": [],
      "name": "paused",
      "outputs": [
        {
          "internalType": "bool",
          "name": "",
          "type": "bool"
        }
      ],
      "stateMutability": "view",
      "type": "function"
    },
    {
      "inputs": [
        {
          "internalType": "address",
          "name": "owner",
          "type": "address"
        },
        {
          "internalType": "address",
          "name": "spender",
          "type": "address"
        },
        {
          "internalType": "uint256",
          "name": "value",
          "type": "uint256"
        },
        {
          "internalType": "uint256",
          "name": "deadline",
          "type": "uint256"
        },
        {
          "internalType": "uint8",
          "name": "v",
          "type": "uint8"
        },
        {
          "internalType": "bytes32",
          "name": "r",
          "type": "bytes32"
        },
        {
          "internalType": "bytes32",
          "name": "s",
          "type": "bytes32"
        }
      ],
      "name": "permit",
      "outputs": [],
      "stateMutability": "nonpayable",
      "type": "function"
    },
    {
      "inputs": [],
      "name": "renounceOwnership",
      "outputs": [],
      "stateMutability": "nonpayable",
      "type": "function"
    },
    {
      "inputs": [],
      "name": "symbol",
      "outputs": [
        {
          "internalType": "string",
          "name": "",
          "type": "string"
        }
      ],
      "stateMutability": "view",
      "type": "function"
    },
    {
      "inputs": [],
      "name": "totalSupply",
      "outputs": [
        {
          "internalType": "uint256",
          "name": "",
          "type": "uint256"
        }
      ],
      "stateMutability": "view",
      "type": "function"
    },
    {
      "inputs": [
        {
          "internalType": "address",
          "name": "to",
          "type": "address"
        },
        {
          "internalType": "uint256",
          "name": "amount",
          "type": "uint256"
        }
      ],
      "name": "transfer",
      "outputs": [
        {
          "internalType": "bool",
          "name": "",
          "type": "bool"
        }
      ],
      "stateMutability": "nonpayable",
      "type": "function"
    },
    {
      "inputs": [
        {
          "internalType": "address",
          "name": "from",
          "type": "address"
        },
        {
          "internalType": "address",
          "name": "to",
          "type": "address"
        },
        {
          "internalType": "uint256",
          "name": "amount",
          "type": "uint256"
        }
      ],
      "name": "transferFrom",
      "outputs": [
        {
          "internalType": "bool",
          "name": "",
          "type": "bool"
        }
      ],
      "stateMutability": "nonpayable",
      "type": "function"
    },
    {
      "inputs": [
        {
          "internalType": "address",
          "name": "newOwner",
          "type": "address"
        }
      ],
      "name": "transferOwnership",
      "outputs": [],
      "stateMutability": "nonpayable",
      "type": "function"
    },
    {
      "inputs": [],
      "name": "unpause",
      "outputs": [],
      "stateMutability": "nonpayable",
      "type": "function"
    }
  ],
  "bytecode": "0x6101606040523480156200001257600080fd5b506040518060400160405280600881526020017f566972656f455448000000000000000000000000000000000000000000000000815250806040518060400160405280600181526020017f31000000000000000000000000000000000000000000000000000000000000008152506040518060400160405280600881526020017f566972656f4554480000000000000000000000000000000000000000000000008152506040518060400160405280600581526020017f76724554480000000000000000000000000000000000000000000000000000008152508160039081620000fd919062000678565b5080600490816200010f919062000678565b5050506000600560006101000a81548160ff0219169083151502179055506200014d620001416200020460201b60201c565b6200020c60201b60201c565b62000163600683620002d260201b90919060201c565b610120818152505062000181600782620002d260201b90919060201c565b6101408181525050818051906020012060e08181525050808051906020012061010081815250504660a08181525050620001c06200032a60201b60201c565b608081815250503073ffffffffffffffffffffffffffffffffffffffff1660c08173ffffffffffffffffffffffffffffffffffffffff168152505050505062000982565b600033905090565b6000600560019054906101000a900473ffffffffffffffffffffffffffffffffffffffff16905081600560016101000a81548173ffffffffffffffffffffffffffffffffffffffff021916908373ffffffffffffffffffffffffffffffffffffffff1602179055508173ffffffffffffffffffffffffffffffffffffffff168173ffffffffffffffffffffffffffffffffffffffff167f8be0079c531659141344cd1fd0a4f28419497f9722a3daafe3b4186f6b6457e060405160405180910390a35050565b6000602083511015620002f857620002f0836200038760201b60201c565b905062000324565b826200030a83620003f460201b60201c565b60000190816200031b919062000678565b5060ff60001b90505b92915050565b60007f8b73c3c69bb8fe3d512ecc4cf759cc79239f7b179b0ffacaa9a75d522b39400f60e0516101005146306040516020016200036c959493929190620007d0565b60405160208183030381529060405280519060200120905090565b600080829050601f81511115620003d757826040517f305a27a9000000000000000000000000000000000000000000000000000000008152600401620003ce9190620008bc565b60405180910390fd5b805181620003e59062000912565b60001c1760001b915050919050565b6000819050919050565b600081519050919050565b7f4e487b7100000000000000000000000000000000000000000000000000000000600052604160045260246000fd5b7f4e487b7100000000000000000000000000000000000000000000000000000000600052602260045260246000fd5b600060028204905060018216806200048057607f821691505b60208210810362000496576200049562000438565b5b50919050565b60008190508160005260206000209050919050565b60006020601f8301049050919050565b600082821b905092915050565b600060088302620005007fffffffffffffffffffffffffffffffffffffffffffffffffffffffffffffffff82620004c1565b6200050c8683620004c1565b95508019841693508086168417925050509392505050565b6000819050919050565b6000819050919050565b600062000559620005536200054d8462000524565b6200052e565b62000524565b9050919050565b6000819050919050565b620005758362000538565b6200058d620005848262000560565b848454620004ce565b825550505050565b600090565b620005a462000595565b620005b18184846200056a565b505050565b5b81811015620005d957620005cd6000826200059a565b600181019050620005b7565b5050565b601f8211156200062857620005f2816200049c565b620005fd84620004b1565b810160208510156200060d578190505b620006256200061c85620004b1565b830182620005b6565b50505b505050565b600082821c905092915050565b60006200064d600019846008026200062d565b1980831691505092915050565b60006200066883836200063a565b9150826002028217905092915050565b6200068382620003fe565b67ffffffffffffffff8111156200069f576200069e62000409565b5b620006ab825462000467565b620006b8828285620005dd565b600060209050601f831160018114620006f05760008415620006db578287015190505b620006e785826200065a565b86555062000757565b601f19841662000700866200049c565b60005b828110156200072a5784890151825560018201915060208501945060208101905062000703565b868310156200074a578489015162000746601f8916826200063a565b8355505b6001600288020188555050505b505050505050565b6000819050919050565b62000774816200075f565b82525050565b620007858162000524565b82525050565b600073ffffffffffffffffffffffffffffffffffffffff82169050919050565b6000620007b8826200078b565b9050919050565b620007ca81620007ab565b82525050565b600060a082019050620007e7600083018862000769565b620007f6602083018762000769565b62000805604083018662000769565b6200081460608301856200077a565b620008236080830184620007bf565b9695505050505050565b600082825260208201905092915050565b60005b838110156200085e57808201518184015260208101905062000841565b60008484015250505050565b6000601f19601f8301169050919050565b60006200088882620003fe565b6200089481856200082d565b9350620008a68185602086016200083e565b620008b1816200086a565b840191505092915050565b60006020820190508181036000830152620008d881846200087b565b905092915050565b600081519050919050565b6000819050602082019050919050565b60006200090982516200075f565b80915050919050565b60006200091f82620008e0565b826200092b84620008eb565b90506200093881620008fb565b925060208210156200097b57620009767fffffffffffffffffffffffffffffffffffffffffffffffffffffffffffffffff83602003600802620004c1565b831692505b5050919050565b60805160a05160c05160e05161010051610120516101405161490d620009dd6000396000610b7601526000610b4201526000611fed01526000611fcc0152600061183b01526000611891015260006118ba015261490d6000f3fe608060405234801561001057600080fd5b50600436106102065760003560e01c8063715018a61161011a57806395d89b41116100ad578063c3cda5201161007c578063c3cda5201461060b578063d505accf14610627578063dd62ed3e14610643578063f1127ed814610673578063f2fde38b146106a357610206565b806395d89b411461055d5780639ab24eb01461057b578063a457c2d7146105ab578063a9059cbb146105db57610206565b806384b0196e116100e957806384b0196e146104cd5780638da5cb5b146104f15780638e539e8c1461050f57806391ddadf41461053f57610206565b8063715018a61461046d57806379cc6790146104775780637ecebe00146104935780638456cb59146104c357610206565b80633f4ba83a1161019d578063587cde1e1161016c578063587cde1e146103a35780635c19a95c146103d35780635c975abb146103ef5780636fcfff451461040d57806370a082311461043d57610206565b80633f4ba83a1461034357806340c10f191461034d57806342966c68146103695780634bf5d7e91461038557610206565b8063313ce567116101d9578063313ce567146102a75780633644e515146102c557806339509351146102e35780633a46b1a81461031357610206565b806306fdde031461020b578063095ea7b31461022957806318160ddd1461025957806323b872dd14610277575b600080fd5b6102136106bf565b60405161022091906130c1565b60405180910390f35b610243600480360381019061023e919061317c565b610751565b60405161025091906131d7565b60405180910390f35b610261610774565b60405161026e9190613201565b60405180910390f35b610291600480360381019061028c919061321c565b61077e565b60405161029e91906131d7565b60405180910390f35b6102af6107ad565b6040516102bc919061328b565b60405180910390f35b6102cd6107b6565b6040516102da91906132bf565b60405180910390f35b6102fd60048036038101906102f8919061317c565b6107c5565b60405161030a91906131d7565b60405180910390f35b61032d6004803603810190610328919061317c565b6107fc565b60405161033a9190613201565b60405180910390f35b61034b61089f565b005b6103676004803603810190610362919061317c565b6108b1565b005b610383600480360381019061037e91906132da565b6108c7565b005b61038d6108db565b60405161039a91906130c1565b60405180910390f35b6103bd60048036038101906103b89190613307565b610969565b6040516103ca9190613343565b60405180910390f35b6103ed60048036038101906103e89190613307565b6109d2565b005b6103f76109e6565b60405161040491906131d7565b60405180910390f35b61042760048036038101906104229190613307565b6109fd565b604051610434919061337d565b60405180910390f35b61045760048036038101906104529190613307565b610a51565b6040516104649190613201565b60405180910390f35b610475610a99565b005b610491600480360381019061048c919061317c565b610aad565b005b6104ad60048036038101906104a89190613307565b610acd565b6040516104ba9190613201565b60405180910390f35b6104cb610b1d565b005b6104d5610b2f565b6040516104e89796959493929190613491565b60405180910390f35b6104f9610c31565b6040516105069190613343565b60405180910390f35b610529600480360381019061052491906132da565b610c5b565b6040516105369190613201565b60405180910390f35b610547610cc0565b6040516105549190613536565b60405180910390f35b610565610cd0565b60405161057291906130c1565b60405180910390f35b61059560048036038101906105909190613307565b610d62565b6040516105a29190613201565b60405180910390f35b6105c560048036038101906105c0919061317c565b610e6a565b6040516105d291906131d7565b60405180910390f35b6105f560048036038101906105f0919061317c565b610ee1565b60405161060291906131d7565b60405180910390f35b610625600480360381019061062091906135a9565b610f04565b005b610641600480360381019061063c9190613636565b611008565b005b61065d600480360381019061065891906136d8565b61114a565b60405161066a9190613201565b60405180910390f35b61068d60048036038101906106889190613744565b6111d1565b60405161069a91906137f9565b60405180910390f35b6106bd60048036038101906106b89190613307565b6112e1565b005b6060600380546106ce90613843565b80601f01602080910402602001604051908101604052809291908181526020018280546106fa90613843565b80156107475780601f1061071c57610100808354040283529160200191610747565b820191906000526020600020905b81548152906001019060200180831161072a57829003601f168201915b5050505050905090565b60008061075c611364565b905061076981858561136c565b600191505092915050565b6000600254905090565b600080610789611364565b9050610796858285611535565b6107a18585856115c1565b60019150509392505050565b60006012905090565b60006107c0611837565b905090565b6000806107d0611364565b90506107f18185856107e2858961114a565b6107ec91906138a3565b61136c565b600191505092915050565b6000610806610cc0565b65ffffffffffff16821061084f576040517f08c379a000000000000000000000000000000000000000000000000000000000815260040161084690613923565b60405180910390fd5b610897600b60008573ffffffffffffffffffffffffffffffffffffffff1673ffffffffffffffffffffffffffffffffffffffff168152602001908152602001600020836118ee565b905092915050565b6108a7611a36565b6108af611ab4565b565b6108b9611a36565b6108c38282611b17565b5050565b6108d86108d2611364565b82611b25565b50565b6060436108e6610cc0565b65ffffffffffff161461092e576040517f08c379a00000000000000000000000000000000000000000000000000000000081526004016109259061398f565b60405180910390fd5b6040518060400160405280601d81526020017f6d6f64653d626c6f636b6e756d6265722666726f6d3d64656661756c74000000815250905090565b6000600a60008373ffffffffffffffffffffffffffffffffffffffff1673ffffffffffffffffffffffffffffffffffffffff16815260200190815260200160002060009054906101000a900473ffffffffffffffffffffffffffffffffffffffff169050919050565b6109e36109dd611364565b82611b33565b50565b6000600560009054906101000a900460ff16905090565b6000610a4a600b60008473ffffffffffffffffffffffffffffffffffffffff1673ffffffffffffffffffffffffffffffffffffffff16815260200190815260200160002080549050611c4d565b9050919050565b60008060008373ffffffffffffffffffffffffffffffffffffffff1673ffffffffffffffffffffffffffffffffffffffff168152602001908152602001600020549050919050565b610aa1611a36565b610aab6000611ca0565b565b610abf82610ab9611364565b83611535565b610ac98282611b25565b5050565b6000610b16600860008473ffffffffffffffffffffffffffffffffffffffff1673ffffffffffffffffffffffffffffffffffffffff168152602001908152602001600020611d66565b9050919050565b610b25611a36565b610b2d611d74565b565b600060608060008060006060610b6f60067f0000000000000000000000000000000000000000000000000000000000000000611dd790919063ffffffff16565b610ba360077f0000000000000000000000000000000000000000000000000000000000000000611dd790919063ffffffff16565b46306000801b600067ffffffffffffffff811115610bc457610bc36139af565b5b604051908082528060200260200182016040528015610bf25781602001602082028036833780820191505090505b507f0f00000000000000000000000000000000000000000000000000000000000000959493929190965096509650965096509650965090919293949596565b6000600560019054906101000a900473ffffffffffffffffffffffffffffffffffffffff16905090565b6000610c65610cc0565b65ffffffffffff168210610cae576040517f08c379a0000000000000000000000000000000000000000000000000000000008152600401610ca590613923565b60405180910390fd5b610cb9600c836118ee565b9050919050565b6000610ccb43611e87565b905090565b606060048054610cdf90613843565b80601f0160208091040260200160405190810160405280929190818152602001828054610d0b90613843565b8015610d585780601f10610d2d57610100808354040283529160200191610d58565b820191906000526020600020905b815481529060010190602001808311610d3b57829003601f168201915b5050505050905090565b600080600b60008473ffffffffffffffffffffffffffffffffffffffff1673ffffffffffffffffffffffffffffffffffffffff16815260200190815260200160002080549050905060008114610e4157600b60008473ffffffffffffffffffffffffffffffffffffffff1673ffffffffffffffffffffffffffffffffffffffff1681526020019081526020016000206001820381548110610e0657610e056139de565b5b9060005260206000200160000160049054906101000a90047bffffffffffffffffffffffffffffffffffffffffffffffffffffffff16610e44565b60005b7bffffffffffffffffffffffffffffffffffffffffffffffffffffffff16915050919050565b600080610e75611364565b90506000610e83828661114a565b905083811015610ec8576040517f08c379a0000000000000000000000000000000000000000000000000000000008152600401610ebf90613a7f565b60405180910390fd5b610ed5828686840361136c565b60019250505092915050565b600080610eec611364565b9050610ef98185856115c1565b600191505092915050565b83421115610f47576040517f08c379a0000000000000000000000000000000000000000000000000000000008152600401610f3e90613aeb565b60405180910390fd5b6000610fa9610fa17fe48329057bfd03d55e49b547132e39cffd9c1820ad7b9d4c5307691425d15adf898989604051602001610f869493929190613b0b565b60405160208183030381529060405280519060200120611edc565b858585611ef6565b9050610fb481611f21565b8614610ff5576040517f08c379a0000000000000000000000000000000000000000000000000000000008152600401610fec90613b9c565b60405180910390fd5b610fff8188611b33565b50505050505050565b8342111561104b576040517f08c379a000000000000000000000000000000000000000000000000000000000815260040161104290613c08565b60405180910390fd5b60007f6e71edae12b1b97f4d1f60370fef10105fa2faae0126114a169c64845d6126c988888861107a8c611f21565b8960405160200161109096959493929190613c28565b60405160208183030381529060405280519060200120905060006110b382611edc565b905060006110c382878787611ef6565b90508973ffffffffffffffffffffffffffffffffffffffff168173ffffffffffffffffffffffffffffffffffffffff1614611133576040517f08c379a000000000000000000000000000000000000000000000000000000000815260040161112a90613cd5565b60405180910390fd5b61113e8a8a8a61136c565b50505050505050505050565b6000600160008473ffffffffffffffffffffffffffffffffffffffff1673ffffffffffffffffffffffffffffffffffffffff16815260200190815260200160002060008373ffffffffffffffffffffffffffffffffffffffff1673ffffffffffffffffffffffffffffffffffffffff16815260200190815260200160002054905092915050565b6111d9612ff3565b600b60008473ffffffffffffffffffffffffffffffffffffffff1673ffffffffffffffffffffffffffffffffffffffff1681526020019081526020016000208263ffffffff16815481106112305761122f6139de565b5b906000526020600020016040518060400160405290816000820160009054906101000a900463ffffffff1663ffffffff1663ffffffff1681526020016000820160049054906101000a90047bffffffffffffffffffffffffffffffffffffffffffffffffffffffff167bffffffffffffffffffffffffffffffffffffffffffffffffffffffff167bffffffffffffffffffffffffffffffffffffffffffffffffffffffff1681525050905092915050565b6112e9611a36565b600073ffffffffffffffffffffffffffffffffffffffff168173ffffffffffffffffffffffffffffffffffffffff1603611358576040517f08c379a000000000000000000000000000000000000000000000000000000000815260040161134f90613d67565b60405180910390fd5b61136181611ca0565b50565b600033905090565b600073ffffffffffffffffffffffffffffffffffffffff168373ffffffffffffffffffffffffffffffffffffffff16036113db576040517f08c379a00000000000000000000000000000000000000000000000000000000081526004016113d290613df9565b60405180910390fd5b600073ffffffffffffffffffffffffffffffffffffffff168273ffffffffffffffffffffffffffffffffffffffff160361144a576040517f08c379a000000000000000000000000000000000000000000000000000000000815260040161144190613e8b565b60405180910390fd5b80600160008573ffffffffffffffffffffffffffffffffffffffff1673ffffffffffffffffffffffffffffffffffffffff16815260200190815260200160002060008473ffffffffffffffffffffffffffffffffffffffff1673ffffffffffffffffffffffffffffffffffffffff168152602001908152602001600020819055508173ffffffffffffffffffffffffffffffffffffffff168373ffffffffffffffffffffffffffffffffffffffff167f8c5be1e5ebec7d5bd14f71427d1e84f3dd0314c0f7b2291e5b200ac8c7c3b925836040516115289190613201565b60405180910390a3505050565b6000611541848461114a565b90507fffffffffffffffffffffffffffffffffffffffffffffffffffffffffffffffff81146115bb57818110156115ad576040517f08c379a00000000000000000000000000000000000000000000000000000000081526004016115a490613ef7565b60405180910390fd5b6115ba848484840361136c565b5b50505050565b600073ffffffffffffffffffffffffffffffffffffffff168373ffffffffffffffffffffffffffffffffffffffff1603611630576040517f08c379a000000000000000000000000000000000000000000000000000000000815260040161162790613f89565b60405180910390fd5b600073ffffffffffffffffffffffffffffffffffffffff168273ffffffffffffffffffffffffffffffffffffffff160361169f576040517f08c379a00000000000000000000000000000000000000000000000000000000081526004016116969061401b565b60405180910390fd5b6116aa838383611f7f565b60008060008573ffffffffffffffffffffffffffffffffffffffff1673ffffffffffffffffffffffffffffffffffffffff16815260200190815260200160002054905081811015611730576040517f08c379a0000000000000000000000000000000000000000000000000000000008152600401611727906140ad565b60405180910390fd5b8181036000808673ffffffffffffffffffffffffffffffffffffffff1673ffffffffffffffffffffffffffffffffffffffff16815260200190815260200160002081905550816000808573ffffffffffffffffffffffffffffffffffffffff1673ffffffffffffffffffffffffffffffffffffffff168152602001908152602001600020600082825401925050819055508273ffffffffffffffffffffffffffffffffffffffff168473ffffffffffffffffffffffffffffffffffffffff167fddf252ad1be2c89b69c2b068fc378daa952ba7f163c4a11628f55a4df523b3ef8460405161181e9190613201565b60405180910390a3611831848484611f97565b50505050565b60007f000000000000000000000000000000000000000000000000000000000000000073ffffffffffffffffffffffffffffffffffffffff163073ffffffffffffffffffffffffffffffffffffffff161480156118b357507f000000000000000000000000000000000000000000000000000000000000000046145b156118e0577f000000000000000000000000000000000000000000000000000000000000000090506118eb565b6118e8611fa7565b90505b90565b6000808380549050905060008082905060058311156119645760006119128461203d565b8461191d91906140cd565b90508561192a8883612136565b60000160009054906101000a900463ffffffff1663ffffffff16111561195257809150611962565b60018161195f91906138a3565b92505b505b5b808210156119c4576000611979838361214b565b9050856119868883612136565b60000160009054906101000a900463ffffffff1663ffffffff1611156119ae578091506119be565b6001816119bb91906138a3565b92505b50611965565b60008114611a0a576119d98660018303612136565b60000160049054906101000a90047bffffffffffffffffffffffffffffffffffffffffffffffffffffffff16611a0d565b60005b7bffffffffffffffffffffffffffffffffffffffffffffffffffffffff16935050505092915050565b611a3e611364565b73ffffffffffffffffffffffffffffffffffffffff16611a5c610c31565b73ffffffffffffffffffffffffffffffffffffffff1614611ab2576040517f08c379a0000000000000000000000000000000000000000000000000000000008152600401611aa99061414d565b60405180910390fd5b565b611abc612171565b6000600560006101000a81548160ff0219169083151502179055507f5db9ee0a495bf2e6ff9c91a7834c1ba4fdd244a5e8aa4e537bd38aeae4b073aa611b00611364565b604051611b0d9190613343565b60405180910390a1565b611b2182826121ba565b5050565b611b2f8282612247565b5050565b6000611b3e83610969565b90506000611b4b84610a51565b905082600a60008673ffffffffffffffffffffffffffffffffffffffff1673ffffffffffffffffffffffffffffffffffffffff16815260200190815260200160002060006101000a81548173ffffffffffffffffffffffffffffffffffffffff021916908373ffffffffffffffffffffffffffffffffffffffff1602179055508273ffffffffffffffffffffffffffffffffffffffff168273ffffffffffffffffffffffffffffffffffffffff168573ffffffffffffffffffffffffffffffffffffffff167f3134e8a2e6d97e929a7e54011ea5485d7d196dd5f0ba4d4ef95803e8e3fc257f60405160405180910390a4611c47828483612265565b50505050565b600063ffffffff8016821115611c98576040517f08c379a0000000000000000000000000000000000000000000000000000000008152600401611c8f906141df565b60405180910390fd5b819050919050565b6000600560019054906101000a900473ffffffffffffffffffffffffffffffffffffffff16905081600560016101000a81548173ffffffffffffffffffffffffffffffffffffffff021916908373ffffffffffffffffffffffffffffffffffffffff1602179055508173ffffffffffffffffffffffffffffffffffffffff168173ffffffffffffffffffffffffffffffffffffffff167f8be0079c531659141344cd1fd0a4f28419497f9722a3daafe3b4186f6b6457e060405160405180910390a35050565b600081600001549050919050565b611d7c61245e565b6001600560006101000a81548160ff0219169083151502179055507f62e78cea01bee320cd4e420270b5ea74000d11b0c9f74754ebdbfc544b05a258611dc0611364565b604051611dcd9190613343565b60405180910390a1565b606060ff60001b8314611df457611ded836124a8565b9050611e81565b818054611e0090613843565b80601f0160208091040260200160405190810160405280929190818152602001828054611e2c90613843565b8015611e795780601f10611e4e57610100808354040283529160200191611e79565b820191906000526020600020905b815481529060010190602001808311611e5c57829003601f168201915b505050505090505b92915050565b600065ffffffffffff8016821115611ed4576040517f08c379a0000000000000000000000000000000000000000000000000000000008152600401611ecb90614271565b60405180910390fd5b819050919050565b6000611eef611ee9611837565b8361251c565b9050919050565b6000806000611f078787878761255d565b91509150611f148161263f565b8192505050949350505050565b600080600860008473ffffffffffffffffffffffffffffffffffffffff1673ffffffffffffffffffffffffffffffffffffffff1681526020019081526020016000209050611f6e81611d66565b9150611f79816127a5565b50919050565b611f8761245e565b611f928383836127bb565b505050565b611fa28383836127c0565b505050565b60007f8b73c3c69bb8fe3d512ecc4cf759cc79239f7b179b0ffacaa9a75d522b39400f7f00000000000000000000000000000000000000000000000000000000000000007f00000000000000000000000000000000000000000000000000000000000000004630604051602001612022959493929190614291565b60405160208183030381529060405280519060200120905090565b600080820361204f5760009050612131565b6000600161205c846127eb565b901c6001901b90506001818481612076576120756142e4565b5b048201901c9050600181848161208f5761208e6142e4565b5b048201901c905060018184816120a8576120a76142e4565b5b048201901c905060018184816120c1576120c06142e4565b5b048201901c905060018184816120da576120d96142e4565b5b048201901c905060018184816120f3576120f26142e4565b5b048201901c9050600181848161210c5761210b6142e4565b5b048201901c905061212d81828581612127576121266142e4565b5b046128cc565b9150505b919050565b60008260005281602060002001905092915050565b6000600282841861215c9190614313565b82841661216991906138a3565b905092915050565b6121796109e6565b6121b8576040517f08c379a00000000000000000000000000000000000000000000000000000000081526004016121af90614390565b60405180910390fd5b565b6121c482826128e5565b6121cc612a3b565b7bffffffffffffffffffffffffffffffffffffffffffffffffffffffff166121f2610774565b1115612233576040517f08c379a000000000000000000000000000000000000000000000000000000000815260040161222a90614422565b60405180910390fd5b612241600c612a5f83612a75565b50505050565b6122518282612d50565b61225f600c612f1d83612a75565b50505050565b8173ffffffffffffffffffffffffffffffffffffffff168373ffffffffffffffffffffffffffffffffffffffff16141580156122a15750600081115b1561245957600073ffffffffffffffffffffffffffffffffffffffff168373ffffffffffffffffffffffffffffffffffffffff161461237f57600080612328600b60008773ffffffffffffffffffffffffffffffffffffffff1673ffffffffffffffffffffffffffffffffffffffff168152602001908152602001600020612f1d85612a75565b915091508473ffffffffffffffffffffffffffffffffffffffff167fdec2bacdd2f05b59de34da9b523dff8be42e5e38e818c82fdb0bae774387a7248383604051612374929190614442565b60405180910390a250505b600073ffffffffffffffffffffffffffffffffffffffff168273ffffffffffffffffffffffffffffffffffffffff161461245857600080612401600b60008673ffffffffffffffffffffffffffffffffffffffff1673ffffffffffffffffffffffffffffffffffffffff168152602001908152602001600020612a5f85612a75565b915091508373ffffffffffffffffffffffffffffffffffffffff167fdec2bacdd2f05b59de34da9b523dff8be42e5e38e818c82fdb0bae774387a724838360405161244d929190614442565b60405180910390a250505b5b505050565b6124666109e6565b156124a6576040517f08c379a000000000000000000000000000000000000000000000000000000000815260040161249d906144b7565b60405180910390fd5b565b606060006124b583612f33565b90506000602067ffffffffffffffff8111156124d4576124d36139af565b5b6040519080825280601f01601f1916602001820160405280156125065781602001600182028036833780820191505090505b5090508181528360208201528092505050919050565b60006040517f190100000000000000000000000000000000000000000000000000000000000081528360028201528260228201526042812091505092915050565b6000807f7fffffffffffffffffffffffffffffff5d576e7357a4501ddfe92f46681b20a08360001c1115612598576000600391509150612636565b6000600187878787604051600081526020016040526040516125bd94939291906144d7565b6020604051602081039080840390855afa1580156125df573d6000803e3d6000fd5b505050602060405103519050600073ffffffffffffffffffffffffffffffffffffffff168173ffffffffffffffffffffffffffffffffffffffff160361262d57600060019250925050612636565b80600092509250505b94509492505050565b600060048111156126535761265261451c565b5b8160048111156126665761266561451c565b5b03156127a257600160048111156126805761267f61451c565b5b8160048111156126935761269261451c565b5b036126d3576040517f08c379a00000000000000000000000000000000000000000000000000000000081526004016126ca90614597565b60405180910390fd5b600260048111156126e7576126e661451c565b5b8160048111156126fa576126f961451c565b5b0361273a576040517f08c379a000000000000000000000000000000000000000000000000000000000815260040161273190614603565b60405180910390fd5b6003600481111561274e5761274d61451c565b5b8160048111156127615761276061451c565b5b036127a1576040517f08c379a000000000000000000000000000000000000000000000000000000000815260040161279890614695565b60405180910390fd5b5b50565b6001816000016000828254019250508190555050565b505050565b6127cb838383612f83565b6127e66127d784610969565b6127e084610969565b83612265565b505050565b600080600090506000608084901c111561280d57608083901c92506080810190505b6000604084901c111561282857604083901c92506040810190505b6000602084901c111561284357602083901c92506020810190505b6000601084901c111561285e57601083901c92506010810190505b6000600884901c111561287957600883901c92506008810190505b6000600484901c111561289457600483901c92506004810190505b6000600284901c11156128af57600283901c92506002810190505b6000600184901c11156128c3576001810190505b80915050919050565b60008183106128db57816128dd565b825b905092915050565b600073ffffffffffffffffffffffffffffffffffffffff168273ffffffffffffffffffffffffffffffffffffffff1603612954576040517f08c379a000000000000000000000000000000000000000000000000000000000815260040161294b90614701565b60405180910390fd5b61296060008383611f7f565b806002600082825461297291906138a3565b92505081905550806000808473ffffffffffffffffffffffffffffffffffffffff1673ffffffffffffffffffffffffffffffffffffffff168152602001908152602001600020600082825401925050819055508173ffffffffffffffffffffffffffffffffffffffff16600073ffffffffffffffffffffffffffffffffffffffff167fddf252ad1be2c89b69c2b068fc378daa952ba7f163c4a11628f55a4df523b3ef83604051612a239190613201565b60405180910390a3612a3760008383611f97565b5050565b60007bffffffffffffffffffffffffffffffffffffffffffffffffffffffff905090565b60008183612a6d91906138a3565b905092915050565b6000806000858054905090506000808214612b3b57612a978760018403612136565b6040518060400160405290816000820160009054906101000a900463ffffffff1663ffffffff1663ffffffff1681526020016000820160049054906101000a90047bffffffffffffffffffffffffffffffffffffffffffffffffffffffff167bffffffffffffffffffffffffffffffffffffffffffffffffffffffff167bffffffffffffffffffffffffffffffffffffffffffffffffffffffff1681525050612b77565b6040518060400160405280600063ffffffff16815260200160007bffffffffffffffffffffffffffffffffffffffffffffffffffffffff168152505b905080602001517bffffffffffffffffffffffffffffffffffffffffffffffffffffffff169350612bac84868863ffffffff16565b9250600082118015612bd65750612bc1610cc0565b65ffffffffffff16816000015163ffffffff16145b15612c4757612be483612f88565b612bf18860018503612136565b60000160046101000a8154817bffffffffffffffffffffffffffffffffffffffffffffffffffffffff02191690837bffffffffffffffffffffffffffffffffffffffffffffffffffffffff160217905550612d46565b866040518060400160405280612c6b612c5e610cc0565b65ffffffffffff16611c4d565b63ffffffff168152602001612c7f86612f88565b7bffffffffffffffffffffffffffffffffffffffffffffffffffffffff168152509080600181540180825580915050600190039060005260206000200160009091909190915060008201518160000160006101000a81548163ffffffff021916908363ffffffff16021790555060208201518160000160046101000a8154817bffffffffffffffffffffffffffffffffffffffffffffffffffffffff02191690837bffffffffffffffffffffffffffffffffffffffffffffffffffffffff16021790555050505b5050935093915050565b600073ffffffffffffffffffffffffffffffffffffffff168273ffffffffffffffffffffffffffffffffffffffff1603612dbf576040517f08c379a0000000000000000000000000000000000000000000000000000000008152600401612db690614793565b60405180910390fd5b612dcb82600083611f7f565b60008060008473ffffffffffffffffffffffffffffffffffffffff1673ffffffffffffffffffffffffffffffffffffffff16815260200190815260200160002054905081811015612e51576040517f08c379a0000000000000000000000000000000000000000000000000000000008152600401612e4890614825565b60405180910390fd5b8181036000808573ffffffffffffffffffffffffffffffffffffffff1673ffffffffffffffffffffffffffffffffffffffff1681526020019081526020016000208190555081600260008282540392505081905550600073ffffffffffffffffffffffffffffffffffffffff168373ffffffffffffffffffffffffffffffffffffffff167fddf252ad1be2c89b69c2b068fc378daa952ba7f163c4a11628f55a4df523b3ef84604051612f049190613201565b60405180910390a3612f1883600084611f97565b505050565b60008183612f2b91906140cd565b905092915050565b60008060ff8360001c169050601f811115612f7a576040517fb3512b0c00000000000000000000000000000000000000000000000000000000815260040160405180910390fd5b80915050919050565b505050565b60007bffffffffffffffffffffffffffffffffffffffffffffffffffffffff8016821115612feb576040517f08c379a0000000000000000000000000000000000000000000000000000000008152600401612fe2906148b7565b60405180910390fd5b819050919050565b6040518060400160405280600063ffffffff16815260200160007bffffffffffffffffffffffffffffffffffffffffffffffffffffffff1681525090565b600081519050919050565b600082825260208201905092915050565b60005b8381101561306b578082015181840152602081019050613050565b60008484015250505050565b6000601f19601f8301169050919050565b600061309382613031565b61309d818561303c565b93506130ad81856020860161304d565b6130b681613077565b840191505092915050565b600060208201905081810360008301526130db8184613088565b905092915050565b600080fd5b600073ffffffffffffffffffffffffffffffffffffffff82169050919050565b6000613113826130e8565b9050919050565b61312381613108565b811461312e57600080fd5b50565b6000813590506131408161311a565b92915050565b6000819050919050565b61315981613146565b811461316457600080fd5b50565b60008135905061317681613150565b92915050565b60008060408385031215613193576131926130e3565b5b60006131a185828601613131565b92505060206131b285828601613167565b9150509250929050565b60008115159050919050565b6131d1816131bc565b82525050565b60006020820190506131ec60008301846131c8565b92915050565b6131fb81613146565b82525050565b600060208201905061321660008301846131f2565b92915050565b600080600060608486031215613235576132346130e3565b5b600061324386828701613131565b935050602061325486828701613131565b925050604061326586828701613167565b9150509250925092565b600060ff82169050919050565b6132858161326f565b82525050565b60006020820190506132a0600083018461327c565b92915050565b6000819050919050565b6132b9816132a6565b82525050565b60006020820190506132d460008301846132b0565b92915050565b6000602082840312156132f0576132ef6130e3565b5b60006132fe84828501613167565b91505092915050565b60006020828403121561331d5761331c6130e3565b5b600061332b84828501613131565b91505092915050565b61333d81613108565b82525050565b60006020820190506133586000830184613334565b92915050565b600063ffffffff82169050919050565b6133778161335e565b82525050565b6000602082019050613392600083018461336e565b92915050565b60007fff0000000000000000000000000000000000000000000000000000000000000082169050919050565b6133cd81613398565b82525050565b600081519050919050565b600082825260208201905092915050565b6000819050602082019050919050565b61340881613146565b82525050565b600061341a83836133ff565b60208301905092915050565b6000602082019050919050565b600061343e826133d3565b61344881856133de565b9350613453836133ef565b8060005b8381101561348457815161346b888261340e565b975061347683613426565b925050600181019050613457565b5085935050505092915050565b600060e0820190506134a6600083018a6133c4565b81810360208301526134b88189613088565b905081810360408301526134cc8188613088565b90506134db60608301876131f2565b6134e86080830186613334565b6134f560a08301856132b0565b81810360c08301526135078184613433565b905098975050505050505050565b600065ffffffffffff82169050919050565b61353081613515565b82525050565b600060208201905061354b6000830184613527565b92915050565b61355a8161326f565b811461356557600080fd5b50565b60008135905061357781613551565b92915050565b613586816132a6565b811461359157600080fd5b50565b6000813590506135a38161357d565b92915050565b60008060008060008060c087890312156135c6576135c56130e3565b5b60006135d489828a01613131565b96505060206135e589828a01613167565b95505060406135f689828a01613167565b945050606061360789828a01613568565b935050608061361889828a01613594565b92505060a061362989828a01613594565b9150509295509295509295565b600080600080600080600060e0888a031215613655576136546130e3565b5b60006136638a828b01613131565b97505060206136748a828b01613131565b96505060406136858a828b01613167565b95505060606136968a828b01613167565b94505060806136a78a828b01613568565b93505060a06136b88a828b01613594565b92505060c06136c98a828b01613594565b91505092959891949750929550565b600080604083850312156136ef576136ee6130e3565b5b60006136fd85828601613131565b925050602061370e85828601613131565b9150509250929050565b6137218161335e565b811461372c57600080fd5b50565b60008135905061373e81613718565b92915050565b6000806040838503121561375b5761375a6130e3565b5b600061376985828601613131565b925050602061377a8582860161372f565b9150509250929050565b61378d8161335e565b82525050565b60007bffffffffffffffffffffffffffffffffffffffffffffffffffffffff82169050919050565b6137c481613793565b82525050565b6040820160008201516137e06000850182613784565b5060208201516137f360208501826137bb565b50505050565b600060408201905061380e60008301846137ca565b92915050565b7f4e487b7100000000000000000000000000000000000000000000000000000000600052602260045260246000fd5b6000600282049050600182168061385b57607f821691505b60208210810361386e5761386d613814565b5b50919050565b7f4e487b7100000000000000000000000000000000000000000000000000000000600052601160045260246000fd5b60006138ae82613146565b91506138b983613146565b92508282019050808211156138d1576138d0613874565b5b92915050565b7f4552433230566f7465733a20667574757265206c6f6f6b757000000000000000600082015250565b600061390d60198361303c565b9150613918826138d7565b602082019050919050565b6000602082019050818103600083015261393c81613900565b9050919050565b7f4552433230566f7465733a2062726f6b656e20636c6f636b206d6f6465000000600082015250565b6000613979601d8361303c565b915061398482613943565b602082019050919050565b600060208201905081810360008301526139a88161396c565b9050919050565b7f4e487b7100000000000000000000000000000000000000000000000000000000600052604160045260246000fd5b7f4e487b7100000000000000000000000000000000000000000000000000000000600052603260045260246000fd5b7f45524332303a2064656372656173656420616c6c6f77616e63652062656c6f7760008201527f207a65726f000000000000000000000000000000000000000000000000000000602082015250565b6000613a6960258361303c565b9150613a7482613a0d565b604082019050919050565b60006020820190508181036000830152613a9881613a5c565b9050919050565b7f4552433230566f7465733a207369676e61747572652065787069726564000000600082015250565b6000613ad5601d8361303c565b9150613ae082613a9f565b602082019050919050565b60006020820190508181036000830152613b0481613ac8565b9050919050565b6000608082019050613b2060008301876132b0565b613b2d6020830186613334565b613b3a60408301856131f2565b613b4760608301846131f2565b95945050505050565b7f4552433230566f7465733a20696e76616c6964206e6f6e636500000000000000600082015250565b6000613b8660198361303c565b9150613b9182613b50565b602082019050919050565b60006020820190508181036000830152613bb581613b79565b9050919050565b7f45524332305065726d69743a206578706972656420646561646c696e65000000600082015250565b6000613bf2601d8361303c565b9150613bfd82613bbc565b602082019050919050565b60006020820190508181036000830152613c2181613be5565b9050919050565b600060c082019050613c3d60008301896132b0565b613c4a6020830188613334565b613c576040830187613334565b613c6460608301866131f2565b613c7160808301856131f2565b613c7e60a08301846131f2565b979650505050505050565b7f45524332305065726d69743a20696e76616c6964207369676e61747572650000600082015250565b6000613cbf601e8361303c565b9150613cca82613c89565b602082019050919050565b60006020820190508181036000830152613cee81613cb2565b9050919050565b7f4f776e61626c653a206e6577206f776e657220697320746865207a65726f206160008201527f6464726573730000000000000000000000000000000000000000000000000000602082015250565b6000613d5160268361303c565b9150613d5c82613cf5565b604082019050919050565b60006020820190508181036000830152613d8081613d44565b9050919050565b7f45524332303a20617070726f76652066726f6d20746865207a65726f2061646460008201527f7265737300000000000000000000000000000000000000000000000000000000602082015250565b6000613de360248361303c565b9150613dee82613d87565b604082019050919050565b60006020820190508181036000830152613e1281613dd6565b9050919050565b7f45524332303a20617070726f766520746f20746865207a65726f20616464726560008201527f7373000000000000000000000000000000000000000000000000000000000000602082015250565b6000613e7560228361303c565b9150613e8082613e19565b604082019050919050565b60006020820190508181036000830152613ea481613e68565b9050919050565b7f45524332303a20696e73756666696369656e7420616c6c6f77616e6365000000600082015250565b6000613ee1601d8361303c565b9150613eec82613eab565b602082019050919050565b60006020820190508181036000830152613f1081613ed4565b9050919050565b7f45524332303a207472616e736665722066726f6d20746865207a65726f20616460008201527f6472657373000000000000000000000000000000000000000000000000000000602082015250565b6000613f7360258361303c565b9150613f7e82613f17565b604082019050919050565b60006020820190508181036000830152613fa281613f66565b9050919050565b7f45524332303a207472616e7366657220746f20746865207a65726f206164647260008201527f6573730000000000000000000000000000000000000000000000000000000000602082015250565b600061400560238361303c565b915061401082613fa9565b604082019050919050565b6000602082019050818103600083015261403481613ff8565b9050919050565b7f45524332303a207472616e7366657220616d6f756e742065786365656473206260008201527f616c616e63650000000000000000000000000000000000000000000000000000602082015250565b600061409760268361303c565b91506140a28261403b565b604082019050919050565b600060208201905081810360008301526140c68161408a565b9050919050565b60006140d882613146565b91506140e383613146565b92508282039050818111156140fb576140fa613874565b5b92915050565b7f4f776e61626c653a2063616c6c6572206973206e6f7420746865206f776e6572600082015250565b600061413760208361303c565b915061414282614101565b602082019050919050565b600060208201905081810360008301526141668161412a565b9050919050565b7f53616665436173743a2076616c756520646f65736e27742066697420696e203360008201527f3220626974730000000000000000000000000000000000000000000000000000602082015250565b60006141c960268361303c565b91506141d48261416d565b604082019050919050565b600060208201905081810360008301526141f8816141bc565b9050919050565b7f53616665436173743a2076616c756520646f65736e27742066697420696e203460008201527f3820626974730000000000000000000000000000000000000000000000000000602082015250565b600061425b60268361303c565b9150614266826141ff565b604082019050919050565b6000602082019050818103600083015261428a8161424e565b9050919050565b600060a0820190506142a660008301886132b0565b6142b360208301876132b0565b6142c060408301866132b0565b6142cd60608301856131f2565b6142da6080830184613334565b9695505050505050565b7f4e487b7100000000000000000000000000000000000000000000000000000000600052601260045260246000fd5b600061431e82613146565b915061432983613146565b925082614339576143386142e4565b5b828204905092915050565b7f5061757361626c653a206e6f7420706175736564000000000000000000000000600082015250565b600061437a60148361303c565b915061438582614344565b602082019050919050565b600060208201905081810360008301526143a98161436d565b9050919050565b7f4552433230566f7465733a20746f74616c20737570706c79207269736b73206f60008201527f766572666c6f77696e6720766f74657300000000000000000000000000000000602082015250565b600061440c60308361303c565b9150614417826143b0565b604082019050919050565b6000602082019050818103600083015261443b816143ff565b9050919050565b600060408201905061445760008301856131f2565b61446460208301846131f2565b9392505050565b7f5061757361626c653a2070617573656400000000000000000000000000000000600082015250565b60006144a160108361303c565b91506144ac8261446b565b602082019050919050565b600060208201905081810360008301526144d081614494565b9050919050565b60006080820190506144ec60008301876132b0565b6144f9602083018661327c565b61450660408301856132b0565b61451360608301846132b0565b95945050505050565b7f4e487b7100000000000000000000000000000000000000000000000000000000600052602160045260246000fd5b7f45434453413a20696e76616c6964207369676e61747572650000000000000000600082015250565b600061458160188361303c565b915061458c8261454b565b602082019050919050565b600060208201905081810360008301526145b081614574565b9050919050565b7f45434453413a20696e76616c6964207369676e6174757265206c656e67746800600082015250565b60006145ed601f8361303c565b91506145f8826145b7565b602082019050919050565b6000602082019050818103600083015261461c816145e0565b9050919050565b7f45434453413a20696e76616c6964207369676e6174757265202773272076616c60008201527f7565000000000000000000000000000000000000000000000000000000000000602082015250565b600061467f60228361303c565b915061468a82614623565b604082019050919050565b600060208201905081810360008301526146ae81614672565b9050919050565b7f45524332303a206d696e7420746f20746865207a65726f206164647265737300600082015250565b60006146eb601f8361303c565b91506146f6826146b5565b602082019050919050565b6000602082019050818103600083015261471a816146de565b9050919050565b7f45524332303a206275726e2066726f6d20746865207a65726f2061646472657360008201527f7300000000000000000000000000000000000000000000000000000000000000602082015250565b600061477d60218361303c565b915061478882614721565b604082019050919050565b600060208201905081810360008301526147ac81614770565b9050919050565b7f45524332303a206275726e20616d6f756e7420657863656564732062616c616e60008201527f6365000000000000000000000000000000000000000000000000000000000000602082015250565b600061480f60228361303c565b915061481a826147b3565b604082019050919050565b6000602082019050818103600083015261483e81614802565b9050919050565b7f53616665436173743a2076616c756520646f65736e27742066697420696e203260008201527f3234206269747300000000000000000000000000000000000000000000000000602082015250565b60006148a160278361303c565b91506148ac82614845565b604082019050919050565b600060208201905081810360008301526148d081614894565b905091905056fea2646970667358221220008dd75e464597c89ea39c5ccd8e828ccadacea8e9ac0e73a712c2eed477044a64736f6c63430008130033",
  "linkReferences": {},
  "deployedLinkReferences": {}
}