{
  "_format": "hh-sol-artifact-1",
  "contractName": "VireoDAO",
  "sourceName": "contracts/VireoDAO.sol",
  "abi": [
    {
      "inputs": [
        {
          "internalType": "contract IVotes",
          "name": "_vrETH",
          "type": "address"
        },
        {
          "internalType": "contract TimelockController",
          "name": "_timelock",
          "type": "address"
        },
        {
          "internalType": "address",
          "name": "_vireoX",
          "type": "address"
        }
      ],
      "stateMutability": "nonpayable",
      "type": "constructor"
    },
    {
      "inputs": [],
      "name": "Empty",
      "type": "error"
    },
    {
      "inputs": [],
      "name": "InvalidShortString",
      "type": "error"
    },
    {
      "inputs": [
        {
          "internalType": "string",
          "name": "str",
          "type": "string"
        }
      ],
      "name": "StringTooLong",
      "type": "error"
    },
    {
      "anonymous": false,
      "inputs": [],
      "name": "EIP712DomainChanged",
      "type": "event"
    },
    {
      "anonymous": false,
      "inputs": [
        {
          "indexed": false,
          "internalType": "uint256",
          "name": "proposalId",
          "type": "uint256"
        }
      ],
      "name": "ProposalCanceled",
      "type": "event"
    },
    {
      "anonymous": false,
      "inputs": [
        {
          "indexed": false,
          "internalType": "uint256",
          "name": "proposalId",
          "type": "uint256"
        },
        {
          "indexed": false,
          "internalType": "address",
          "name": "proposer",
          "type": "address"
        },
        {
          "indexed": false,
          "internalType": "address[]",
          "name": "targets",
          "type": "address[]"
        },
        {
          "indexed": false,
          "internalType": "uint256[]",
          "name": "values",
          "type": "uint256[]"
        },
        {
          "indexed": false,
          "internalType": "string[]",
          "name": "signatures",
          "type": "string[]"
        },
        {
          "indexed": false,
          "internalType": "bytes[]",
          "name": "calldatas",
          "type": "bytes[]"
        },
        {
          "indexed": false,
          "internalType": "uint256",
          "name": "voteStart",
          "type": "uint256"
        },
        {
          "indexed": false,
          "internalType": "uint256",
          "name": "voteEnd",
          "type": "uint256"
        },
        {
          "indexed": false,
          "internalType": "string",
          "name": "description",
          "type": "string"
        }
      ],
      "name": "ProposalCreated",
      "type": "event"
    },
    {
      "anonymous": false,
      "inputs": [
        {
          "indexed": false,
          "internalType": "uint256",
          "name": "proposalId",
          "type": "uint256"
        }
      ],
      "name": "ProposalExecuted",
      "type": "event"
    },
    {
      "anonymous": false,
      "inputs": [
        {
          "indexed": false,
          "internalType": "uint256",
          "name": "proposalId",
          "type": "uint256"
        },
        {
          "indexed": false,
          "internalType": "uint256",
          "name": "eta",
          "type": "uint256"
        }
      ],
      "name": "ProposalQueued",
      "type": "event"
    },
    {
      "anonymous": false,
      "inputs": [
        {
          "indexed": false,
          "internalType": "uint256",
          "name": "oldProposalThreshold",
          "type": "uint256"
        },
        {
          "indexed": false,
          "internalType": "uint256",
          "name": "newProposalThreshold",
          "type": "uint256"
        }
      ],
      "name": "ProposalThresholdSet",
      "type": "event"
    },
    {
      "anonymous": false,
      "inputs": [
        {
          "indexed": false,
          "internalType": "uint256",
          "name": "oldQuorumNumerator",
          "type": "uint256"
        },
        {
          "indexed": false,
          "internalType": "uint256",
          "name": "newQuorumNumerator",
          "type": "uint256"
        }
      ],
      "name": "QuorumNumeratorUpdated",
      "type": "event"
    },
    {
      "anonymous": false,
      "inputs": [
        {
          "indexed": false,
          "internalType": "address",
          "name": "oldTimelock",
          "type": "address"
        },
        {
          "indexed": false,
          "internalType": "address",
          "name": "newTimelock",
          "type": "address"
        }
      ],
      "name": "TimelockChange",
      "type": "event"
    },
    {
      "anonymous": false,
      "inputs": [
        {
          "indexed": true,
          "internalType": "address",
          "name": "voter",
          "type": "address"
        },
        {
          "indexed": false,
          "internalType": "uint256",
          "name": "proposalId",
          "type": "uint256"
        },
        {
          "indexed": false,
          "internalType": "uint8",
          "name": "support",
          "type": "uint8"
        },
        {
          "indexed": false,
          "internalType": "uint256",
          "name": "weight",
          "type": "uint256"
        },
        {
          "indexed": false,
          "internalType": "string",
          "name": "reason",
          "type": "string"
        }
      ],
      "name": "VoteCast",
      "type": "event"
    },
    {
      "anonymous": false,
      "inputs": [
        {
          "indexed": true,
          "internalType": "address",
          "name": "voter",
          "type": "address"
        },
        {
          "indexed": false,
          "internalType": "uint256",
          "name": "proposalId",
          "type": "uint256"
        },
        {
          "indexed": false,
          "internalType": "uint8",
          "name": "support",
          "type": "uint8"
        },
        {
          "indexed": false,
          "internalType": "uint256",
          "name": "weight",
          "type": "uint256"
        },
        {
          "indexed": false,
          "internalType": "string",
          "name": "reason",
          "type": "string"
        },
        {
          "indexed": false,
          "internalType": "bytes",
          "name": "params",
          "type": "bytes"
        }
      ],
      "name": "VoteCastWithParams",
      "type": "event"
    },
    {
      "anonymous": false,
      "inputs": [
        {
          "indexed": false,
          "internalType": "uint256",
          "name": "oldVotingDelay",
          "type": "uint256"
        },
        {
          "indexed": false,
          "internalType": "uint256",
          "name": "newVotingDelay",
          "type": "uint256"
        }
      ],
      "name": "VotingDelaySet",
      "type": "event"
    },
    {
      "anonymous": false,
      "inputs": [
        {
          "indexed": false,
          "internalType": "uint256",
          "name": "oldVotingPeriod",
          "type": "uint256"
        },
        {
          "indexed": false,
          "internalType": "uint256",
          "name": "newVotingPeriod",
          "type": "uint256"
        }
      ],
      "name": "VotingPeriodSet",
      "type": "event"
    },
    {
      "inputs": [],
      "name": "BALLOT_TYPEHASH",
      "outputs": [
        {
          "internalType": "bytes32",
          "name": "",
          "type": "bytes32"
        }
      ],
      "stateMutability": "view",
      "type": "function"
    },
    {
      "inputs": [],
      "name": "CLOCK_MODE",
      "outputs": [
        {
          "internalType": "string",
          "name": "",
          "type": "string"
        }
      ],
      "stateMutability": "view",
      "type": "function"
    },
    {
      "inputs": [],
      "name": "COUNTING_MODE",
      "outputs": [
        {
          "internalType": "string",
          "name": "",
          "type": "string"
        }
      ],
      "stateMutability": "pure",
      "type": "function"
    },
    {
      "inputs": [],
      "name": "EXTENDED_BALLOT_TYPEHASH",
      "outputs": [
        {
          "internalType": "bytes32",
          "name": "",
          "type": "bytes32"
        }
      ],
      "stateMutability": "view",
      "type": "function"
    },
    {
      "inputs": [
        {
          "internalType": "address[]",
          "name": "targets",
          "type": "address[]"
        },
        {
          "internalType": "uint256[]",
          "name": "values",
          "type": "uint256[]"
        },
        {
          "internalType": "bytes[]",
          "name": "calldatas",
          "type": "bytes[]"
        },
        {
          "internalType": "bytes32",
          "name": "descriptionHash",
          "type": "bytes32"
        }
      ],
      "name": "cancel",
      "outputs": [
        {
          "internalType": "uint256",
          "name": "",
          "type": "uint256"
        }
      ],
      "stateMutability": "nonpayable",
      "type": "function"
    },
    {
      "inputs": [
        {
          "internalType": "uint256",
          "name": "proposalId",
          "type": "uint256"
        },
        {
          "internalType": "uint8",
          "name": "support",
          "type": "uint8"
        }
      ],
      "name": "castVote",
      "outputs": [
        {
          "internalType": "uint256",
          "name": "",
          "type": "uint256"
        }
      ],
      "stateMutability": "nonpayable",
      "type": "function"
    },
    {
      "inputs": [
        {
          "internalType": "uint256",
          "name": "proposalId",
          "type": "uint256"
        },
        {
          "internalType": "uint8",
          "name": "support",
          "type": "uint8"
        },
        {
          "internalType": "uint8",
          "name": "v",
          "type": "uint8"
        },
        {
          "internalType": "bytes32",
          "name": "r",
          "type": "bytes32"
        },
        {
          "internalType": "bytes32",
          "name": "s",
          "type": "bytes32"
        }
      ],
      "name": "castVoteBySig",
      "outputs": [
        {
          "internalType": "uint256",
          "name": "",
          "type": "uint256"
        }
      ],
      "stateMutability": "nonpayable",
      "type": "function"
    },
    {
      "inputs": [
        {
          "internalType": "uint256",
          "name": "proposalId",
          "type": "uint256"
        },
        {
          "internalType": "uint8",
          "name": "support",
          "type": "uint8"
        },
        {
          "internalType": "string",
          "name": "reason",
          "type": "string"
        }
      ],
      "name": "castVoteWithReason",
      "outputs": [
        {
          "internalType": "uint256",
          "name": "",
          "type": "uint256"
        }
      ],
      "stateMutability": "nonpayable",
      "type": "function"
    },
    {
      "inputs": [
        {
          "internalType": "uint256",
          "name": "proposalId",
          "type": "uint256"
        },
        {
          "internalType": "uint8",
          "name": "support",
          "type": "uint8"
        },
        {
          "internalType": "string",
          "name": "reason",
          "type": "string"
        },
        {
          "internalType": "bytes",
          "name": "params",
          "type": "bytes"
        }
      ],
      "name": "castVoteWithReasonAndParams",
      "outputs": [
        {
          "internalType": "uint256",
          "name": "",
          "type": "uint256"
        }
      ],
      "stateMutability": "nonpayable",
      "type": "function"
    },
    {
      "inputs": [
        {
          "internalType": "uint256",
          "name": "proposalId",
          "type": "uint256"
        },
        {
          "internalType": "uint8",
          "name": "support",
          "type": "uint8"
        },
        {
          "internalType": "string",
          "name": "reason",
          "type": "string"
        },
        {
          "internalType": "bytes",
          "name": "params",
          "type": "bytes"
        },
        {
          "internalType": "uint8",
          "name": "v",
          "type": "uint8"
        },
        {
          "internalType": "bytes32",
          "name": "r",
          "type": "bytes32"
        },
        {
          "internalType": "bytes32",
          "name": "s",
          "type": "bytes32"
        }
      ],
      "name": "castVoteWithReasonAndParamsBySig",
      "outputs": [
        {
          "internalType": "uint256",
          "name": "",
          "type": "uint256"
        }
      ],
      "stateMutability": "nonpayable",
      "type": "function"
    },
    {
      "inputs": [],
      "name": "clock",
      "outputs": [
        {
          "internalType": "uint48",
          "name": "",
          "type": "uint48"
        }
      ],
      "stateMutability": "view",
      "type": "function"
    },
    {
      "inputs": [],
      "name": "eip712Domain",
      "outputs": [
        {
          "internalType": "bytes1",
          "name": "fields",
          "type": "bytes1"
        },
        {
          "internalType": "string",
          "name": "name",
          "type": "string"
        },
        {
          "internalType": "string",
          "name": "version",
          "type": "string"
        },
        {
          "internalType": "uint256",
          "name": "chainId",
          "type": "uint256"
        },
        {
          "internalType": "address",
          "name": "verifyingContract",
          "type": "address"
        },
        {
          "internalType": "bytes32",
          "name": "salt",
          "type": "bytes32"
        },
        {
          "internalType": "uint256[]",
          "name": "extensions",
          "type": "uint256[]"
        }
      ],
      "stateMutability": "view",
      "type": "function"
    },
    {
      "inputs": [
        {
          "internalType": "address[]",
          "name": "targets",
          "type": "address[]"
        },
        {
          "internalType": "uint256[]",
          "name": "values",
          "type": "uint256[]"
        },
        {
          "internalType": "bytes[]",
          "name": "calldatas",
          "type": "bytes[]"
        },
        {
          "internalType": "bytes32",
          "name": "descriptionHash",
          "type": "bytes32"
        }
      ],
      "name": "execute",
      "outputs": [
        {
          "internalType": "uint256",
          "name": "",
          "type": "uint256"
        }
      ],
      "stateMutability": "payable",
      "type": "function"
    },
    {
      "inputs": [
        {
          "internalType": "address",
          "name": "account",
          "type": "address"
        },
        {
          "internalType": "uint256",
          "name": "timepoint",
          "type": "uint256"
        }
      ],
      "name": "getVotes",
      "outputs": [
        {
          "internalType": "uint256",
          "name": "",
          "type": "uint256"
        }
      ],
      "stateMutability": "view",
      "type": "function"
    },
    {
      "inputs": [
        {
          "internalType": "address",
          "name": "account",
          "type": "address"
        },
        {
          "internalType": "uint256",
          "name": "timepoint",
          "type": "uint256"
        },
        {
          "internalType": "bytes",
          "name": "params",
          "type": "bytes"
        }
      ],
      "name": "getVotesWithParams",
      "outputs": [
        {
          "internalType": "uint256",
          "name": "",
          "type": "uint256"
        }
      ],
      "stateMutability": "view",
      "type": "function"
    },
    {
      "inputs": [
        {
          "internalType": "uint256",
          "name": "proposalId",
          "type": "uint256"
        },
        {
          "internalType": "address",
          "name": "account",
          "type": "address"
        }
      ],
      "name": "hasVoted",
      "outputs": [
        {
          "internalType": "bool",
          "name": "",
          "type": "bool"
        }
      ],
      "stateMutability": "view",
      "type": "function"
    },
    {
      "inputs": [
        {
          "internalType": "address[]",
          "name": "targets",
          "type": "address[]"
        },
        {
          "internalType": "uint256[]",
          "name": "values",
          "type": "uint256[]"
        },
        {
          "internalType": "bytes[]",
          "name": "calldatas",
          "type": "bytes[]"
        },
        {
          "internalType": "bytes32",
          "name": "descriptionHash",
          "type": "bytes32"
        }
      ],
      "name": "hashProposal",
      "outputs": [
        {
          "internalType": "uint256",
          "name": "",
          "type": "uint256"
        }
      ],
      "stateMutability": "pure",
      "type": "function"
    },
    {
      "inputs": [],
      "name": "name",
      "outputs": [
        {
          "internalType": "string",
          "name": "",
          "type": "string"
        }
      ],
      "stateMutability": "view",
      "type": "function"
    },
    {
      "inputs": [
        {
          "internalType": "address",
          "name": "",
          "type": "address"
        },
        {
          "internalType": "address",
          "name": "",
          "type": "address"
        },
        {
          "internalType": "uint256[]",
          "name": "",
          "type": "uint256[]"
        },
        {
          "internalType": "uint256[]",
          "name": "",
          "type": "uint256[]"
        },
        {
          "internalType": "bytes",
          "name": "",
          "type": "bytes"
        }
      ],
      "name": "onERC1155BatchReceived",
      "outputs": [
        {
          "internalType": "bytes4",
          "name": "",
          "type": "bytes4"
        }
      ],
      "stateMutability": "nonpayable",
      "type": "function"
    },
    {
      "inputs": [
        {
          "internalType": "address",
          "name": "",
          "type": "address"
        },
        {
          "internalType": "address",
          "name": "",
          "type": "address"
        },
        {
          "internalType": "uint256",
          "name": "",
          "type": "uint256"
        },
        {
          "internalType": "uint256",
          "name": "",
          "type": "uint256"
        },
        {
          "internalType": "bytes",
          "name": "",
          "type": "bytes"
        }
      ],
      "name": "onERC1155Received",
      "outputs": [
        {
          "internalType": "bytes4",
          "name": "",
          "type": "bytes4"
        }
      ],
      "stateMutability": "nonpayable",
      "type": "function"
    },
    {
      "inputs": [
        {
          "internalType": "address",
          "name": "",
          "type": "address"
        },
        {
          "internalType": "address",
          "name": "",
          "type": "address"
        },
        {
          "internalType": "uint256",
          "name": "",
          "type": "uint256"
        },
        {
          "internalType": "bytes",
          "name": "",
          "type": "bytes"
        }
      ],
      "name": "onERC721Received",
      "outputs": [
        {
          "internalType": "bytes4",
          "name": "",
          "type": "bytes4"
        }
      ],
      "stateMutability": "nonpayable",
      "type": "function"
    },
    {
      "inputs": [
        {
          "internalType": "uint256",
          "name": "proposalId",
          "type": "uint256"
        }
      ],
      "name": "proposalDeadline",
      "outputs": [
        {
          "internalType": "uint256",
          "name": "",
          "type": "uint256"
        }
      ],
      "stateMutability": "view",
      "type": "function"
    },
    {
      "inputs": [
        {
          "internalType": "uint256",
          "name": "proposalId",
          "type": "uint256"
        }
      ],
      "name": "proposalEta",
      "outputs": [
        {
          "internalType": "uint256",
          "name": "",
          "type": "uint256"
        }
      ],
      "stateMutability": "view",
      "type": "function"
    },
    {
      "inputs": [
        {
          "internalType": "uint256",
          "name": "proposalId",
          "type": "uint256"
        }
      ],
      "name": "proposalProposer",
      "outputs": [
        {
          "internalType": "address",
          "name": "",
          "type": "address"
        }
      ],
      "stateMutability": "view",
      "type": "function"
    },
    {
      "inputs": [
        {
          "internalType": "uint256",
          "name": "proposalId",
          "type": "uint256"
        }
      ],
      "name": "proposalSnapshot",
      "outputs": [
        {
          "internalType": "uint256",
          "name": "",
          "type": "uint256"
        }
      ],
      "stateMutability": "view",
      "type": "function"
    },
    {
      "inputs": [],
      "name": "proposalThreshold",
      "outputs": [
        {
          "internalType": "uint256",
          "name": "",
          "type": "uint256"
        }
      ],
      "stateMutability": "view",
      "type": "function"
    },
    {
      "inputs": [
        {
          "internalType": "uint256",
          "name": "proposalId",
          "type": "uint256"
        }
      ],
      "name": "proposalVotes",
      "outputs": [
        {
          "internalType": "uint256",
          "name": "againstVotes",
          "type": "uint256"
        },
        {
          "internalType": "uint256",
          "name": "forVotes",
          "type": "uint256"
        },
        {
          "internalType": "uint256",
          "name": "abstainVotes",
          "type": "uint256"
        }
      ],
      "stateMutability": "view",
      "type": "function"
    },
    {
      "inputs": [
        {
          "internalType": "address[]",
          "name": "targets",
          "type": "address[]"
        },
        {
          "internalType": "uint256[]",
          "name": "values",
          "type": "uint256[]"
        },
        {
          "internalType": "bytes[]",
          "name": "calldatas",
          "type": "bytes[]"
        },
        {
          "internalType": "string",
          "name": "description",
          "type": "string"
        }
      ],
      "name": "propose",
      "outputs": [
        {
          "internalType": "uint256",
          "name": "",
          "type": "uint256"
        }
      ],
      "stateMutability": "nonpayable",
      "type": "function"
    },
    {
      "inputs": [
        {
          "internalType": "address[]",
          "name": "targets",
          "type": "address[]"
        },
        {
          "internalType": "uint256[]",
          "name": "values",
          "type": "uint256[]"
        },
        {
          "internalType": "bytes[]",
          "name": "calldatas",
          "type": "bytes[]"
        },
        {
          "internalType": "bytes32",
          "name": "descriptionHash",
          "type": "bytes32"
        }
      ],
      "name": "queue",
      "outputs": [
        {
          "internalType": "uint256",
          "name": "",
          "type": "uint256"
        }
      ],
      "stateMutability": "nonpayable",
      "type": "function"
    },
    {
      "inputs": [
        {
          "internalType": "uint256",
          "name": "blockNumber",
          "type": "uint256"
        }
      ],
      "name": "quorum",
      "outputs": [
        {
          "internalType": "uint256",
          "name": "",
          "type": "uint256"
        }
      ],
      "stateMutability": "view",
      "type": "function"
    },
    {
      "inputs": [],
      "name": "quorumDenominator",
      "outputs": [
        {
          "internalType": "uint256",
          "name": "",
          "type": "uint256"
        }
      ],
      "stateMutability": "view",
      "type": "function"
    },
    {
      "inputs": [
        {
          "internalType": "uint256",
          "name": "timepoint",
          "type": "uint256"
        }
      ],
      "name": "quorumNumerator",
      "outputs": [
        {
          "internalType": "uint256",
          "name": "",
          "type": "uint256"
        }
      ],
      "stateMutability": "view",
      "type": "function"
    },
    {
      "inputs": [],
      "name": "quorumNumerator",
      "outputs": [
        {
          "internalType": "uint256",
          "name": "",
          "type": "uint256"
        }
      ],
      "stateMutability": "view",
      "type": "function"
    },
    {
      "inputs": [
        {
          "internalType": "address",
          "name": "target",
          "type": "address"
        },
        {
          "internalType": "uint256",
          "name": "value",
          "type": "uint256"
        },
        {
          "internalType": "bytes",
          "name": "data",
          "type": "bytes"
        }
      ],
      "name": "relay",
      "outputs": [],
      "stateMutability": "payable",
      "type": "function"
    },
    {
      "inputs": [
        {
          "internalType": "uint256",
          "name": "newProposalThreshold",
          "type": "uint256"
        }
      ],
      "name": "setProposalThreshold",
      "outputs": [],
      "stateMutability": "nonpayable",
      "type": "function"
    },
    {
      "inputs": [
        {
          "internalType": "uint256",
          "name": "newVotingDelay",
          "type": "uint256"
        }
      ],
      "name": "setVotingDelay",
      "outputs": [],
      "stateMutability": "nonpayable",
      "type": "function"
    },
    {
      "inputs": [
        {
          "internalType": "uint256",
          "name": "newVotingPeriod",
          "type": "uint256"
        }
      ],
      "name": "setVotingPeriod",
      "outputs": [],
      "stateMutability": "nonpayable",
      "type": "function"
    },
    {
      "inputs": [
        {
          "internalType": "uint256",
          "name": "proposalId",
          "type": "uint256"
        }
      ],
      "name": "state",
      "outputs": [
        {
          "internalType": "enum IGovernor.ProposalState",
          "name": "",
          "type": "uint8"
        }
      ],
      "stateMutability": "view",
      "type": "function"
    },
    {
      "inputs": [
        {
          "internalType": "bytes4",
          "name": "interfaceId",
          "type": "bytes4"
        }
      ],
      "name": "supportsInterface",
      "outputs": [
        {
          "internalType": "bool",
          "name": "",
          "type": "bool"
        }
      ],
      "stateMutability": "view",
      "type": "function"
    },
    {
      "inputs": [],
      "name": "timelock",
      "outputs": [
        {
          "internalType": "address",
          "name": "",
          "type": "address"
        }
      ],
      "stateMutability": "view",
      "type": "function"
    },
    {
      "inputs": [],
      "name": "token",
      "outputs": [
        {
          "internalType": "contract IERC5805",
          "name": "",
          "type": "address"
        }
      ],
      "stateMutability": "view",
      "type": "function"
    },
    {
      "inputs": [
        {
          "internalType": "uint256",
          "name": "newQuorumNumerator",
          "type": "uint256"
        }
      ],
      "name": "updateQuorumNumerator",
      "outputs": [],
      "stateMutability": "nonpayable",
      "type": "function"
    },
    {
      "inputs": [
        {
          "internalType": "contract TimelockController",
          "name": "newTimelock",
          "type": "address"
        }
      ],
      "name": "updateTimelock",
      "outputs": [],
      "stateMutability": "nonpayable",
      "type": "function"
    },
    {
      "inputs": [],
      "name": "version",
      "outputs": [
        {
          "internalType": "string",
          "name": "",
          "type": "string"
        }
      ],
      "stateMutability": "view",
      "type": "function"
    },
    {
      "inputs": [],
      "name": "vireoX",
      "outputs": [
        {
          "internalType": "contract VireoX",
          "name": "",
          "type": "address"
        }
      ],
      "stateMutability": "view",
      "type": "function"
    },
    {
      "inputs": [],
      "name": "votingDelay",
      "outputs": [
        {
          "internalType": "uint256",
          "name": "",
          "type": "uint256"
        }
      ],
      "stateMutability": "view",
      "type": "function"
    },
    {
      "inputs": [],
      "name": "votingPeriod",
      "outputs": [
        {
          "internalType": "uint256",
          "name": "",
          "type": "uint256"
        }
      ],
      "stateMutability": "view",
      "type": "function"
    },
    {
      "stateMutability": "payable",
      "type": "receive"
    }
  ],
  "bytecode": "0x6101806040523480156200001257600080fd5b50604051620097c9380380620097c9833981810160405281019062000038919062000ec0565b81600484611c2061c4e060006040518060400160405280600881526020017f566972656f44414f000000000000000000000000000000000000000000000000815250806200008b6200022860201b60201c565b620000a16000836200026560201b90919060201c565b6101208181525050620000bf6001826200026560201b90919060201c565b6101408181525050818051906020012060e08181525050808051906020012061010081815250504660a08181525050620000fe620002bd60201b60201c565b608081815250503073ffffffffffffffffffffffffffffffffffffffff1660c08173ffffffffffffffffffffffffffffffffffffffff1681525050505080600290816200014c919062001196565b50506200015f836200031a60201b60201c565b62000170826200036160201b60201c565b6200018181620003ee60201b60201c565b5050508073ffffffffffffffffffffffffffffffffffffffff166101608173ffffffffffffffffffffffffffffffffffffffff168152505050620001cb816200043560201b60201c565b50620001dd816200064360201b60201c565b5080600e60006101000a81548173ffffffffffffffffffffffffffffffffffffffff021916908373ffffffffffffffffffffffffffffffffffffffff16021790555050505062001935565b60606040518060400160405280600181526020017f3100000000000000000000000000000000000000000000000000000000000000815250905090565b60006020835110156200028b576200028383620006e460201b60201c565b9050620002b7565b826200029d836200075160201b60201c565b6000019081620002ae919062001196565b5060ff60001b90505b92915050565b60007f8b73c3c69bb8fe3d512ecc4cf759cc79239f7b179b0ffacaa9a75d522b39400f60e051610100514630604051602001620002ff959493929190620012ba565b60405160208183030381529060405280519060200120905090565b7fc565b045403dc03c2eea82b81a0465edad9e2e7fc4d97e11421c209da93d7a93600654826040516200034f92919062001317565b60405180910390a18060068190555050565b60008111620003a7576040517f08c379a00000000000000000000000000000000000000000000000000000000081526004016200039e90620013cb565b60405180910390fd5b7f7e3f7f0708a84de9203036abaa450dccc85ad5ff52f78c170f3edb55cf5e882860075482604051620003dc92919062001317565b60405180910390a18060078190555050565b7fccb45da8d5717e6c4544694297c4ba5cf151d455c9bb0ed4fc7a38411bc05461600854826040516200042392919062001317565b60405180910390a18060088190555050565b620004456200075b60201b60201c565b8111156200048a576040517f08c379a0000000000000000000000000000000000000000000000000000000008152600401620004819062001489565b60405180910390fd5b60006200049c6200076460201b60201c565b905060008114158015620004b857506000600b60000180549050145b15620005b357600b6000016040518060400160405280600063ffffffff168152602001620004ec84620007b560201b60201c565b7bffffffffffffffffffffffffffffffffffffffffffffffffffffffff168152509080600181540180825580915050600190039060005260206000200160009091909190915060008201518160000160006101000a81548163ffffffff021916908363ffffffff16021790555060208201518160000160046101000a8154817bffffffffffffffffffffffffffffffffffffffffffffffffffffffff02191690837bffffffffffffffffffffffffffffffffffffffffffffffffffffffff16021790555050505b62000602620005df620005cb6200082360201b60201c565b65ffffffffffff16620008b960201b60201c565b620005f084620007b560201b60201c565b600b6200090f60201b9092919060201c565b50507f0553476bf02ef2726e8ce5ced78d63e26e602e4a2257b1f559418e24b463399781836040516200063792919062001317565b60405180910390a15050565b7f08f74ea46ef7894f65eabfb5e6e695de773a000b47c529ab559178069b226401600c60009054906101000a900473ffffffffffffffffffffffffffffffffffffffff168260405162000698929190620014ab565b60405180910390a180600c60006101000a81548173ffffffffffffffffffffffffffffffffffffffff021916908373ffffffffffffffffffffffffffffffffffffffff16021790555050565b600080829050601f815111156200073457826040517f305a27a90000000000000000000000000000000000000000000000000000000081526004016200072b919062001556565b60405180910390fd5b8051816200074290620015ac565b60001c1760001b915050919050565b6000819050919050565b60006064905090565b600080600b6000018054905014620007ac5762000788600b6200093460201b60201c565b7bffffffffffffffffffffffffffffffffffffffffffffffffffffffff16620007b0565b600a545b905090565b60007bffffffffffffffffffffffffffffffffffffffffffffffffffffffff80168211156200081b576040517f08c379a0000000000000000000000000000000000000000000000000000000008152600401620008129062001692565b60405180910390fd5b819050919050565b60006101605173ffffffffffffffffffffffffffffffffffffffff166391ddadf46040518163ffffffff1660e01b8152600401602060405180830381865afa9250505080156200089357506040513d601f19601f82011682018060405250810190620008909190620016f7565b60015b620008b157620008a943620009aa60201b60201c565b9050620008b6565b809150505b90565b600063ffffffff801682111562000907576040517f08c379a0000000000000000000000000000000000000000000000000000000008152600401620008fe906200179f565b60405180910390fd5b819050919050565b6000806200092885600001858562000a0260201b60201c565b91509150935093915050565b60008082600001805490509050600081146200099f576200096d83600001600183620009619190620017f0565b62000da360201b60201c565b60000160049054906101000a90047bffffffffffffffffffffffffffffffffffffffffffffffffffffffff16620009a2565b60005b915050919050565b600065ffffffffffff8016821115620009fa576040517f08c379a0000000000000000000000000000000000000000000000000000000008152600401620009f190620018a1565b60405180910390fd5b819050919050565b600080600085805490509050600081111562000cb357600062000a3a8760018462000a2e9190620017f0565b62000da360201b60201c565b6040518060400160405290816000820160009054906101000a900463ffffffff1663ffffffff1663ffffffff1681526020016000820160049054906101000a90047bffffffffffffffffffffffffffffffffffffffffffffffffffffffff167bffffffffffffffffffffffffffffffffffffffffffffffffffffffff167bffffffffffffffffffffffffffffffffffffffffffffffffffffffff168152505090508563ffffffff16816000015163ffffffff16111562000b31576040517f08c379a000000000000000000000000000000000000000000000000000000000815260040162000b289062001913565b60405180910390fd5b8563ffffffff16816000015163ffffffff160362000bc1578462000b6a8860018562000b5e9190620017f0565b62000da360201b60201c565b60000160046101000a8154817bffffffffffffffffffffffffffffffffffffffffffffffffffffffff02191690837bffffffffffffffffffffffffffffffffffffffffffffffffffffffff16021790555062000ca1565b8660405180604001604052808863ffffffff168152602001877bffffffffffffffffffffffffffffffffffffffffffffffffffffffff168152509080600181540180825580915050600190039060005260206000200160009091909190915060008201518160000160006101000a81548163ffffffff021916908363ffffffff16021790555060208201518160000160046101000a8154817bffffffffffffffffffffffffffffffffffffffffffffffffffffffff02191690837bffffffffffffffffffffffffffffffffffffffffffffffffffffffff16021790555050505b80602001518593509350505062000d9b565b8560405180604001604052808763ffffffff168152602001867bffffffffffffffffffffffffffffffffffffffffffffffffffffffff168152509080600181540180825580915050600190039060005260206000200160009091909190915060008201518160000160006101000a81548163ffffffff021916908363ffffffff16021790555060208201518160000160046101000a8154817bffffffffffffffffffffffffffffffffffffffffffffffffffffffff02191690837bffffffffffffffffffffffffffffffffffffffffffffffffffffffff160217905550505060008492509250505b935093915050565b60008260005281602060002001905092915050565b600080fd5b600073ffffffffffffffffffffffffffffffffffffffff82169050919050565b600062000dea8262000dbd565b9050919050565b600062000dfe8262000ddd565b9050919050565b62000e108162000df1565b811462000e1c57600080fd5b50565b60008151905062000e308162000e05565b92915050565b600062000e438262000dbd565b9050919050565b600062000e578262000e36565b9050919050565b62000e698162000e4a565b811462000e7557600080fd5b50565b60008151905062000e898162000e5e565b92915050565b62000e9a8162000ddd565b811462000ea657600080fd5b50565b60008151905062000eba8162000e8f565b92915050565b60008060006060848603121562000edc5762000edb62000db8565b5b600062000eec8682870162000e1f565b935050602062000eff8682870162000e78565b925050604062000f128682870162000ea9565b9150509250925092565b600081519050919050565b7f4e487b7100000000000000000000000000000000000000000000000000000000600052604160045260246000fd5b7f4e487b7100000000000000000000000000000000000000000000000000000000600052602260045260246000fd5b6000600282049050600182168062000f9e57607f821691505b60208210810362000fb45762000fb362000f56565b5b50919050565b60008190508160005260206000209050919050565b60006020601f8301049050919050565b600082821b905092915050565b6000600883026200101e7fffffffffffffffffffffffffffffffffffffffffffffffffffffffffffffffff8262000fdf565b6200102a868362000fdf565b95508019841693508086168417925050509392505050565b6000819050919050565b6000819050919050565b600062001077620010716200106b8462001042565b6200104c565b62001042565b9050919050565b6000819050919050565b620010938362001056565b620010ab620010a2826200107e565b84845462000fec565b825550505050565b600090565b620010c2620010b3565b620010cf81848462001088565b505050565b5b81811015620010f757620010eb600082620010b8565b600181019050620010d5565b5050565b601f8211156200114657620011108162000fba565b6200111b8462000fcf565b810160208510156200112b578190505b620011436200113a8562000fcf565b830182620010d4565b50505b505050565b600082821c905092915050565b60006200116b600019846008026200114b565b1980831691505092915050565b600062001186838362001158565b9150826002028217905092915050565b620011a18262000f1c565b67ffffffffffffffff811115620011bd57620011bc62000f27565b5b620011c9825462000f85565b620011d6828285620010fb565b600060209050601f8311600181146200120e5760008415620011f9578287015190505b62001205858262001178565b86555062001275565b601f1984166200121e8662000fba565b60005b82811015620012485784890151825560018201915060208501945060208101905062001221565b8683101562001268578489015162001264601f89168262001158565b8355505b6001600288020188555050505b505050505050565b6000819050919050565b62001292816200127d565b82525050565b620012a38162001042565b82525050565b620012b48162000ddd565b82525050565b600060a082019050620012d1600083018862001287565b620012e0602083018762001287565b620012ef604083018662001287565b620012fe606083018562001298565b6200130d6080830184620012a9565b9695505050505050565b60006040820190506200132e600083018562001298565b6200133d602083018462001298565b9392505050565b600082825260208201905092915050565b7f476f7665726e6f7253657474696e67733a20766f74696e6720706572696f642060008201527f746f6f206c6f7700000000000000000000000000000000000000000000000000602082015250565b6000620013b360278362001344565b9150620013c08262001355565b604082019050919050565b60006020820190508181036000830152620013e681620013a4565b9050919050565b7f476f7665726e6f72566f74657351756f72756d4672616374696f6e3a2071756f60008201527f72756d4e756d657261746f72206f7665722071756f72756d44656e6f6d696e6160208201527f746f720000000000000000000000000000000000000000000000000000000000604082015250565b60006200147160438362001344565b91506200147e82620013ed565b606082019050919050565b60006020820190508181036000830152620014a48162001462565b9050919050565b6000604082019050620014c26000830185620012a9565b620014d16020830184620012a9565b9392505050565b60005b83811015620014f8578082015181840152602081019050620014db565b60008484015250505050565b6000601f19601f8301169050919050565b6000620015228262000f1c565b6200152e818562001344565b935062001540818560208601620014d8565b6200154b8162001504565b840191505092915050565b6000602082019050818103600083015262001572818462001515565b905092915050565b600081519050919050565b6000819050602082019050919050565b6000620015a382516200127d565b80915050919050565b6000620015b9826200157a565b82620015c58462001585565b9050620015d28162001595565b925060208210156200161557620016107fffffffffffffffffffffffffffffffffffffffffffffffffffffffffffffffff8360200360080262000fdf565b831692505b5050919050565b7f53616665436173743a2076616c756520646f65736e27742066697420696e203260008201527f3234206269747300000000000000000000000000000000000000000000000000602082015250565b60006200167a60278362001344565b915062001687826200161c565b604082019050919050565b60006020820190508181036000830152620016ad816200166b565b9050919050565b600065ffffffffffff82169050919050565b620016d181620016b4565b8114620016dd57600080fd5b50565b600081519050620016f181620016c6565b92915050565b60006020828403121562001710576200170f62000db8565b5b60006200172084828501620016e0565b91505092915050565b7f53616665436173743a2076616c756520646f65736e27742066697420696e203360008201527f3220626974730000000000000000000000000000000000000000000000000000602082015250565b60006200178760268362001344565b9150620017948262001729565b604082019050919050565b60006020820190508181036000830152620017ba8162001778565b9050919050565b7f4e487b7100000000000000000000000000000000000000000000000000000000600052601160045260246000fd5b6000620017fd8262001042565b91506200180a8362001042565b9250828203905081811115620018255762001824620017c1565b5b92915050565b7f53616665436173743a2076616c756520646f65736e27742066697420696e203460008201527f3820626974730000000000000000000000000000000000000000000000000000602082015250565b60006200188960268362001344565b915062001896826200182b565b604082019050919050565b60006020820190508181036000830152620018bc816200187a565b9050919050565b7f436865636b706f696e743a2064656372656173696e67206b6579730000000000600082015250565b6000620018fb601b8362001344565b91506200190882620018c3565b602082019050919050565b600060208201905081810360008301526200192e81620018ec565b9050919050565b60805160a05160c05160e05161010051610120516101405161016051617e12620019b76000396000818161164e01528181611d24015281816124d50152818161352c01526137fd01526000611c6501526000611c31015260006149240152600061490301526000613ad001526000613b2601526000613b4f0152617e126000f3fe60806040526004361061028c5760003560e01c806370b0f6601161015a578063c01f9e37116100c1578063ea0217cf1161007a578063ea0217cf14610b62578063eb9019d414610b8b578063ece40cc114610bc8578063f23a6e6114610bf1578063f8ce560a14610c2e578063fc0c546a14610c6b57610308565b8063c01f9e3714610a4b578063c28bc2fa14610a88578063c59057e414610aa4578063d33219b414610ae1578063dd4e2ba514610b0c578063deaaa7cc14610b3757610308565b80639a802a6d116101135780639a802a6d14610915578063a7713a7014610952578063a890c9101461097d578063ab58fb8e146109a6578063b58131b0146109e3578063bc197c8114610a0e57610308565b806370b0f660146107eb5780637b3c71d3146108145780637d5e81e21461085157806384b0196e1461088e57806391ddadf4146108bf57806397c3d334146108ea57610308565b80633932abb1116101fe5780634e49388c116101b75780634e49388c1461069f578063544ffc9c146106ca57806354fd4d501461070957806356781388146107345780635f398a141461077157806360c4247f146107ae57610308565b80633932abb1146105555780633bccf4fd146105805780633e4f49e6146105bd57806343859632146105fa578063452115d6146106375780634bf5d7e91461067457610308565b8063143489d011610250578063143489d014610406578063150b7a0214610443578063160cbed7146104805780632656227d146104bd5780632d63f693146104ed5780632fe3e2611461052a57610308565b806301ffc9a71461030d57806302a251a31461034a578063034201811461037557806306f3f9e6146103b257806306fdde03146103db57610308565b36610308573073ffffffffffffffffffffffffffffffffffffffff166102b0610c96565b73ffffffffffffffffffffffffffffffffffffffff1614610306576040517f08c379a00000000000000000000000000000000000000000000000000000000081526004016102fd9061512d565b60405180910390fd5b005b600080fd5b34801561031957600080fd5b50610334600480360381019061032f91906151b9565b610ca5565b6040516103419190615201565b60405180910390f35b34801561035657600080fd5b5061035f610cb7565b60405161036c9190615235565b60405180910390f35b34801561038157600080fd5b5061039c60048036038101906103979190615491565b610cc6565b6040516103a99190615235565b60405180910390f35b3480156103be57600080fd5b506103d960048036038101906103d4919061556f565b610dab565b005b3480156103e757600080fd5b506103f0610ea2565b6040516103fd919061560a565b60405180910390f35b34801561041257600080fd5b5061042d6004803603810190610428919061556f565b610f34565b60405161043a919061566d565b60405180910390f35b34801561044f57600080fd5b5061046a600480360381019061046591906156b4565b610f74565b6040516104779190615746565b60405180910390f35b34801561048c57600080fd5b506104a760048036038101906104a291906159c8565b610f88565b6040516104b49190615235565b60405180910390f35b6104d760048036038101906104d291906159c8565b611242565b6040516104e49190615235565b60405180910390f35b3480156104f957600080fd5b50610514600480360381019061050f919061556f565b611390565b6040516105219190615235565b60405180910390f35b34801561053657600080fd5b5061053f6113ce565b60405161054c9190615a92565b60405180910390f35b34801561056157600080fd5b5061056a6113f2565b6040516105779190615235565b60405180910390f35b34801561058c57600080fd5b506105a760048036038101906105a29190615aad565b611401565b6040516105b49190615235565b60405180910390f35b3480156105c957600080fd5b506105e460048036038101906105df919061556f565b61148b565b6040516105f19190615b9f565b60405180910390f35b34801561060657600080fd5b50610621600480360381019061061c9190615bba565b61149d565b60405161062e9190615201565b60405180910390f35b34801561064357600080fd5b5061065e600480360381019061065991906159c8565b611508565b60405161066b9190615235565b60405180910390f35b34801561068057600080fd5b5061068961164a565b604051610696919061560a565b60405180910390f35b3480156106ab57600080fd5b506106b4611722565b6040516106c19190615c59565b60405180910390f35b3480156106d657600080fd5b506106f160048036038101906106ec919061556f565b611748565b60405161070093929190615c74565b60405180910390f35b34801561071557600080fd5b5061071e611780565b60405161072b919061560a565b60405180910390f35b34801561074057600080fd5b5061075b60048036038101906107569190615cab565b6117bd565b6040516107689190615235565b60405180910390f35b34801561077d57600080fd5b5061079860048036038101906107939190615ceb565b6117ee565b6040516107a59190615235565b60405180910390f35b3480156107ba57600080fd5b506107d560048036038101906107d0919061556f565b611858565b6040516107e29190615235565b60405180910390f35b3480156107f757600080fd5b50610812600480360381019061080d919061556f565b6119ca565b005b34801561082057600080fd5b5061083b60048036038101906108369190615d8f565b611ac1565b6040516108489190615235565b60405180910390f35b34801561085d57600080fd5b5061087860048036038101906108739190615ea4565b611b29565b6040516108859190615235565b60405180910390f35b34801561089a57600080fd5b506108a3611c1e565b6040516108b69796959493929190616074565b60405180910390f35b3480156108cb57600080fd5b506108d4611d20565b6040516108e19190616119565b60405180910390f35b3480156108f657600080fd5b506108ff611dc6565b60405161090c9190615235565b60405180910390f35b34801561092157600080fd5b5061093c60048036038101906109379190616134565b611dcf565b6040516109499190615235565b60405180910390f35b34801561095e57600080fd5b50610967611de5565b6040516109749190615235565b60405180910390f35b34801561098957600080fd5b506109a4600480360381019061099f91906161f3565b611e2c565b005b3480156109b257600080fd5b506109cd60048036038101906109c8919061556f565b611f23565b6040516109da9190615235565b60405180910390f35b3480156109ef57600080fd5b506109f8611ff0565b604051610a059190615235565b60405180910390f35b348015610a1a57600080fd5b50610a356004803603810190610a309190616220565b611fff565b604051610a429190615746565b60405180910390f35b348015610a5757600080fd5b50610a726004803603810190610a6d919061556f565b612014565b604051610a7f9190615235565b60405180910390f35b610aa26004803603810190610a9d9190616345565b612052565b005b348015610ab057600080fd5b50610acb6004803603810190610ac691906159c8565b6121db565b604051610ad89190615235565b60405180910390f35b348015610aed57600080fd5b50610af6612217565b604051610b03919061566d565b60405180910390f35b348015610b1857600080fd5b50610b21612241565b604051610b2e919061560a565b60405180910390f35b348015610b4357600080fd5b50610b4c61227e565b604051610b599190615a92565b60405180910390f35b348015610b6e57600080fd5b50610b896004803603810190610b84919061556f565b6122a2565b005b348015610b9757600080fd5b50610bb26004803603810190610bad91906163b9565b612399565b604051610bbf9190615235565b60405180910390f35b348015610bd457600080fd5b50610bef6004803603810190610bea919061556f565b6123b5565b005b348015610bfd57600080fd5b50610c186004803603810190610c1391906163f9565b6124ac565b604051610c259190615746565b60405180910390f35b348015610c3a57600080fd5b50610c556004803603810190610c50919061556f565b6124c1565b604051610c629190615235565b60405180910390f35b348015610c7757600080fd5b50610c806124d3565b604051610c8d91906164b1565b60405180910390f35b6000610ca06124f7565b905090565b6000610cb082612521565b9050919050565b6000610cc161259b565b905090565b600080610d49610d417fb3b3f3b703cd84ce352197dcff232b1b5d3cfb2025ce47cf04742d0651f1af888c8c8c8c604051610d029291906164fc565b60405180910390208b80519060200120604051602001610d26959493929190616524565b604051602081830303815290604052805190602001206125a5565b8686866125bf565b9050610d9c8a828b8b8b8080601f016020809104026020016040519081016040528093929190818152602001838380828437600081840152601f19601f820116905080830192505050505050508a6125ea565b91505098975050505050505050565b610db3610c96565b73ffffffffffffffffffffffffffffffffffffffff16610dd1612776565b73ffffffffffffffffffffffffffffffffffffffff1614610e27576040517f08c379a0000000000000000000000000000000000000000000000000000000008152600401610e1e906165c3565b60405180910390fd5b3073ffffffffffffffffffffffffffffffffffffffff16610e46610c96565b73ffffffffffffffffffffffffffffffffffffffff1614610e96576000610e6b61277e565b604051610e799291906164fc565b604051809103902090505b80610e8f600461278b565b03610e8457505b610e9f81612867565b50565b606060028054610eb190616612565b80601f0160208091040260200160405190810160405280929190818152602001828054610edd90616612565b8015610f2a5780601f10610eff57610100808354040283529160200191610f2a565b820191906000526020600020905b815481529060010190602001808311610f0d57829003601f168201915b5050505050905090565b60006003600083815260200190815260200160002060000160089054906101000a900473ffffffffffffffffffffffffffffffffffffffff169050919050565b600063150b7a0260e01b9050949350505050565b600080610f97868686866121db565b905060046007811115610fad57610fac615b28565b5b610fb68261148b565b6007811115610fc857610fc7615b28565b5b14611008576040517f08c379a0000000000000000000000000000000000000000000000000000000008152600401610fff906166b5565b60405180910390fd5b6000600c60009054906101000a900473ffffffffffffffffffffffffffffffffffffffff1673ffffffffffffffffffffffffffffffffffffffff1663f27a0c926040518163ffffffff1660e01b8152600401602060405180830381865afa158015611077573d6000803e3d6000fd5b505050506040513d601f19601f8201168201806040525081019061109b91906166ea565b9050600c60009054906101000a900473ffffffffffffffffffffffffffffffffffffffff1673ffffffffffffffffffffffffffffffffffffffff1663b1c5f4278888886000896040518663ffffffff1660e01b8152600401611101959493929190616934565b602060405180830381865afa15801561111e573d6000803e3d6000fd5b505050506040513d601f19601f8201168201806040525081019061114291906169b1565b600d600084815260200190815260200160002081905550600c60009054906101000a900473ffffffffffffffffffffffffffffffffffffffff1673ffffffffffffffffffffffffffffffffffffffff16638f2a0bb0888888600089876040518763ffffffff1660e01b81526004016111bf969594939291906169de565b600060405180830381600087803b1580156111d957600080fd5b505af11580156111ed573d6000803e3d6000fd5b505050507f9a2e42fd6722813d69113e7d0079d3d940171428df7373df9c7f7617cfda289282824261121f9190616a83565b60405161122d929190616ab7565b60405180910390a18192505050949350505050565b600080611251868686866121db565b9050600061125e8261148b565b90506004600781111561127457611273615b28565b5b81600781111561128757611286615b28565b5b14806112b75750600560078111156112a2576112a1615b28565b5b8160078111156112b5576112b4615b28565b5b145b6112f6576040517f08c379a00000000000000000000000000000000000000000000000000000000081526004016112ed906166b5565b60405180910390fd5b60016003600084815260200190815260200160002060020160006101000a81548160ff0219169083151502179055507f712ae1383f79ac853f8d882153778e0260ef8f03b504e2866e0593e04d2b291f826040516113549190615235565b60405180910390a16113698288888888612a3c565b6113768288888888612b1f565b6113838288888888612b33565b8192505050949350505050565b60006003600083815260200190815260200160002060000160009054906101000a900467ffffffffffffffff1667ffffffffffffffff169050919050565b7fb3b3f3b703cd84ce352197dcff232b1b5d3cfb2025ce47cf04742d0651f1af8881565b60006113fc612b8e565b905090565b60008061146261145a7f150214d74d59b7d1e90c73fc22ef3d991dd0a76b046543d4d80ab92d2a50328f898960405160200161143f93929190616ae0565b604051602081830303815290604052805190602001206125a5565b8686866125bf565b905061147f87828860405180602001604052806000815250612b98565b91505095945050505050565b600061149682612bb8565b9050919050565b60006009600084815260200190815260200160002060030160008373ffffffffffffffffffffffffffffffffffffffff1673ffffffffffffffffffffffffffffffffffffffff16815260200190815260200160002060009054906101000a900460ff16905092915050565b600080611517868686866121db565b90506000600781111561152d5761152c615b28565b5b6115368261148b565b600781111561154857611547615b28565b5b14611588576040517f08c379a000000000000000000000000000000000000000000000000000000000815260040161157f90616b63565b60405180910390fd5b6003600082815260200190815260200160002060000160089054906101000a900473ffffffffffffffffffffffffffffffffffffffff1673ffffffffffffffffffffffffffffffffffffffff166115dd612776565b73ffffffffffffffffffffffffffffffffffffffff1614611633576040517f08c379a000000000000000000000000000000000000000000000000000000000815260040161162a90616bf5565b60405180910390fd5b61163f86868686612d8b565b915050949350505050565b60607f000000000000000000000000000000000000000000000000000000000000000073ffffffffffffffffffffffffffffffffffffffff16634bf5d7e96040518163ffffffff1660e01b8152600401600060405180830381865afa9250505080156116d957506040513d6000823e3d601f19601f820116820180604052508101906116d69190616c85565b60015b61171a576040518060400160405280601d81526020017f6d6f64653d626c6f636b6e756d6265722666726f6d3d64656661756c74000000815250905061171f565b809150505b90565b600e60009054906101000a900473ffffffffffffffffffffffffffffffffffffffff1681565b600080600080600960008681526020019081526020016000209050806000015481600101548260020154935093509350509193909250565b60606040518060400160405280600181526020017f3100000000000000000000000000000000000000000000000000000000000000815250905090565b6000806117c8612776565b90506117e584828560405180602001604052806000815250612b98565b91505092915050565b6000806117f9612776565b905061184c87828888888080601f016020809104026020016040519081016040528093929190818152602001838380828437600081840152601f19601f82011690508083019250505050505050876125ea565b91505095945050505050565b600080600b6000018054905090506000810361187957600a549150506119c5565b6000600b60000160018361188d9190616cce565b8154811061189e5761189d616d02565b5b906000526020600020016040518060400160405290816000820160009054906101000a900463ffffffff1663ffffffff1663ffffffff1681526020016000820160049054906101000a90047bffffffffffffffffffffffffffffffffffffffffffffffffffffffff167bffffffffffffffffffffffffffffffffffffffffffffffffffffffff167bffffffffffffffffffffffffffffffffffffffffffffffffffffffff1681525050905083816000015163ffffffff16116119865780602001517bffffffffffffffffffffffffffffffffffffffffffffffffffffffff16925050506119c5565b6119a261199285612da3565b600b612df690919063ffffffff16565b7bffffffffffffffffffffffffffffffffffffffffffffffffffffffff16925050505b919050565b6119d2610c96565b73ffffffffffffffffffffffffffffffffffffffff166119f0612776565b73ffffffffffffffffffffffffffffffffffffffff1614611a46576040517f08c379a0000000000000000000000000000000000000000000000000000000008152600401611a3d906165c3565b60405180910390fd5b3073ffffffffffffffffffffffffffffffffffffffff16611a65610c96565b73ffffffffffffffffffffffffffffffffffffffff1614611ab5576000611a8a61277e565b604051611a989291906164fc565b604051809103902090505b80611aae600461278b565b03611aa357505b611abe81612eec565b50565b600080611acc612776565b9050611b1e86828787878080601f016020809104026020016040519081016040528093929190818152602001838380828437600081840152601f19601f82011690508083019250505050505050612b98565b915050949350505050565b600080600e60009054906101000a900473ffffffffffffffffffffffffffffffffffffffff1673ffffffffffffffffffffffffffffffffffffffff166370a08231336040518263ffffffff1660e01b8152600401611b87919061566d565b602060405180830381865afa158015611ba4573d6000803e3d6000fd5b505050506040513d601f19601f82011682018060405250810190611bc891906166ea565b11611c08576040517f08c379a0000000000000000000000000000000000000000000000000000000008152600401611bff90616d7d565b60405180910390fd5b611c1485858585612f31565b9050949350505050565b600060608060008060006060611c5e60007f000000000000000000000000000000000000000000000000000000000000000061342390919063ffffffff16565b611c9260017f000000000000000000000000000000000000000000000000000000000000000061342390919063ffffffff16565b46306000801b600067ffffffffffffffff811115611cb357611cb2615330565b5b604051908082528060200260200182016040528015611ce15781602001602082028036833780820191505090505b507f0f00000000000000000000000000000000000000000000000000000000000000959493929190965096509650965096509650965090919293949596565b60007f000000000000000000000000000000000000000000000000000000000000000073ffffffffffffffffffffffffffffffffffffffff166391ddadf46040518163ffffffff1660e01b8152600401602060405180830381865afa925050508015611daa57506040513d601f19601f82011682018060405250810190611da79190616dc9565b60015b611dbe57611db7436134d3565b9050611dc3565b809150505b90565b60006064905090565b6000611ddc848484613528565b90509392505050565b600080600b6000018054905014611e2357611e00600b6135cf565b7bffffffffffffffffffffffffffffffffffffffffffffffffffffffff16611e27565b600a545b905090565b611e34610c96565b73ffffffffffffffffffffffffffffffffffffffff16611e52612776565b73ffffffffffffffffffffffffffffffffffffffff1614611ea8576040517f08c379a0000000000000000000000000000000000000000000000000000000008152600401611e9f906165c3565b60405180910390fd5b3073ffffffffffffffffffffffffffffffffffffffff16611ec7610c96565b73ffffffffffffffffffffffffffffffffffffffff1614611f17576000611eec61277e565b604051611efa9291906164fc565b604051809103902090505b80611f10600461278b565b03611f0557505b611f2081613639565b50565b600080600c60009054906101000a900473ffffffffffffffffffffffffffffffffffffffff1673ffffffffffffffffffffffffffffffffffffffff1663d45c4435600d6000868152602001908152602001600020546040518263ffffffff1660e01b8152600401611f949190615a92565b602060405180830381865afa158015611fb1573d6000803e3d6000fd5b505050506040513d601f19601f82011682018060405250810190611fd591906166ea565b905060018114611fe55780611fe8565b60005b915050919050565b6000611ffa6136d8565b905090565b600063bc197c8160e01b905095945050505050565b60006003600083815260200190815260200160002060010160009054906101000a900467ffffffffffffffff1667ffffffffffffffff169050919050565b61205a610c96565b73ffffffffffffffffffffffffffffffffffffffff16612078612776565b73ffffffffffffffffffffffffffffffffffffffff16146120ce576040517f08c379a00000000000000000000000000000000000000000000000000000000081526004016120c5906165c3565b60405180910390fd5b3073ffffffffffffffffffffffffffffffffffffffff166120ed610c96565b73ffffffffffffffffffffffffffffffffffffffff161461213d57600061211261277e565b6040516121209291906164fc565b604051809103902090505b80612136600461278b565b0361212b57505b6000808573ffffffffffffffffffffffffffffffffffffffff168585856040516121689291906164fc565b60006040518083038185875af1925050503d80600081146121a5576040519150601f19603f3d011682016040523d82523d6000602084013e6121aa565b606091505b50915091506121d28282604051806060016040528060288152602001617db5602891396136e2565b50505050505050565b6000848484846040516020016121f49493929190616df6565b6040516020818303038152906040528051906020012060001c9050949350505050565b6000600c60009054906101000a900473ffffffffffffffffffffffffffffffffffffffff16905090565b60606040518060400160405280602081526020017f737570706f72743d627261766f2671756f72756d3d666f722c6162737461696e815250905090565b7f150214d74d59b7d1e90c73fc22ef3d991dd0a76b046543d4d80ab92d2a50328f81565b6122aa610c96565b73ffffffffffffffffffffffffffffffffffffffff166122c8612776565b73ffffffffffffffffffffffffffffffffffffffff161461231e576040517f08c379a0000000000000000000000000000000000000000000000000000000008152600401612315906165c3565b60405180910390fd5b3073ffffffffffffffffffffffffffffffffffffffff1661233d610c96565b73ffffffffffffffffffffffffffffffffffffffff161461238d57600061236261277e565b6040516123709291906164fc565b604051809103902090505b80612386600461278b565b0361237b57505b61239681613704565b50565b60006123ad83836123a861378c565b613528565b905092915050565b6123bd610c96565b73ffffffffffffffffffffffffffffffffffffffff166123db612776565b73ffffffffffffffffffffffffffffffffffffffff1614612431576040517f08c379a0000000000000000000000000000000000000000000000000000000008152600401612428906165c3565b60405180910390fd5b3073ffffffffffffffffffffffffffffffffffffffff16612450610c96565b73ffffffffffffffffffffffffffffffffffffffff16146124a057600061247561277e565b6040516124839291906164fc565b604051809103902090505b80612499600461278b565b0361248e57505b6124a9816137a3565b50565b600063f23a6e6160e01b905095945050505050565b60006124cc826137e8565b9050919050565b7f000000000000000000000000000000000000000000000000000000000000000081565b6000600c60009054906101000a900473ffffffffffffffffffffffffffffffffffffffff16905090565b60007f6e665ced000000000000000000000000000000000000000000000000000000007bffffffffffffffffffffffffffffffffffffffffffffffffffffffff1916827bffffffffffffffffffffffffffffffffffffffffffffffffffffffff191614806125945750612593826138b0565b5b9050919050565b6000600754905090565b60006125b86125b2613acc565b83613b83565b9050919050565b60008060006125d087878787613bc4565b915091506125dd81613ca6565b8192505050949350505050565b6000806003600088815260200190815260200160002090506001600781111561261657612615615b28565b5b61261f8861148b565b600781111561263157612630615b28565b5b14612671576040517f08c379a000000000000000000000000000000000000000000000000000000000815260040161266890616ec2565b60405180910390fd5b60006126a0878360000160009054906101000a900467ffffffffffffffff1667ffffffffffffffff1686613528565b90506126af8888888488613e0c565b6000845103612711578673ffffffffffffffffffffffffffffffffffffffff167fb8e138887d0aa13bab447e82de9d5c1777041ecd21ca36ba824ff1e6c07ddda4898884896040516127049493929190616ee2565b60405180910390a2612768565b8673ffffffffffffffffffffffffffffffffffffffff167fe2babfbac5889a709b63bb7f598b324e08bc5a4fb9ec647fb3cbc9ec07eb8712898884898960405161275f959493929190616f78565b60405180910390a25b809250505095945050505050565b600033905090565b3660008036915091509091565b600061279682614010565b156127cd576040517f3db2a12a00000000000000000000000000000000000000000000000000000000815260040160405180910390fd5b60008260000160009054906101000a9004600f0b905082600101600082600f0b600f0b815260200190815260200160002054915082600101600082600f0b600f0b815260200190815260200160002060009055600181018360000160006101000a8154816fffffffffffffffffffffffffffffffff0219169083600f0b6fffffffffffffffffffffffffffffffff16021790555050919050565b61286f611dc6565b8111156128b1576040517f08c379a00000000000000000000000000000000000000000000000000000000081526004016128a890617071565b60405180910390fd5b60006128bb611de5565b9050600081141580156128d657506000600b60000180549050145b156129c857600b6000016040518060400160405280600063ffffffff16815260200161290184614045565b7bffffffffffffffffffffffffffffffffffffffffffffffffffffffff168152509080600181540180825580915050600190039060005260206000200160009091909190915060008201518160000160006101000a81548163ffffffff021916908363ffffffff16021790555060208201518160000160046101000a8154817bffffffffffffffffffffffffffffffffffffffffffffffffffffffff02191690837bffffffffffffffffffffffffffffffffffffffffffffffffffffffff16021790555050505b6129fd6129e36129d6611d20565b65ffffffffffff16612da3565b6129ec84614045565b600b6140b09092919063ffffffff16565b50507f0553476bf02ef2726e8ce5ced78d63e26e602e4a2257b1f559418e24b46339978183604051612a30929190616ab7565b60405180910390a15050565b3073ffffffffffffffffffffffffffffffffffffffff16612a5b610c96565b73ffffffffffffffffffffffffffffffffffffffff1614612b185760005b8451811015612b16573073ffffffffffffffffffffffffffffffffffffffff16858281518110612aac57612aab616d02565b5b602002602001015173ffffffffffffffffffffffffffffffffffffffff1603612b0557612b04838281518110612ae557612ae4616d02565b5b60200260200101518051906020012060046140cd90919063ffffffff16565b5b80612b0f90617091565b9050612a79565b505b5050505050565b612b2c8585858585614149565b5050505050565b3073ffffffffffffffffffffffffffffffffffffffff16612b52610c96565b73ffffffffffffffffffffffffffffffffffffffff1614612b8757612b776004614010565b612b8657612b8560046141e7565b5b5b5050505050565b6000600654905090565b6000612bae85858585612ba961378c565b6125ea565b9050949350505050565b600080612bc483614268565b905060046007811115612bda57612bd9615b28565b5b816007811115612bed57612bec615b28565b5b14612bfb5780915050612d86565b6000600d60008581526020019081526020016000205490506000801b8103612c27578192505050612d86565b600c60009054906101000a900473ffffffffffffffffffffffffffffffffffffffff1673ffffffffffffffffffffffffffffffffffffffff16632ab0f529826040518263ffffffff1660e01b8152600401612c829190615a92565b602060405180830381865afa158015612c9f573d6000803e3d6000fd5b505050506040513d601f19601f82011682018060405250810190612cc39190617105565b15612cd357600792505050612d86565b600c60009054906101000a900473ffffffffffffffffffffffffffffffffffffffff1673ffffffffffffffffffffffffffffffffffffffff1663584b153e826040518263ffffffff1660e01b8152600401612d2e9190615a92565b602060405180830381865afa158015612d4b573d6000803e3d6000fd5b505050506040513d601f19601f82011682018060405250810190612d6f9190617105565b15612d7f57600592505050612d86565b6002925050505b919050565b6000612d9985858585614394565b9050949350505050565b600063ffffffff8016821115612dee576040517f08c379a0000000000000000000000000000000000000000000000000000000008152600401612de5906171a4565b60405180910390fd5b819050919050565b600080836000018054905090506000808290506005831115612e78576000612e1d84614486565b84612e289190616cce565b9050612e37876000018261457f565b60000160009054906101000a900463ffffffff1663ffffffff168663ffffffff161015612e6657809150612e76565b600181612e739190616a83565b92505b505b6000612e8987600001878585614594565b905060008114612edd57612eac87600001600183612ea79190616cce565b61457f565b60000160049054906101000a90047bffffffffffffffffffffffffffffffffffffffffffffffffffffffff16612ee0565b60005b94505050505092915050565b7fc565b045403dc03c2eea82b81a0465edad9e2e7fc4d97e11421c209da93d7a9360065482604051612f1f929190616ab7565b60405180910390a18060068190555050565b600080612f3c612776565b9050612f488184614607565b612f87576040517f08c379a0000000000000000000000000000000000000000000000000000000008152600401612f7e90617210565b60405180910390fd5b6000612f91611d20565b65ffffffffffff169050612fa3611ff0565b612fb983600184612fb49190616cce565b612399565b1015612ffa576040517f08c379a0000000000000000000000000000000000000000000000000000000008152600401612ff1906172a2565b60405180910390fd5b600061300f88888888805190602001206121db565b90508651885114613055576040517f08c379a000000000000000000000000000000000000000000000000000000000815260040161304c90617334565b60405180910390fd5b8551885114613099576040517f08c379a000000000000000000000000000000000000000000000000000000000815260040161309090617334565b60405180910390fd5b60008851116130dd576040517f08c379a00000000000000000000000000000000000000000000000000000000081526004016130d4906173a0565b60405180910390fd5b60006003600083815260200190815260200160002060000160009054906101000a900467ffffffffffffffff1667ffffffffffffffff1614613154576040517f08c379a000000000000000000000000000000000000000000000000000000000815260040161314b90617432565b60405180910390fd5b600061315e6113f2565b836131699190616a83565b90506000613175610cb7565b826131809190616a83565b90506040518060e0016040528061319684614759565b67ffffffffffffffff1681526020018673ffffffffffffffffffffffffffffffffffffffff168152602001600060e01b7bffffffffffffffffffffffffffffffffffffffffffffffffffffffff191681526020016131f383614759565b67ffffffffffffffff168152602001600060401b67ffffffffffffffff19168152602001600015158152602001600015158152506003600085815260200190815260200160002060008201518160000160006101000a81548167ffffffffffffffff021916908367ffffffffffffffff16021790555060208201518160000160086101000a81548173ffffffffffffffffffffffffffffffffffffffff021916908373ffffffffffffffffffffffffffffffffffffffff160217905550604082015181600001601c6101000a81548163ffffffff021916908360e01c021790555060608201518160010160006101000a81548167ffffffffffffffff021916908367ffffffffffffffff16021790555060808201518160010160086101000a81548177ffffffffffffffffffffffffffffffffffffffffffffffff021916908360401c021790555060a08201518160020160006101000a81548160ff02191690831515021790555060c08201518160020160016101000a81548160ff0219169083151502179055509050507f7d84a6263ae0d98d3329bd7b46bb4e8d6f98cd35a7adb45c274c8b7fd5ebd5e083868c8c8e5167ffffffffffffffff8111156133be576133bd615330565b5b6040519080825280602002602001820160405280156133f157816020015b60608152602001906001900390816133dc5790505b508d88888f60405161340b9998979695949392919061755e565b60405180910390a18295505050505050949350505050565b606060ff60001b831461344057613439836147b0565b90506134cd565b81805461344c90616612565b80601f016020809104026020016040519081016040528092919081815260200182805461347890616612565b80156134c55780601f1061349a576101008083540402835291602001916134c5565b820191906000526020600020905b8154815290600101906020018083116134a857829003601f168201915b505050505090505b92915050565b600065ffffffffffff8016821115613520576040517f08c379a000000000000000000000000000000000000000000000000000000000815260040161351790617680565b60405180910390fd5b819050919050565b60007f000000000000000000000000000000000000000000000000000000000000000073ffffffffffffffffffffffffffffffffffffffff16633a46b1a885856040518363ffffffff1660e01b81526004016135859291906176a0565b602060405180830381865afa1580156135a2573d6000803e3d6000fd5b505050506040513d601f19601f820116820180604052508101906135c691906166ea565b90509392505050565b600080826000018054905090506000811461362e576135fd836000016001836135f89190616cce565b61457f565b60000160049054906101000a90047bffffffffffffffffffffffffffffffffffffffffffffffffffffffff16613631565b60005b915050919050565b7f08f74ea46ef7894f65eabfb5e6e695de773a000b47c529ab559178069b226401600c60009054906101000a900473ffffffffffffffffffffffffffffffffffffffff168260405161368c9291906176c9565b60405180910390a180600c60006101000a81548173ffffffffffffffffffffffffffffffffffffffff021916908373ffffffffffffffffffffffffffffffffffffffff16021790555050565b6000600854905090565b606083156136f2578290506136fd565b6136fc8383614824565b5b9392505050565b60008111613747576040517f08c379a000000000000000000000000000000000000000000000000000000000815260040161373e90617764565b60405180910390fd5b7f7e3f7f0708a84de9203036abaa450dccc85ad5ff52f78c170f3edb55cf5e88286007548260405161377a929190616ab7565b60405180910390a18060078190555050565b606060405180602001604052806000815250905090565b7fccb45da8d5717e6c4544694297c4ba5cf151d455c9bb0ed4fc7a38411bc05461600854826040516137d6929190616ab7565b60405180910390a18060088190555050565b60006137f2611dc6565b6137fb83611858565b7f000000000000000000000000000000000000000000000000000000000000000073ffffffffffffffffffffffffffffffffffffffff16638e539e8c856040518263ffffffff1660e01b81526004016138549190615235565b602060405180830381865afa158015613871573d6000803e3d6000fd5b505050506040513d601f19601f8201168201806040525081019061389591906166ea565b61389f9190617784565b6138a991906177f5565b9050919050565b60008063143489d060e01b63452115d660e01b1890506000639a802a6d60e01b630342018160e01b635f398a1460e01b18189050600081837fda287a1d000000000000000000000000000000000000000000000000000000007ff2e09f740000000000000000000000000000000000000000000000000000000018181890506000837fda287a1d000000000000000000000000000000000000000000000000000000007ff2e09f740000000000000000000000000000000000000000000000000000000018189050817bffffffffffffffffffffffffffffffffffffffffffffffffffffffff1916867bffffffffffffffffffffffffffffffffffffffffffffffffffffffff19161480613a015750807bffffffffffffffffffffffffffffffffffffffffffffffffffffffff1916867bffffffffffffffffffffffffffffffffffffffffffffffffffffffff1916145b80613a495750837bffffffffffffffffffffffffffffffffffffffffffffffffffffffff1916867bffffffffffffffffffffffffffffffffffffffffffffffffffffffff1916145b80613ab157507f4e2312e0000000000000000000000000000000000000000000000000000000007bffffffffffffffffffffffffffffffffffffffffffffffffffffffff1916867bffffffffffffffffffffffffffffffffffffffffffffffffffffffff1916145b80613ac15750613ac086614874565b5b945050505050919050565b60007f000000000000000000000000000000000000000000000000000000000000000073ffffffffffffffffffffffffffffffffffffffff163073ffffffffffffffffffffffffffffffffffffffff16148015613b4857507f000000000000000000000000000000000000000000000000000000000000000046145b15613b75577f00000000000000000000000000000000000000000000000000000000000000009050613b80565b613b7d6148de565b90505b90565b60006040517f190100000000000000000000000000000000000000000000000000000000000081528360028201528260228201526042812091505092915050565b6000807f7fffffffffffffffffffffffffffffff5d576e7357a4501ddfe92f46681b20a08360001c1115613bff576000600391509150613c9d565b600060018787878760405160008152602001604052604051613c249493929190617826565b6020604051602081039080840390855afa158015613c46573d6000803e3d6000fd5b505050602060405103519050600073ffffffffffffffffffffffffffffffffffffffff168173ffffffffffffffffffffffffffffffffffffffff1603613c9457600060019250925050613c9d565b80600092509250505b94509492505050565b60006004811115613cba57613cb9615b28565b5b816004811115613ccd57613ccc615b28565b5b0315613e095760016004811115613ce757613ce6615b28565b5b816004811115613cfa57613cf9615b28565b5b03613d3a576040517f08c379a0000000000000000000000000000000000000000000000000000000008152600401613d31906178b7565b60405180910390fd5b60026004811115613d4e57613d4d615b28565b5b816004811115613d6157613d60615b28565b5b03613da1576040517f08c379a0000000000000000000000000000000000000000000000000000000008152600401613d9890617923565b60405180910390fd5b60036004811115613db557613db4615b28565b5b816004811115613dc857613dc7615b28565b5b03613e08576040517f08c379a0000000000000000000000000000000000000000000000000000000008152600401613dff906179b5565b60405180910390fd5b5b50565b60006009600087815260200190815260200160002090508060030160008673ffffffffffffffffffffffffffffffffffffffff1673ffffffffffffffffffffffffffffffffffffffff16815260200190815260200160002060009054906101000a900460ff1615613eb2576040517f08c379a0000000000000000000000000000000000000000000000000000000008152600401613ea990617a47565b60405180910390fd5b60018160030160008773ffffffffffffffffffffffffffffffffffffffff1673ffffffffffffffffffffffffffffffffffffffff16815260200190815260200160002060006101000a81548160ff02191690831515021790555060006002811115613f2057613f1f615b28565b5b60ff168460ff1603613f4c5782816000016000828254613f409190616a83565b92505081905550614008565b60016002811115613f6057613f5f615b28565b5b60ff168460ff1603613f8c5782816001016000828254613f809190616a83565b92505081905550614007565b600280811115613f9f57613f9e615b28565b5b60ff168460ff1603613fcb5782816002016000828254613fbf9190616a83565b92505081905550614006565b6040517f08c379a0000000000000000000000000000000000000000000000000000000008152600401613ffd90617ad9565b60405180910390fd5b5b5b505050505050565b60008160000160009054906101000a9004600f0b600f0b8260000160109054906101000a9004600f0b600f0b13159050919050565b60007bffffffffffffffffffffffffffffffffffffffffffffffffffffffff80168211156140a8576040517f08c379a000000000000000000000000000000000000000000000000000000000815260040161409f90617b6b565b60405180910390fd5b819050919050565b6000806140c1856000018585614974565b91509150935093915050565b60008260000160109054906101000a9004600f0b90508183600101600083600f0b600f0b815260200190815260200160002081905550600181018360000160106101000a8154816fffffffffffffffffffffffffffffffff0219169083600f0b6fffffffffffffffffffffffffffffffff160217905550505050565b600c60009054906101000a900473ffffffffffffffffffffffffffffffffffffffff1673ffffffffffffffffffffffffffffffffffffffff1663e38335e5348686866000876040518763ffffffff1660e01b81526004016141ae959493929190616934565b6000604051808303818588803b1580156141c757600080fd5b505af11580156141db573d6000803e3d6000fd5b50505050505050505050565b60008160000160006101000a8154816fffffffffffffffffffffffffffffffff0219169083600f0b6fffffffffffffffffffffffffffffffff16021790555060008160000160106101000a8154816fffffffffffffffffffffffffffffffff0219169083600f0b6fffffffffffffffffffffffffffffffff16021790555050565b6000806003600084815260200190815260200160002090508060020160009054906101000a900460ff16156142a157600791505061438f565b8060020160019054906101000a900460ff16156142c257600291505061438f565b60006142cd84611390565b905060008103614312576040517f08c379a000000000000000000000000000000000000000000000000000000000815260040161430990617bd7565b60405180910390fd5b600061431c611d20565b65ffffffffffff169050808210614339576000935050505061438f565b600061434486612014565b905081811061435a57600194505050505061438f565b61436386614cfa565b8015614374575061437386614d41565b5b1561438657600494505050505061438f565b60039450505050505b919050565b6000806143a386868686614d6c565b90506000801b600d6000838152602001908152602001600020541461447a57600c60009054906101000a900473ffffffffffffffffffffffffffffffffffffffff1673ffffffffffffffffffffffffffffffffffffffff1663c4d252f5600d6000848152602001908152602001600020546040518263ffffffff1660e01b81526004016144309190615a92565b600060405180830381600087803b15801561444a57600080fd5b505af115801561445e573d6000803e3d6000fd5b50505050600d6000828152602001908152602001600020600090555b80915050949350505050565b6000808203614498576000905061457a565b600060016144a584614ec6565b901c6001901b905060018184816144bf576144be6177c6565b5b048201901c905060018184816144d8576144d76177c6565b5b048201901c905060018184816144f1576144f06177c6565b5b048201901c9050600181848161450a576145096177c6565b5b048201901c90506001818481614523576145226177c6565b5b048201901c9050600181848161453c5761453b6177c6565b5b048201901c90506001818481614555576145546177c6565b5b048201901c9050614576818285816145705761456f6177c6565b5b04614fa7565b9150505b919050565b60008260005281602060002001905092915050565b60005b818310156145fc5760006145ab8484614fc0565b90508463ffffffff166145be878361457f565b60000160009054906101000a900463ffffffff1663ffffffff1611156145e6578092506145f6565b6001816145f39190616a83565b93505b50614597565b819050949350505050565b600080825190506034811015614621576001915050614753565b60006014820384015190507f2370726f706f7365723d3078000000000000000000000000000000000000000073ffffffffffffffffffffffffffffffffffffffff19168173ffffffffffffffffffffffffffffffffffffffff19161461468c57600192505050614753565b60008060288461469c9190616cce565b90505b8381101561471d576000806146d08884815181106146c0576146bf616d02565b5b602001015160f81c60f81b614fe6565b91509150816146e85760019650505050505050614753565b8060ff1660048573ffffffffffffffffffffffffffffffffffffffff16901b17935050508061471690617091565b905061469f565b508573ffffffffffffffffffffffffffffffffffffffff168173ffffffffffffffffffffffffffffffffffffffff161493505050505b92915050565b600067ffffffffffffffff80168211156147a8576040517f08c379a000000000000000000000000000000000000000000000000000000000815260040161479f90617c69565b60405180910390fd5b819050919050565b606060006147bd83615080565b90506000602067ffffffffffffffff8111156147dc576147db615330565b5b6040519080825280601f01601f19166020018201604052801561480e5781602001600182028036833780820191505090505b5090508181528360208201528092505050919050565b6000825111156148375781518083602001fd5b806040517f08c379a000000000000000000000000000000000000000000000000000000000815260040161486b919061560a565b60405180910390fd5b60007f01ffc9a7000000000000000000000000000000000000000000000000000000007bffffffffffffffffffffffffffffffffffffffffffffffffffffffff1916827bffffffffffffffffffffffffffffffffffffffffffffffffffffffff1916149050919050565b60007f8b73c3c69bb8fe3d512ecc4cf759cc79239f7b179b0ffacaa9a75d522b39400f7f00000000000000000000000000000000000000000000000000000000000000007f00000000000000000000000000000000000000000000000000000000000000004630604051602001614959959493929190617c89565b60405160208183030381529060405280519060200120905090565b6000806000858054905090506000811115614c0a5760006149a18760018461499c9190616cce565b61457f565b6040518060400160405290816000820160009054906101000a900463ffffffff1663ffffffff1663ffffffff1681526020016000820160049054906101000a90047bffffffffffffffffffffffffffffffffffffffffffffffffffffffff167bffffffffffffffffffffffffffffffffffffffffffffffffffffffff167bffffffffffffffffffffffffffffffffffffffffffffffffffffffff168152505090508563ffffffff16816000015163ffffffff161115614a95576040517f08c379a0000000000000000000000000000000000000000000000000000000008152600401614a8c90617d28565b60405180910390fd5b8563ffffffff16816000015163ffffffff1603614b195784614ac388600185614abe9190616cce565b61457f565b60000160046101000a8154817bffffffffffffffffffffffffffffffffffffffffffffffffffffffff02191690837bffffffffffffffffffffffffffffffffffffffffffffffffffffffff160217905550614bf9565b8660405180604001604052808863ffffffff168152602001877bffffffffffffffffffffffffffffffffffffffffffffffffffffffff168152509080600181540180825580915050600190039060005260206000200160009091909190915060008201518160000160006101000a81548163ffffffff021916908363ffffffff16021790555060208201518160000160046101000a8154817bffffffffffffffffffffffffffffffffffffffffffffffffffffffff02191690837bffffffffffffffffffffffffffffffffffffffffffffffffffffffff16021790555050505b806020015185935093505050614cf2565b8560405180604001604052808763ffffffff168152602001867bffffffffffffffffffffffffffffffffffffffffffffffffffffffff168152509080600181540180825580915050600190039060005260206000200160009091909190915060008201518160000160006101000a81548163ffffffff021916908363ffffffff16021790555060208201518160000160046101000a8154817bffffffffffffffffffffffffffffffffffffffffffffffffffffffff02191690837bffffffffffffffffffffffffffffffffffffffffffffffffffffffff160217905550505060008492509250505b935093915050565b60008060096000848152602001908152602001600020905080600201548160010154614d269190616a83565b614d37614d3285611390565b6124c1565b1115915050919050565b6000806009600084815260200190815260200160002090508060000154816001015411915050919050565b600080614d7b868686866121db565b90506000614d888261148b565b905060026007811115614d9e57614d9d615b28565b5b816007811115614db157614db0615b28565b5b14158015614de4575060066007811115614dce57614dcd615b28565b5b816007811115614de157614de0615b28565b5b14155b8015614e145750600780811115614dfe57614dfd615b28565b5b816007811115614e1157614e10615b28565b5b14155b614e53576040517f08c379a0000000000000000000000000000000000000000000000000000000008152600401614e4a90617d94565b60405180910390fd5b60016003600084815260200190815260200160002060020160016101000a81548160ff0219169083151502179055507f789cf55be980739dad1d0699b93b58e806b51c9d96619bfa8fe0a28abaa7b30c82604051614eb19190615235565b60405180910390a18192505050949350505050565b600080600090506000608084901c1115614ee857608083901c92506080810190505b6000604084901c1115614f0357604083901c92506040810190505b6000602084901c1115614f1e57602083901c92506020810190505b6000601084901c1115614f3957601083901c92506010810190505b6000600884901c1115614f5457600883901c92506008810190505b6000600484901c1115614f6f57600483901c92506004810190505b6000600284901c1115614f8a57600283901c92506002810190505b6000600184901c1115614f9e576001810190505b80915050919050565b6000818310614fb65781614fb8565b825b905092915050565b60006002828418614fd191906177f5565b828416614fde9190616a83565b905092915050565b60008060008360f81c90508060ff16602f1080156150075750603a8160ff16105b1561501c57600160308203925092505061507b565b8060ff166040108015615032575060478160ff16105b1561504757600160378203925092505061507b565b8060ff16606010801561505d575060678160ff16105b1561507257600160578203925092505061507b565b60008092509250505b915091565b60008060ff8360001c169050601f8111156150c7576040517fb3512b0c00000000000000000000000000000000000000000000000000000000815260040160405180910390fd5b80915050919050565b600082825260208201905092915050565b7f476f7665726e6f723a206d7573742073656e6420746f206578656375746f7200600082015250565b6000615117601f836150d0565b9150615122826150e1565b602082019050919050565b600060208201905081810360008301526151468161510a565b9050919050565b6000604051905090565b600080fd5b600080fd5b60007fffffffff0000000000000000000000000000000000000000000000000000000082169050919050565b61519681615161565b81146151a157600080fd5b50565b6000813590506151b38161518d565b92915050565b6000602082840312156151cf576151ce615157565b5b60006151dd848285016151a4565b91505092915050565b60008115159050919050565b6151fb816151e6565b82525050565b600060208201905061521660008301846151f2565b92915050565b6000819050919050565b61522f8161521c565b82525050565b600060208201905061524a6000830184615226565b92915050565b6152598161521c565b811461526457600080fd5b50565b60008135905061527681615250565b92915050565b600060ff82169050919050565b6152928161527c565b811461529d57600080fd5b50565b6000813590506152af81615289565b92915050565b600080fd5b600080fd5b600080fd5b60008083601f8401126152da576152d96152b5565b5b8235905067ffffffffffffffff8111156152f7576152f66152ba565b5b602083019150836001820283011115615313576153126152bf565b5b9250929050565b600080fd5b6000601f19601f8301169050919050565b7f4e487b7100000000000000000000000000000000000000000000000000000000600052604160045260246000fd5b6153688261531f565b810181811067ffffffffffffffff8211171561538757615386615330565b5b80604052505050565b600061539a61514d565b90506153a6828261535f565b919050565b600067ffffffffffffffff8211156153c6576153c5615330565b5b6153cf8261531f565b9050602081019050919050565b82818337600083830152505050565b60006153fe6153f9846153ab565b615390565b90508281526020810184848401111561541a5761541961531a565b5b6154258482856153dc565b509392505050565b600082601f830112615442576154416152b5565b5b81356154528482602086016153eb565b91505092915050565b6000819050919050565b61546e8161545b565b811461547957600080fd5b50565b60008135905061548b81615465565b92915050565b60008060008060008060008060e0898b0312156154b1576154b0615157565b5b60006154bf8b828c01615267565b98505060206154d08b828c016152a0565b975050604089013567ffffffffffffffff8111156154f1576154f061515c565b5b6154fd8b828c016152c4565b9650965050606089013567ffffffffffffffff8111156155205761551f61515c565b5b61552c8b828c0161542d565b945050608061553d8b828c016152a0565b93505060a061554e8b828c0161547c565b92505060c061555f8b828c0161547c565b9150509295985092959890939650565b60006020828403121561558557615584615157565b5b600061559384828501615267565b91505092915050565b600081519050919050565b60005b838110156155c55780820151818401526020810190506155aa565b60008484015250505050565b60006155dc8261559c565b6155e681856150d0565b93506155f68185602086016155a7565b6155ff8161531f565b840191505092915050565b6000602082019050818103600083015261562481846155d1565b905092915050565b600073ffffffffffffffffffffffffffffffffffffffff82169050919050565b60006156578261562c565b9050919050565b6156678161564c565b82525050565b6000602082019050615682600083018461565e565b92915050565b6156918161564c565b811461569c57600080fd5b50565b6000813590506156ae81615688565b92915050565b600080600080608085870312156156ce576156cd615157565b5b60006156dc8782880161569f565b94505060206156ed8782880161569f565b93505060406156fe87828801615267565b925050606085013567ffffffffffffffff81111561571f5761571e61515c565b5b61572b8782880161542d565b91505092959194509250565b61574081615161565b82525050565b600060208201905061575b6000830184615737565b92915050565b600067ffffffffffffffff82111561577c5761577b615330565b5b602082029050602081019050919050565b60006157a061579b84615761565b615390565b905080838252602082019050602084028301858111156157c3576157c26152bf565b5b835b818110156157ec57806157d8888261569f565b8452602084019350506020810190506157c5565b5050509392505050565b600082601f83011261580b5761580a6152b5565b5b813561581b84826020860161578d565b91505092915050565b600067ffffffffffffffff82111561583f5761583e615330565b5b602082029050602081019050919050565b600061586361585e84615824565b615390565b90508083825260208201905060208402830185811115615886576158856152bf565b5b835b818110156158af578061589b8882615267565b845260208401935050602081019050615888565b5050509392505050565b600082601f8301126158ce576158cd6152b5565b5b81356158de848260208601615850565b91505092915050565b600067ffffffffffffffff82111561590257615901615330565b5b602082029050602081019050919050565b6000615926615921846158e7565b615390565b90508083825260208201905060208402830185811115615949576159486152bf565b5b835b8181101561599057803567ffffffffffffffff81111561596e5761596d6152b5565b5b80860161597b898261542d565b8552602085019450505060208101905061594b565b5050509392505050565b600082601f8301126159af576159ae6152b5565b5b81356159bf848260208601615913565b91505092915050565b600080600080608085870312156159e2576159e1615157565b5b600085013567ffffffffffffffff811115615a00576159ff61515c565b5b615a0c878288016157f6565b945050602085013567ffffffffffffffff811115615a2d57615a2c61515c565b5b615a39878288016158b9565b935050604085013567ffffffffffffffff811115615a5a57615a5961515c565b5b615a668782880161599a565b9250506060615a778782880161547c565b91505092959194509250565b615a8c8161545b565b82525050565b6000602082019050615aa76000830184615a83565b92915050565b600080600080600060a08688031215615ac957615ac8615157565b5b6000615ad788828901615267565b9550506020615ae8888289016152a0565b9450506040615af9888289016152a0565b9350506060615b0a8882890161547c565b9250506080615b1b8882890161547c565b9150509295509295909350565b7f4e487b7100000000000000000000000000000000000000000000000000000000600052602160045260246000fd5b60088110615b6857615b67615b28565b5b50565b6000819050615b7982615b57565b919050565b6000615b8982615b6b565b9050919050565b615b9981615b7e565b82525050565b6000602082019050615bb46000830184615b90565b92915050565b60008060408385031215615bd157615bd0615157565b5b6000615bdf85828601615267565b9250506020615bf08582860161569f565b9150509250929050565b6000819050919050565b6000615c1f615c1a615c158461562c565b615bfa565b61562c565b9050919050565b6000615c3182615c04565b9050919050565b6000615c4382615c26565b9050919050565b615c5381615c38565b82525050565b6000602082019050615c6e6000830184615c4a565b92915050565b6000606082019050615c896000830186615226565b615c966020830185615226565b615ca36040830184615226565b949350505050565b60008060408385031215615cc257615cc1615157565b5b6000615cd085828601615267565b9250506020615ce1858286016152a0565b9150509250929050565b600080600080600060808688031215615d0757615d06615157565b5b6000615d1588828901615267565b9550506020615d26888289016152a0565b945050604086013567ffffffffffffffff811115615d4757615d4661515c565b5b615d53888289016152c4565b9350935050606086013567ffffffffffffffff811115615d7657615d7561515c565b5b615d828882890161542d565b9150509295509295909350565b60008060008060608587031215615da957615da8615157565b5b6000615db787828801615267565b9450506020615dc8878288016152a0565b935050604085013567ffffffffffffffff811115615de957615de861515c565b5b615df5878288016152c4565b925092505092959194509250565b600067ffffffffffffffff821115615e1e57615e1d615330565b5b615e278261531f565b9050602081019050919050565b6000615e47615e4284615e03565b615390565b905082815260208101848484011115615e6357615e6261531a565b5b615e6e8482856153dc565b509392505050565b600082601f830112615e8b57615e8a6152b5565b5b8135615e9b848260208601615e34565b91505092915050565b60008060008060808587031215615ebe57615ebd615157565b5b600085013567ffffffffffffffff811115615edc57615edb61515c565b5b615ee8878288016157f6565b945050602085013567ffffffffffffffff811115615f0957615f0861515c565b5b615f15878288016158b9565b935050604085013567ffffffffffffffff811115615f3657615f3561515c565b5b615f428782880161599a565b925050606085013567ffffffffffffffff811115615f6357615f6261515c565b5b615f6f87828801615e76565b91505092959194509250565b60007fff0000000000000000000000000000000000000000000000000000000000000082169050919050565b615fb081615f7b565b82525050565b600081519050919050565b600082825260208201905092915050565b6000819050602082019050919050565b615feb8161521c565b82525050565b6000615ffd8383615fe2565b60208301905092915050565b6000602082019050919050565b600061602182615fb6565b61602b8185615fc1565b935061603683615fd2565b8060005b8381101561606757815161604e8882615ff1565b975061605983616009565b92505060018101905061603a565b5085935050505092915050565b600060e082019050616089600083018a615fa7565b818103602083015261609b81896155d1565b905081810360408301526160af81886155d1565b90506160be6060830187615226565b6160cb608083018661565e565b6160d860a0830185615a83565b81810360c08301526160ea8184616016565b905098975050505050505050565b600065ffffffffffff82169050919050565b616113816160f8565b82525050565b600060208201905061612e600083018461610a565b92915050565b60008060006060848603121561614d5761614c615157565b5b600061615b8682870161569f565b935050602061616c86828701615267565b925050604084013567ffffffffffffffff81111561618d5761618c61515c565b5b6161998682870161542d565b9150509250925092565b60006161ae8261562c565b9050919050565b60006161c0826161a3565b9050919050565b6161d0816161b5565b81146161db57600080fd5b50565b6000813590506161ed816161c7565b92915050565b60006020828403121561620957616208615157565b5b6000616217848285016161de565b91505092915050565b600080600080600060a0868803121561623c5761623b615157565b5b600061624a8882890161569f565b955050602061625b8882890161569f565b945050604086013567ffffffffffffffff81111561627c5761627b61515c565b5b616288888289016158b9565b935050606086013567ffffffffffffffff8111156162a9576162a861515c565b5b6162b5888289016158b9565b925050608086013567ffffffffffffffff8111156162d6576162d561515c565b5b6162e28882890161542d565b9150509295509295909350565b60008083601f840112616305576163046152b5565b5b8235905067ffffffffffffffff811115616322576163216152ba565b5b60208301915083600182028301111561633e5761633d6152bf565b5b9250929050565b6000806000806060858703121561635f5761635e615157565b5b600061636d8782880161569f565b945050602061637e87828801615267565b935050604085013567ffffffffffffffff81111561639f5761639e61515c565b5b6163ab878288016162ef565b925092505092959194509250565b600080604083850312156163d0576163cf615157565b5b60006163de8582860161569f565b92505060206163ef85828601615267565b9150509250929050565b600080600080600060a0868803121561641557616414615157565b5b60006164238882890161569f565b95505060206164348882890161569f565b945050604061644588828901615267565b935050606061645688828901615267565b925050608086013567ffffffffffffffff8111156164775761647661515c565b5b6164838882890161542d565b9150509295509295909350565b600061649b82615c26565b9050919050565b6164ab81616490565b82525050565b60006020820190506164c660008301846164a2565b92915050565b600081905092915050565b60006164e383856164cc565b93506164f08385846153dc565b82840190509392505050565b60006165098284866164d7565b91508190509392505050565b61651e8161527c565b82525050565b600060a0820190506165396000830188615a83565b6165466020830187615226565b6165536040830186616515565b6165606060830185615a83565b61656d6080830184615a83565b9695505050505050565b7f476f7665726e6f723a206f6e6c79476f7665726e616e63650000000000000000600082015250565b60006165ad6018836150d0565b91506165b882616577565b602082019050919050565b600060208201905081810360008301526165dc816165a0565b9050919050565b7f4e487b7100000000000000000000000000000000000000000000000000000000600052602260045260246000fd5b6000600282049050600182168061662a57607f821691505b60208210810361663d5761663c6165e3565b5b50919050565b7f476f7665726e6f723a2070726f706f73616c206e6f742073756363657373667560008201527f6c00000000000000000000000000000000000000000000000000000000000000602082015250565b600061669f6021836150d0565b91506166aa82616643565b604082019050919050565b600060208201905081810360008301526166ce81616692565b9050919050565b6000815190506166e481615250565b92915050565b600060208284031215616700576166ff615157565b5b600061670e848285016166d5565b91505092915050565b600081519050919050565b600082825260208201905092915050565b6000819050602082019050919050565b61674c8161564c565b82525050565b600061675e8383616743565b60208301905092915050565b6000602082019050919050565b600061678282616717565b61678c8185616722565b935061679783616733565b8060005b838110156167c85781516167af8882616752565b97506167ba8361676a565b92505060018101905061679b565b5085935050505092915050565b600081519050919050565b600082825260208201905092915050565b6000819050602082019050919050565b600081519050919050565b600082825260208201905092915050565b600061682882616801565b616832818561680c565b93506168428185602086016155a7565b61684b8161531f565b840191505092915050565b6000616862838361681d565b905092915050565b6000602082019050919050565b6000616882826167d5565b61688c81856167e0565b93508360208202850161689e856167f1565b8060005b858110156168da57848403895281516168bb8582616856565b94506168c68361686a565b925060208a019950506001810190506168a2565b50829750879550505050505092915050565b6000819050919050565b60008160001b9050919050565b600061691e616919616914846168ec565b6168f6565b61545b565b9050919050565b61692e81616903565b82525050565b600060a082019050818103600083015261694e8188616777565b905081810360208301526169628187616016565b905081810360408301526169768186616877565b90506169856060830185616925565b6169926080830184615a83565b9695505050505050565b6000815190506169ab81615465565b92915050565b6000602082840312156169c7576169c6615157565b5b60006169d58482850161699c565b91505092915050565b600060c08201905081810360008301526169f88189616777565b90508181036020830152616a0c8188616016565b90508181036040830152616a208187616877565b9050616a2f6060830186616925565b616a3c6080830185615a83565b616a4960a0830184615226565b979650505050505050565b7f4e487b7100000000000000000000000000000000000000000000000000000000600052601160045260246000fd5b6000616a8e8261521c565b9150616a998361521c565b9250828201905080821115616ab157616ab0616a54565b5b92915050565b6000604082019050616acc6000830185615226565b616ad96020830184615226565b9392505050565b6000606082019050616af56000830186615a83565b616b026020830185615226565b616b0f6040830184616515565b949350505050565b7f476f7665726e6f723a20746f6f206c61746520746f2063616e63656c00000000600082015250565b6000616b4d601c836150d0565b9150616b5882616b17565b602082019050919050565b60006020820190508181036000830152616b7c81616b40565b9050919050565b7f476f7665726e6f723a206f6e6c792070726f706f7365722063616e2063616e6360008201527f656c000000000000000000000000000000000000000000000000000000000000602082015250565b6000616bdf6022836150d0565b9150616bea82616b83565b604082019050919050565b60006020820190508181036000830152616c0e81616bd2565b9050919050565b6000616c28616c2384615e03565b615390565b905082815260208101848484011115616c4457616c4361531a565b5b616c4f8482856155a7565b509392505050565b600082601f830112616c6c57616c6b6152b5565b5b8151616c7c848260208601616c15565b91505092915050565b600060208284031215616c9b57616c9a615157565b5b600082015167ffffffffffffffff811115616cb957616cb861515c565b5b616cc584828501616c57565b91505092915050565b6000616cd98261521c565b9150616ce48361521c565b9250828203905081811115616cfc57616cfb616a54565b5b92915050565b7f4e487b7100000000000000000000000000000000000000000000000000000000600052603260045260246000fd5b7f566972656f44414f3a206f6e6c792068617320766972656f5800000000000000600082015250565b6000616d676019836150d0565b9150616d7282616d31565b602082019050919050565b60006020820190508181036000830152616d9681616d5a565b9050919050565b616da6816160f8565b8114616db157600080fd5b50565b600081519050616dc381616d9d565b92915050565b600060208284031215616ddf57616dde615157565b5b6000616ded84828501616db4565b91505092915050565b60006080820190508181036000830152616e108187616777565b90508181036020830152616e248186616016565b90508181036040830152616e388185616877565b9050616e476060830184615a83565b95945050505050565b7f476f7665726e6f723a20766f7465206e6f742063757272656e746c792061637460008201527f6976650000000000000000000000000000000000000000000000000000000000602082015250565b6000616eac6023836150d0565b9150616eb782616e50565b604082019050919050565b60006020820190508181036000830152616edb81616e9f565b9050919050565b6000608082019050616ef76000830187615226565b616f046020830186616515565b616f116040830185615226565b8181036060830152616f2381846155d1565b905095945050505050565b600082825260208201905092915050565b6000616f4a82616801565b616f548185616f2e565b9350616f648185602086016155a7565b616f6d8161531f565b840191505092915050565b600060a082019050616f8d6000830188615226565b616f9a6020830187616515565b616fa76040830186615226565b8181036060830152616fb981856155d1565b90508181036080830152616fcd8184616f3f565b90509695505050505050565b7f476f7665726e6f72566f74657351756f72756d4672616374696f6e3a2071756f60008201527f72756d4e756d657261746f72206f7665722071756f72756d44656e6f6d696e6160208201527f746f720000000000000000000000000000000000000000000000000000000000604082015250565b600061705b6043836150d0565b915061706682616fd9565b606082019050919050565b6000602082019050818103600083015261708a8161704e565b9050919050565b600061709c8261521c565b91507fffffffffffffffffffffffffffffffffffffffffffffffffffffffffffffffff82036170ce576170cd616a54565b5b600182019050919050565b6170e2816151e6565b81146170ed57600080fd5b50565b6000815190506170ff816170d9565b92915050565b60006020828403121561711b5761711a615157565b5b6000617129848285016170f0565b91505092915050565b7f53616665436173743a2076616c756520646f65736e27742066697420696e203360008201527f3220626974730000000000000000000000000000000000000000000000000000602082015250565b600061718e6026836150d0565b915061719982617132565b604082019050919050565b600060208201905081810360008301526171bd81617181565b9050919050565b7f476f7665726e6f723a2070726f706f7365722072657374726963746564000000600082015250565b60006171fa601d836150d0565b9150617205826171c4565b602082019050919050565b60006020820190508181036000830152617229816171ed565b9050919050565b7f476f7665726e6f723a2070726f706f73657220766f7465732062656c6f77207060008201527f726f706f73616c207468726573686f6c64000000000000000000000000000000602082015250565b600061728c6031836150d0565b915061729782617230565b604082019050919050565b600060208201905081810360008301526172bb8161727f565b9050919050565b7f476f7665726e6f723a20696e76616c69642070726f706f73616c206c656e677460008201527f6800000000000000000000000000000000000000000000000000000000000000602082015250565b600061731e6021836150d0565b9150617329826172c2565b604082019050919050565b6000602082019050818103600083015261734d81617311565b9050919050565b7f476f7665726e6f723a20656d7074792070726f706f73616c0000000000000000600082015250565b600061738a6018836150d0565b915061739582617354565b602082019050919050565b600060208201905081810360008301526173b98161737d565b9050919050565b7f476f7665726e6f723a2070726f706f73616c20616c726561647920657869737460008201527f7300000000000000000000000000000000000000000000000000000000000000602082015250565b600061741c6021836150d0565b9150617427826173c0565b604082019050919050565b6000602082019050818103600083015261744b8161740f565b9050919050565b600081519050919050565b600082825260208201905092915050565b6000819050602082019050919050565b600082825260208201905092915050565b600061749a8261559c565b6174a4818561747e565b93506174b48185602086016155a7565b6174bd8161531f565b840191505092915050565b60006174d4838361748f565b905092915050565b6000602082019050919050565b60006174f482617452565b6174fe818561745d565b9350836020820285016175108561746e565b8060005b8581101561754c578484038952815161752d85826174c8565b9450617538836174dc565b925060208a01995050600181019050617514565b50829750879550505050505092915050565b600061012082019050617574600083018c615226565b617581602083018b61565e565b8181036040830152617593818a616777565b905081810360608301526175a78189616016565b905081810360808301526175bb81886174e9565b905081810360a08301526175cf8187616877565b90506175de60c0830186615226565b6175eb60e0830185615226565b8181036101008301526175fe81846155d1565b90509a9950505050505050505050565b7f53616665436173743a2076616c756520646f65736e27742066697420696e203460008201527f3820626974730000000000000000000000000000000000000000000000000000602082015250565b600061766a6026836150d0565b91506176758261760e565b604082019050919050565b600060208201905081810360008301526176998161765d565b9050919050565b60006040820190506176b5600083018561565e565b6176c26020830184615226565b9392505050565b60006040820190506176de600083018561565e565b6176eb602083018461565e565b9392505050565b7f476f7665726e6f7253657474696e67733a20766f74696e6720706572696f642060008201527f746f6f206c6f7700000000000000000000000000000000000000000000000000602082015250565b600061774e6027836150d0565b9150617759826176f2565b604082019050919050565b6000602082019050818103600083015261777d81617741565b9050919050565b600061778f8261521c565b915061779a8361521c565b92508282026177a88161521c565b915082820484148315176177bf576177be616a54565b5b5092915050565b7f4e487b7100000000000000000000000000000000000000000000000000000000600052601260045260246000fd5b60006178008261521c565b915061780b8361521c565b92508261781b5761781a6177c6565b5b828204905092915050565b600060808201905061783b6000830187615a83565b6178486020830186616515565b6178556040830185615a83565b6178626060830184615a83565b95945050505050565b7f45434453413a20696e76616c6964207369676e61747572650000000000000000600082015250565b60006178a16018836150d0565b91506178ac8261786b565b602082019050919050565b600060208201905081810360008301526178d081617894565b9050919050565b7f45434453413a20696e76616c6964207369676e6174757265206c656e67746800600082015250565b600061790d601f836150d0565b9150617918826178d7565b602082019050919050565b6000602082019050818103600083015261793c81617900565b9050919050565b7f45434453413a20696e76616c6964207369676e6174757265202773272076616c60008201527f7565000000000000000000000000000000000000000000000000000000000000602082015250565b600061799f6022836150d0565b91506179aa82617943565b604082019050919050565b600060208201905081810360008301526179ce81617992565b9050919050565b7f476f7665726e6f72566f74696e6753696d706c653a20766f746520616c72656160008201527f6479206361737400000000000000000000000000000000000000000000000000602082015250565b6000617a316027836150d0565b9150617a3c826179d5565b604082019050919050565b60006020820190508181036000830152617a6081617a24565b9050919050565b7f476f7665726e6f72566f74696e6753696d706c653a20696e76616c696420766160008201527f6c756520666f7220656e756d20566f7465547970650000000000000000000000602082015250565b6000617ac36035836150d0565b9150617ace82617a67565b604082019050919050565b60006020820190508181036000830152617af281617ab6565b9050919050565b7f53616665436173743a2076616c756520646f65736e27742066697420696e203260008201527f3234206269747300000000000000000000000000000000000000000000000000602082015250565b6000617b556027836150d0565b9150617b6082617af9565b604082019050919050565b60006020820190508181036000830152617b8481617b48565b9050919050565b7f476f7665726e6f723a20756e6b6e6f776e2070726f706f73616c206964000000600082015250565b6000617bc1601d836150d0565b9150617bcc82617b8b565b602082019050919050565b60006020820190508181036000830152617bf081617bb4565b9050919050565b7f53616665436173743a2076616c756520646f65736e27742066697420696e203660008201527f3420626974730000000000000000000000000000000000000000000000000000602082015250565b6000617c536026836150d0565b9150617c5e82617bf7565b604082019050919050565b60006020820190508181036000830152617c8281617c46565b9050919050565b600060a082019050617c9e6000830188615a83565b617cab6020830187615a83565b617cb86040830186615a83565b617cc56060830185615226565b617cd2608083018461565e565b9695505050505050565b7f436865636b706f696e743a2064656372656173696e67206b6579730000000000600082015250565b6000617d12601b836150d0565b9150617d1d82617cdc565b602082019050919050565b60006020820190508181036000830152617d4181617d05565b9050919050565b7f476f7665726e6f723a2070726f706f73616c206e6f7420616374697665000000600082015250565b6000617d7e601d836150d0565b9150617d8982617d48565b602082019050919050565b60006020820190508181036000830152617dad81617d71565b905091905056fe476f7665726e6f723a2072656c617920726576657274656420776974686f7574206d657373616765a26469706673582212207a8fd13382e77dc72335842e463f6add4fdb01646576d26b5d47270e22eccc8564736f6c63430008130033",
  "linkReferences": {},
  "deployedLinkReferences": {}
}