{
  "_format": "hh-sol-artifact-1",
  "contractName": "VireoStaker",
  "sourceName": "contracts/VireoStaker.sol",
  "abi": [
    {
      "inputs": [
        {
          "internalType": "address",
          "name": "_vrETH",
          "type": "address"
        },
        {
          "internalType": "address",
          "name": "_vireoX",
          "type": "address"
        }
      ],
      "stateMutability": "nonpayable",
      "type": "constructor"
    },
    {
      "anonymous": false,
      "inputs": [
        {
          "indexed": true,
          "internalType": "address",
          "name": "previousOwner",
          "type": "address"
        },
        {
          "indexed": true,
          "internalType": "address",
          "name": "newOwner",
          "type": "address"
        }
      ],
      "name": "OwnershipTransferred",
      "type": "event"
    },
    {
      "anonymous": false,
      "inputs": [
        {
          "indexed": true,
          "internalType": "address",
          "name": "user",
          "type": "address"
        },
        {
          "indexed": false,
          "internalType": "uint256",
          "name": "amount",
          "type": "uint256"
        }
      ],
      "name": "Staked",
      "type": "event"
    },
    {
      "anonymous": false,
      "inputs": [
        {
          "indexed": true,
          "internalType": "address",
          "name": "user",
          "type": "address"
        },
        {
          "indexed": false,
          "internalType": "uint256",
          "name": "amount",
          "type": "uint256"
        }
      ],
      "name": "Unstaked",
      "type": "event"
    },
    {
      "inputs": [
        {
          "internalType": "uint256",
          "name": "amount",
          "type": "uint256"
        }
      ],
      "name": "approveStEth",
      "outputs": [],
      "stateMutability": "nonpayable",
      "type": "function"
    },
    {
      "inputs": [
        {
          "internalType": "address",
          "name": "_vrETH",
          "type": "address"
        }
      ],
      "name": "editVireoETH",
      "outputs": [],
      "stateMutability": "nonpayable",
      "type": "function"
    },
    {
      "inputs": [
        {
          "internalType": "address",
          "name": "_vireoX",
          "type": "address"
        }
      ],
      "name": "editVireoX",
      "outputs": [],
      "stateMutability": "nonpayable",
      "type": "function"
    },
    {
      "inputs": [],
      "name": "lido_stETH",
      "outputs": [
        {
          "internalType": "address",
          "name": "",
          "type": "address"
        }
      ],
      "stateMutability": "view",
      "type": "function"
    },
    {
      "inputs": [],
      "name": "owner",
      "outputs": [
        {
          "internalType": "address",
          "name": "",
          "type": "address"
        }
      ],
      "stateMutability": "view",
      "type": "function"
    },
    {
      "inputs": [],
      "name": "renounceOwnership",
      "outputs": [],
      "stateMutability": "nonpayable",
      "type": "function"
    },
    {
      "inputs": [],
      "name": "stakeETH",
      "outputs": [],
      "stateMutability": "payable",
      "type": "function"
    },
    {
      "inputs": [
        {
          "internalType": "address",
          "name": "newOwner",
          "type": "address"
        }
      ],
      "name": "transferOwnership",
      "outputs": [],
      "stateMutability": "nonpayable",
      "type": "function"
    },
    {
      "inputs": [
        {
          "internalType": "uint256",
          "name": "amount",
          "type": "uint256"
        }
      ],
      "name": "unstakeETH",
      "outputs": [],
      "stateMutability": "nonpayable",
      "type": "function"
    },
    {
      "inputs": [
        {
          "internalType": "address",
          "name": "",
          "type": "address"
        }
      ],
      "name": "userStETHBalances",
      "outputs": [
        {
          "internalType": "uint256",
          "name": "",
          "type": "uint256"
        }
      ],
      "stateMutability": "view",
      "type": "function"
    },
    {
      "inputs": [],
      "name": "vireoX",
      "outputs": [
        {
          "internalType": "contract VireoX",
          "name": "",
          "type": "address"
        }
      ],
      "stateMutability": "view",
      "type": "function"
    },
    {
      "inputs": [],
      "name": "vrETH",
      "outputs": [
        {
          "internalType": "contract VireoETH",
          "name": "",
          "type": "address"
        }
      ],
      "stateMutability": "view",
      "type": "function"
    }
  ],
  "bytecode": "0x6080604052731643e812ae58766192cf7d2cf9567df2c37e9b7f600160006101000a81548173ffffffffffffffffffffffffffffffffffffffff021916908373ffffffffffffffffffffffffffffffffffffffff160217905550600160009054906101000a900473ffffffffffffffffffffffffffffffffffffffff16600260006101000a81548173ffffffffffffffffffffffffffffffffffffffff021916908373ffffffffffffffffffffffffffffffffffffffff16021790555060405180606001604052806035815260200162001aac6035913960069081620000e691906200050a565b50348015620000f457600080fd5b5060405162001ae138038062001ae183398181016040528101906200011a91906200065b565b6200013a6200012e620001c460201b60201c565b620001cc60201b60201c565b81600360006101000a81548173ffffffffffffffffffffffffffffffffffffffff021916908373ffffffffffffffffffffffffffffffffffffffff16021790555080600460006101000a81548173ffffffffffffffffffffffffffffffffffffffff021916908373ffffffffffffffffffffffffffffffffffffffff1602179055505050620006a2565b600033905090565b60008060009054906101000a900473ffffffffffffffffffffffffffffffffffffffff169050816000806101000a81548173ffffffffffffffffffffffffffffffffffffffff021916908373ffffffffffffffffffffffffffffffffffffffff1602179055508173ffffffffffffffffffffffffffffffffffffffff168173ffffffffffffffffffffffffffffffffffffffff167f8be0079c531659141344cd1fd0a4f28419497f9722a3daafe3b4186f6b6457e060405160405180910390a35050565b600081519050919050565b7f4e487b7100000000000000000000000000000000000000000000000000000000600052604160045260246000fd5b7f4e487b7100000000000000000000000000000000000000000000000000000000600052602260045260246000fd5b600060028204905060018216806200031257607f821691505b602082108103620003285762000327620002ca565b5b50919050565b60008190508160005260206000209050919050565b60006020601f8301049050919050565b600082821b905092915050565b600060088302620003927fffffffffffffffffffffffffffffffffffffffffffffffffffffffffffffffff8262000353565b6200039e868362000353565b95508019841693508086168417925050509392505050565b6000819050919050565b6000819050919050565b6000620003eb620003e5620003df84620003b6565b620003c0565b620003b6565b9050919050565b6000819050919050565b6200040783620003ca565b6200041f6200041682620003f2565b84845462000360565b825550505050565b600090565b6200043662000427565b62000443818484620003fc565b505050565b5b818110156200046b576200045f6000826200042c565b60018101905062000449565b5050565b601f821115620004ba5762000484816200032e565b6200048f8462000343565b810160208510156200049f578190505b620004b7620004ae8562000343565b83018262000448565b50505b505050565b600082821c905092915050565b6000620004df60001984600802620004bf565b1980831691505092915050565b6000620004fa8383620004cc565b9150826002028217905092915050565b620005158262000290565b67ffffffffffffffff8111156200053157620005306200029b565b5b6200053d8254620002f9565b6200054a8282856200046f565b600060209050601f8311600181146200058257600084156200056d578287015190505b620005798582620004ec565b865550620005e9565b601f19841662000592866200032e565b60005b82811015620005bc5784890151825560018201915060208501945060208101905062000595565b86831015620005dc5784890151620005d8601f891682620004cc565b8355505b6001600288020188555050505b505050505050565b600080fd5b600073ffffffffffffffffffffffffffffffffffffffff82169050919050565b60006200062382620005f6565b9050919050565b620006358162000616565b81146200064157600080fd5b50565b60008151905062000655816200062a565b92915050565b60008060408385031215620006755762000674620005f1565b5b6000620006858582860162000644565b9250506020620006988582860162000644565b9150509250929050565b6113fa80620006b26000396000f3fe6080604052600436106100a75760003560e01c8063715018a611610064578063715018a6146101b85780638da5cb5b146101cf5780639f65ed8a146101fa578063a6884f7914610225578063dceb986d14610250578063f2fde38b1461025a576100a7565b806301012be3146100ac5780630e95c526146100e95780634e49388c146101125780635d3b63081461013d57806362d5340314610166578063659ffde91461018f575b600080fd5b3480156100b857600080fd5b506100d360048036038101906100ce9190610d39565b610283565b6040516100e09190610d7f565b60405180910390f35b3480156100f557600080fd5b50610110600480360381019061010b9190610dc6565b61029b565b005b34801561011e57600080fd5b5061012761033f565b6040516101349190610e52565b60405180910390f35b34801561014957600080fd5b50610164600480360381019061015f9190610d39565b610365565b005b34801561017257600080fd5b5061018d60048036038101906101889190610dc6565b6103b1565b005b34801561019b57600080fd5b506101b660048036038101906101b19190610d39565b61064d565b005b3480156101c457600080fd5b506101cd610699565b005b3480156101db57600080fd5b506101e46106ad565b6040516101f19190610e7c565b60405180910390f35b34801561020657600080fd5b5061020f6106d6565b60405161021c9190610eb8565b60405180910390f35b34801561023157600080fd5b5061023a6106fc565b6040516102479190610e7c565b60405180910390f35b610258610722565b005b34801561026657600080fd5b50610281600480360381019061027c9190610d39565b610b09565b005b60056020528060005260406000206000915090505481565b600260009054906101000a900473ffffffffffffffffffffffffffffffffffffffff1673ffffffffffffffffffffffffffffffffffffffff1663095ea7b330836040518363ffffffff1660e01b81526004016102f8929190610ed3565b6020604051808303816000875af1158015610317573d6000803e3d6000fd5b505050506040513d601f19601f8201168201806040525081019061033b9190610f34565b5050565b600460009054906101000a900473ffffffffffffffffffffffffffffffffffffffff1681565b61036d610b8c565b80600360006101000a81548173ffffffffffffffffffffffffffffffffffffffff021916908373ffffffffffffffffffffffffffffffffffffffff16021790555050565b600081116103f4576040517f08c379a00000000000000000000000000000000000000000000000000000000081526004016103eb90610fbe565b60405180910390fd5b80600560003373ffffffffffffffffffffffffffffffffffffffff1673ffffffffffffffffffffffffffffffffffffffff168152602001908152602001600020541015610476576040517f08c379a000000000000000000000000000000000000000000000000000000000815260040161046d9061102a565b60405180910390fd5b600260009054906101000a900473ffffffffffffffffffffffffffffffffffffffff1673ffffffffffffffffffffffffffffffffffffffff1663a9059cbb33836040518363ffffffff1660e01b81526004016104d3929190610ed3565b6020604051808303816000875af11580156104f2573d6000803e3d6000fd5b505050506040513d601f19601f820116820180604052508101906105169190610f34565b50600360009054906101000a900473ffffffffffffffffffffffffffffffffffffffff1673ffffffffffffffffffffffffffffffffffffffff166379cc679033836040518363ffffffff1660e01b8152600401610574929190610ed3565b600060405180830381600087803b15801561058e57600080fd5b505af11580156105a2573d6000803e3d6000fd5b5050505080600560003373ffffffffffffffffffffffffffffffffffffffff1673ffffffffffffffffffffffffffffffffffffffff16815260200190815260200160002060008282546105f59190611079565b925050819055503373ffffffffffffffffffffffffffffffffffffffff167f0f5bb82176feb1b5e747e28471aa92156a04d9f3ab9f45f28e2d704232b93f75826040516106429190610d7f565b60405180910390a250565b610655610b8c565b80600460006101000a81548173ffffffffffffffffffffffffffffffffffffffff021916908373ffffffffffffffffffffffffffffffffffffffff16021790555050565b6106a1610b8c565b6106ab6000610c0a565b565b60008060009054906101000a900473ffffffffffffffffffffffffffffffffffffffff16905090565b600360009054906101000a900473ffffffffffffffffffffffffffffffffffffffff1681565b600160009054906101000a900473ffffffffffffffffffffffffffffffffffffffff1681565b60003411610765576040517f08c379a000000000000000000000000000000000000000000000000000000000815260040161075c906110f9565b60405180910390fd5b6000600260009054906101000a900473ffffffffffffffffffffffffffffffffffffffff1673ffffffffffffffffffffffffffffffffffffffff1663a1903eab3460006040518363ffffffff1660e01b81526004016107c49190610e7c565b60206040518083038185885af11580156107e2573d6000803e3d6000fd5b50505050506040513d601f19601f82011682018060405250810190610807919061112e565b905080600560003373ffffffffffffffffffffffffffffffffffffffff1673ffffffffffffffffffffffffffffffffffffffff1681526020019081526020016000206000828254610858919061115b565b92505081905550600360009054906101000a900473ffffffffffffffffffffffffffffffffffffffff1673ffffffffffffffffffffffffffffffffffffffff166340c10f1933836040518363ffffffff1660e01b81526004016108bc929190610ed3565b600060405180830381600087803b1580156108d657600080fd5b505af11580156108ea573d6000803e3d6000fd5b505050506000600460009054906101000a900473ffffffffffffffffffffffffffffffffffffffff1673ffffffffffffffffffffffffffffffffffffffff166370a08231336040518263ffffffff1660e01b815260040161094b9190610e7c565b602060405180830381865afa158015610968573d6000803e3d6000fd5b505050506040513d601f19601f8201168201806040525081019061098c919061112e565b03610a2857600460009054906101000a900473ffffffffffffffffffffffffffffffffffffffff1673ffffffffffffffffffffffffffffffffffffffff1663c772745a336006346040518463ffffffff1660e01b81526004016109f193929190611288565b600060405180830381600087803b158015610a0b57600080fd5b505af1158015610a1f573d6000803e3d6000fd5b50505050610ab8565b600460009054906101000a900473ffffffffffffffffffffffffffffffffffffffff1673ffffffffffffffffffffffffffffffffffffffff1663dfb3357c33346040518363ffffffff1660e01b8152600401610a85929190610ed3565b600060405180830381600087803b158015610a9f57600080fd5b505af1158015610ab3573d6000803e3d6000fd5b505050505b3373ffffffffffffffffffffffffffffffffffffffff167f9e71bc8eea02a63969f509818f2dafb9254532904319f9dbda79b67bd34a5f3d82604051610afe9190610d7f565b60405180910390a250565b610b11610b8c565b600073ffffffffffffffffffffffffffffffffffffffff168173ffffffffffffffffffffffffffffffffffffffff1603610b80576040517f08c379a0000000000000000000000000000000000000000000000000000000008152600401610b7790611338565b60405180910390fd5b610b8981610c0a565b50565b610b94610cce565b73ffffffffffffffffffffffffffffffffffffffff16610bb26106ad565b73ffffffffffffffffffffffffffffffffffffffff1614610c08576040517f08c379a0000000000000000000000000000000000000000000000000000000008152600401610bff906113a4565b60405180910390fd5b565b60008060009054906101000a900473ffffffffffffffffffffffffffffffffffffffff169050816000806101000a81548173ffffffffffffffffffffffffffffffffffffffff021916908373ffffffffffffffffffffffffffffffffffffffff1602179055508173ffffffffffffffffffffffffffffffffffffffff168173ffffffffffffffffffffffffffffffffffffffff167f8be0079c531659141344cd1fd0a4f28419497f9722a3daafe3b4186f6b6457e060405160405180910390a35050565b600033905090565b600080fd5b600073ffffffffffffffffffffffffffffffffffffffff82169050919050565b6000610d0682610cdb565b9050919050565b610d1681610cfb565b8114610d2157600080fd5b50565b600081359050610d3381610d0d565b92915050565b600060208284031215610d4f57610d4e610cd6565b5b6000610d5d84828501610d24565b91505092915050565b6000819050919050565b610d7981610d66565b82525050565b6000602082019050610d946000830184610d70565b92915050565b610da381610d66565b8114610dae57600080fd5b50565b600081359050610dc081610d9a565b92915050565b600060208284031215610ddc57610ddb610cd6565b5b6000610dea84828501610db1565b91505092915050565b6000819050919050565b6000610e18610e13610e0e84610cdb565b610df3565b610cdb565b9050919050565b6000610e2a82610dfd565b9050919050565b6000610e3c82610e1f565b9050919050565b610e4c81610e31565b82525050565b6000602082019050610e676000830184610e43565b92915050565b610e7681610cfb565b82525050565b6000602082019050610e916000830184610e6d565b92915050565b6000610ea282610e1f565b9050919050565b610eb281610e97565b82525050565b6000602082019050610ecd6000830184610ea9565b92915050565b6000604082019050610ee86000830185610e6d565b610ef56020830184610d70565b9392505050565b60008115159050919050565b610f1181610efc565b8114610f1c57600080fd5b50565b600081519050610f2e81610f08565b92915050565b600060208284031215610f4a57610f49610cd6565b5b6000610f5884828501610f1f565b91505092915050565b600082825260208201905092915050565b7f616d6f756e74206d7573742062652067726561746572207468616e2030000000600082015250565b6000610fa8601d83610f61565b9150610fb382610f72565b602082019050919050565b60006020820190508181036000830152610fd781610f9b565b9050919050565b7f6e6f7420656e6f75676820737445544800000000000000000000000000000000600082015250565b6000611014601083610f61565b915061101f82610fde565b602082019050919050565b6000602082019050818103600083015261104381611007565b9050919050565b7f4e487b7100000000000000000000000000000000000000000000000000000000600052601160045260246000fd5b600061108482610d66565b915061108f83610d66565b92508282039050818111156110a7576110a661104a565b5b92915050565b7f6d73672e76616c7565206d7573742062652067726561746572207468616e2030600082015250565b60006110e3602083610f61565b91506110ee826110ad565b602082019050919050565b60006020820190508181036000830152611112816110d6565b9050919050565b60008151905061112881610d9a565b92915050565b60006020828403121561114457611143610cd6565b5b600061115284828501611119565b91505092915050565b600061116682610d66565b915061117183610d66565b92508282019050808211156111895761118861104a565b5b92915050565b7f4e487b7100000000000000000000000000000000000000000000000000000000600052602260045260246000fd5b600060028204905060018216806111d657607f821691505b6020821081036111e9576111e861118f565b5b50919050565b60008190508160005260206000209050919050565b60008154611211816111be565b61121b8186610f61565b94506001821660008114611236576001811461124c5761127f565b60ff19831686528115156020028601935061127f565b611255856111ef565b60005b8381101561127757815481890152600182019150602081019050611258565b808801955050505b50505092915050565b600060608201905061129d6000830186610e6d565b81810360208301526112af8185611204565b90506112be6040830184610d70565b949350505050565b7f4f776e61626c653a206e6577206f776e657220697320746865207a65726f206160008201527f6464726573730000000000000000000000000000000000000000000000000000602082015250565b6000611322602683610f61565b915061132d826112c6565b604082019050919050565b6000602082019050818103600083015261135181611315565b9050919050565b7f4f776e61626c653a2063616c6c6572206973206e6f7420746865206f776e6572600082015250565b600061138e602083610f61565b915061139982611358565b602082019050919050565b600060208201905081810360008301526113bd81611381565b905091905056fea264697066735822122046554cdd7e372f37f13ff58199498563d2175345a1c2959da0b3c482bdfb0a2864736f6c63430008130033697066733a2f2f516d6133714c767a58395a7563364337765250616e474448684b4447484d42566e4b7842777a4b6e4a65375a626b",
  "linkReferences": {},
  "deployedLinkReferences": {}
}