{
  "_format": "hh-sol-artifact-1",
  "contractName": "VireoX",
  "sourceName": "contracts/VireoX.sol",
  "abi": [
    {
      "inputs": [],
      "stateMutability": "nonpayable",
      "type": "constructor"
    },
    {
      "inputs": [],
      "name": "InvalidShortString",
      "type": "error"
    },
    {
      "inputs": [
        {
          "internalType": "string",
          "name": "str",
          "type": "string"
        }
      ],
      "name": "StringTooLong",
      "type": "error"
    },
    {
      "anonymous": false,
      "inputs": [
        {
          "indexed": false,
          "internalType": "uint256",
          "name": "level",
          "type": "uint256"
        },
        {
          "indexed": false,
          "internalType": "uint256",
          "name": "standardExp",
          "type": "uint256"
        },
        {
          "indexed": false,
          "internalType": "string",
          "name": "levelName",
          "type": "string"
        },
        {
          "indexed": false,
          "internalType": "string",
          "name": "uri",
          "type": "string"
        }
      ],
      "name": "AddedEvolutionInfo",
      "type": "event"
    },
    {
      "anonymous": false,
      "inputs": [
        {
          "indexed": true,
          "internalType": "address",
          "name": "owner",
          "type": "address"
        },
        {
          "indexed": true,
          "internalType": "address",
          "name": "approved",
          "type": "address"
        },
        {
          "indexed": true,
          "internalType": "uint256",
          "name": "tokenId",
          "type": "uint256"
        }
      ],
      "name": "Approval",
      "type": "event"
    },
    {
      "anonymous": false,
      "inputs": [
        {
          "indexed": true,
          "internalType": "address",
          "name": "owner",
          "type": "address"
        },
        {
          "indexed": true,
          "internalType": "address",
          "name": "operator",
          "type": "address"
        },
        {
          "indexed": false,
          "internalType": "bool",
          "name": "approved",
          "type": "bool"
        }
      ],
      "name": "ApprovalForAll",
      "type": "event"
    },
    {
      "anonymous": false,
      "inputs": [
        {
          "indexed": false,
          "internalType": "uint256",
          "name": "_fromTokenId",
          "type": "uint256"
        },
        {
          "indexed": false,
          "internalType": "uint256",
          "name": "_toTokenId",
          "type": "uint256"
        }
      ],
      "name": "BatchMetadataUpdate",
      "type": "event"
    },
    {
      "anonymous": false,
      "inputs": [
        {
          "indexed": false,
          "internalType": "uint256",
          "name": "ALPHA",
          "type": "uint256"
        },
        {
          "indexed": false,
          "internalType": "uint256",
          "name": "BETA",
          "type": "uint256"
        },
        {
          "indexed": false,
          "internalType": "uint256",
          "name": "K",
          "type": "uint256"
        }
      ],
      "name": "ConstantsChanged",
      "type": "event"
    },
    {
      "anonymous": false,
      "inputs": [
        {
          "indexed": true,
          "internalType": "address",
          "name": "delegator",
          "type": "address"
        },
        {
          "indexed": true,
          "internalType": "address",
          "name": "fromDelegate",
          "type": "address"
        },
        {
          "indexed": true,
          "internalType": "address",
          "name": "toDelegate",
          "type": "address"
        }
      ],
      "name": "DelegateChanged",
      "type": "event"
    },
    {
      "anonymous": false,
      "inputs": [
        {
          "indexed": true,
          "internalType": "address",
          "name": "delegate",
          "type": "address"
        },
        {
          "indexed": false,
          "internalType": "uint256",
          "name": "previousBalance",
          "type": "uint256"
        },
        {
          "indexed": false,
          "internalType": "uint256",
          "name": "newBalance",
          "type": "uint256"
        }
      ],
      "name": "DelegateVotesChanged",
      "type": "event"
    },
    {
      "anonymous": false,
      "inputs": [],
      "name": "EIP712DomainChanged",
      "type": "event"
    },
    {
      "anonymous": false,
      "inputs": [
        {
          "indexed": false,
          "internalType": "uint256",
          "name": "level",
          "type": "uint256"
        },
        {
          "indexed": false,
          "internalType": "uint256",
          "name": "standardExp",
          "type": "uint256"
        },
        {
          "indexed": false,
          "internalType": "string",
          "name": "levelName",
          "type": "string"
        },
        {
          "indexed": false,
          "internalType": "string",
          "name": "uri",
          "type": "string"
        }
      ],
      "name": "EditedEvolutionInfo",
      "type": "event"
    },
    {
      "anonymous": false,
      "inputs": [
        {
          "indexed": false,
          "internalType": "address",
          "name": "user",
          "type": "address"
        },
        {
          "indexed": false,
          "internalType": "uint256",
          "name": "tokenId",
          "type": "uint256"
        }
      ],
      "name": "GeneratedToken",
      "type": "event"
    },
    {
      "anonymous": false,
      "inputs": [
        {
          "indexed": false,
          "internalType": "uint256",
          "name": "_tokenId",
          "type": "uint256"
        }
      ],
      "name": "MetadataUpdate",
      "type": "event"
    },
    {
      "anonymous": false,
      "inputs": [
        {
          "indexed": true,
          "internalType": "address",
          "name": "previousOwner",
          "type": "address"
        },
        {
          "indexed": true,
          "internalType": "address",
          "name": "newOwner",
          "type": "address"
        }
      ],
      "name": "OwnershipTransferred",
      "type": "event"
    },
    {
      "anonymous": false,
      "inputs": [
        {
          "indexed": false,
          "internalType": "address",
          "name": "account",
          "type": "address"
        }
      ],
      "name": "Paused",
      "type": "event"
    },
    {
      "anonymous": false,
      "inputs": [
        {
          "indexed": true,
          "internalType": "address",
          "name": "from",
          "type": "address"
        },
        {
          "indexed": true,
          "internalType": "address",
          "name": "to",
          "type": "address"
        },
        {
          "indexed": true,
          "internalType": "uint256",
          "name": "tokenId",
          "type": "uint256"
        }
      ],
      "name": "Transfer",
      "type": "event"
    },
    {
      "anonymous": false,
      "inputs": [
        {
          "indexed": false,
          "internalType": "address",
          "name": "account",
          "type": "address"
        }
      ],
      "name": "Unpaused",
      "type": "event"
    },
    {
      "inputs": [],
      "name": "ALPHA",
      "outputs": [
        {
          "internalType": "uint256",
          "name": "",
          "type": "uint256"
        }
      ],
      "stateMutability": "view",
      "type": "function"
    },
    {
      "inputs": [],
      "name": "BETA",
      "outputs": [
        {
          "internalType": "uint256",
          "name": "",
          "type": "uint256"
        }
      ],
      "stateMutability": "view",
      "type": "function"
    },
    {
      "inputs": [],
      "name": "CLOCK_MODE",
      "outputs": [
        {
          "internalType": "string",
          "name": "",
          "type": "string"
        }
      ],
      "stateMutability": "view",
      "type": "function"
    },
    {
      "inputs": [],
      "name": "DOMAIN_SEPARATOR",
      "outputs": [
        {
          "internalType": "bytes32",
          "name": "",
          "type": "bytes32"
        }
      ],
      "stateMutability": "view",
      "type": "function"
    },
    {
      "inputs": [],
      "name": "K",
      "outputs": [
        {
          "internalType": "uint256",
          "name": "",
          "type": "uint256"
        }
      ],
      "stateMutability": "view",
      "type": "function"
    },
    {
      "inputs": [
        {
          "internalType": "uint256",
          "name": "standardExp",
          "type": "uint256"
        },
        {
          "internalType": "string",
          "name": "levelName",
          "type": "string"
        },
        {
          "internalType": "string",
          "name": "uri",
          "type": "string"
        }
      ],
      "name": "addEvolutionInfo",
      "outputs": [],
      "stateMutability": "nonpayable",
      "type": "function"
    },
    {
      "inputs": [
        {
          "internalType": "address",
          "name": "to",
          "type": "address"
        },
        {
          "internalType": "uint256",
          "name": "tokenId",
          "type": "uint256"
        }
      ],
      "name": "approve",
      "outputs": [],
      "stateMutability": "nonpayable",
      "type": "function"
    },
    {
      "inputs": [
        {
          "internalType": "address",
          "name": "owner",
          "type": "address"
        }
      ],
      "name": "balanceOf",
      "outputs": [
        {
          "internalType": "uint256",
          "name": "",
          "type": "uint256"
        }
      ],
      "stateMutability": "view",
      "type": "function"
    },
    {
      "inputs": [
        {
          "internalType": "uint256",
          "name": "tokenId",
          "type": "uint256"
        }
      ],
      "name": "burn",
      "outputs": [],
      "stateMutability": "nonpayable",
      "type": "function"
    },
    {
      "inputs": [
        {
          "internalType": "uint256",
          "name": "amount",
          "type": "uint256"
        },
        {
          "internalType": "uint256",
          "name": "timestamp",
          "type": "uint256"
        }
      ],
      "name": "calculateExp",
      "outputs": [
        {
          "internalType": "uint256",
          "name": "",
          "type": "uint256"
        }
      ],
      "stateMutability": "view",
      "type": "function"
    },
    {
      "inputs": [],
      "name": "clock",
      "outputs": [
        {
          "internalType": "uint48",
          "name": "",
          "type": "uint48"
        }
      ],
      "stateMutability": "view",
      "type": "function"
    },
    {
      "inputs": [
        {
          "internalType": "address",
          "name": "delegatee",
          "type": "address"
        }
      ],
      "name": "delegate",
      "outputs": [],
      "stateMutability": "nonpayable",
      "type": "function"
    },
    {
      "inputs": [
        {
          "internalType": "address",
          "name": "delegatee",
          "type": "address"
        },
        {
          "internalType": "uint256",
          "name": "nonce",
          "type": "uint256"
        },
        {
          "internalType": "uint256",
          "name": "expiry",
          "type": "uint256"
        },
        {
          "internalType": "uint8",
          "name": "v",
          "type": "uint8"
        },
        {
          "internalType": "bytes32",
          "name": "r",
          "type": "bytes32"
        },
        {
          "internalType": "bytes32",
          "name": "s",
          "type": "bytes32"
        }
      ],
      "name": "delegateBySig",
      "outputs": [],
      "stateMutability": "nonpayable",
      "type": "function"
    },
    {
      "inputs": [
        {
          "internalType": "address",
          "name": "account",
          "type": "address"
        }
      ],
      "name": "delegates",
      "outputs": [
        {
          "internalType": "address",
          "name": "",
          "type": "address"
        }
      ],
      "stateMutability": "view",
      "type": "function"
    },
    {
      "inputs": [
        {
          "internalType": "uint256",
          "name": "level",
          "type": "uint256"
        },
        {
          "internalType": "uint256",
          "name": "standardExp",
          "type": "uint256"
        },
        {
          "internalType": "string",
          "name": "levelName",
          "type": "string"
        },
        {
          "internalType": "string",
          "name": "uri",
          "type": "string"
        }
      ],
      "name": "editEvolutionInfo",
      "outputs": [],
      "stateMutability": "nonpayable",
      "type": "function"
    },
    {
      "inputs": [],
      "name": "eip712Domain",
      "outputs": [
        {
          "internalType": "bytes1",
          "name": "fields",
          "type": "bytes1"
        },
        {
          "internalType": "string",
          "name": "name",
          "type": "string"
        },
        {
          "internalType": "string",
          "name": "version",
          "type": "string"
        },
        {
          "internalType": "uint256",
          "name": "chainId",
          "type": "uint256"
        },
        {
          "internalType": "address",
          "name": "verifyingContract",
          "type": "address"
        },
        {
          "internalType": "bytes32",
          "name": "salt",
          "type": "bytes32"
        },
        {
          "internalType": "uint256[]",
          "name": "extensions",
          "type": "uint256[]"
        }
      ],
      "stateMutability": "view",
      "type": "function"
    },
    {
      "inputs": [
        {
          "internalType": "uint256",
          "name": "",
          "type": "uint256"
        }
      ],
      "name": "evolutionInfos",
      "outputs": [
        {
          "internalType": "uint256",
          "name": "standardExp",
          "type": "uint256"
        },
        {
          "internalType": "uint256",
          "name": "level",
          "type": "uint256"
        },
        {
          "internalType": "string",
          "name": "levelName",
          "type": "string"
        },
        {
          "internalType": "string",
          "name": "uri",
          "type": "string"
        }
      ],
      "stateMutability": "view",
      "type": "function"
    },
    {
      "inputs": [
        {
          "internalType": "uint256",
          "name": "tokenId",
          "type": "uint256"
        }
      ],
      "name": "getApproved",
      "outputs": [
        {
          "internalType": "address",
          "name": "",
          "type": "address"
        }
      ],
      "stateMutability": "view",
      "type": "function"
    },
    {
      "inputs": [
        {
          "internalType": "uint256",
          "name": "timepoint",
          "type": "uint256"
        }
      ],
      "name": "getPastTotalSupply",
      "outputs": [
        {
          "internalType": "uint256",
          "name": "",
          "type": "uint256"
        }
      ],
      "stateMutability": "view",
      "type": "function"
    },
    {
      "inputs": [
        {
          "internalType": "address",
          "name": "account",
          "type": "address"
        },
        {
          "internalType": "uint256",
          "name": "timepoint",
          "type": "uint256"
        }
      ],
      "name": "getPastVotes",
      "outputs": [
        {
          "internalType": "uint256",
          "name": "",
          "type": "uint256"
        }
      ],
      "stateMutability": "view",
      "type": "function"
    },
    {
      "inputs": [
        {
          "internalType": "address",
          "name": "account",
          "type": "address"
        }
      ],
      "name": "getVotes",
      "outputs": [
        {
          "internalType": "uint256",
          "name": "",
          "type": "uint256"
        }
      ],
      "stateMutability": "view",
      "type": "function"
    },
    {
      "inputs": [
        {
          "internalType": "address",
          "name": "owner",
          "type": "address"
        },
        {
          "internalType": "address",
          "name": "operator",
          "type": "address"
        }
      ],
      "name": "isApprovedForAll",
      "outputs": [
        {
          "internalType": "bool",
          "name": "",
          "type": "bool"
        }
      ],
      "stateMutability": "view",
      "type": "function"
    },
    {
      "inputs": [],
      "name": "name",
      "outputs": [
        {
          "internalType": "string",
          "name": "",
          "type": "string"
        }
      ],
      "stateMutability": "view",
      "type": "function"
    },
    {
      "inputs": [
        {
          "internalType": "address",
          "name": "owner",
          "type": "address"
        }
      ],
      "name": "nonces",
      "outputs": [
        {
          "internalType": "uint256",
          "name": "",
          "type": "uint256"
        }
      ],
      "stateMutability": "view",
      "type": "function"
    },
    {
      "inputs": [],
      "name": "owner",
      "outputs": [
        {
          "internalType": "address",
          "name": "",
          "type": "address"
        }
      ],
      "stateMutability": "view",
      "type": "function"
    },
    {
      "inputs": [
        {
          "internalType": "uint256",
          "name": "tokenId",
          "type": "uint256"
        }
      ],
      "name": "ownerOf",
      "outputs": [
        {
          "internalType": "address",
          "name": "",
          "type": "address"
        }
      ],
      "stateMutability": "view",
      "type": "function"
    },
    {
      "inputs": [],
      "name": "pause",
      "outputs": [],
      "stateMutability": "nonpayable",
      "type": "function"
    },
    {
      "inputs": [],
      "name": "paused",
      "outputs": [
        {
          "internalType": "bool",
          "name": "",
          "type": "bool"
        }
      ],
      "stateMutability": "view",
      "type": "function"
    },
    {
      "inputs": [],
      "name": "renounceOwnership",
      "outputs": [],
      "stateMutability": "nonpayable",
      "type": "function"
    },
    {
      "inputs": [
        {
          "internalType": "address",
          "name": "user",
          "type": "address"
        },
        {
          "internalType": "uint256",
          "name": "stakeAmount",
          "type": "uint256"
        }
      ],
      "name": "requestEditUserInfo",
      "outputs": [],
      "stateMutability": "nonpayable",
      "type": "function"
    },
    {
      "inputs": [
        {
          "internalType": "address",
          "name": "to",
          "type": "address"
        },
        {
          "internalType": "string",
          "name": "uri",
          "type": "string"
        },
        {
          "internalType": "uint256",
          "name": "stakeAmount",
          "type": "uint256"
        }
      ],
      "name": "safeMint",
      "outputs": [],
      "stateMutability": "nonpayable",
      "type": "function"
    },
    {
      "inputs": [
        {
          "internalType": "address",
          "name": "from",
          "type": "address"
        },
        {
          "internalType": "address",
          "name": "to",
          "type": "address"
        },
        {
          "internalType": "uint256",
          "name": "tokenId",
          "type": "uint256"
        }
      ],
      "name": "safeTransferFrom",
      "outputs": [],
      "stateMutability": "nonpayable",
      "type": "function"
    },
    {
      "inputs": [
        {
          "internalType": "address",
          "name": "from",
          "type": "address"
        },
        {
          "internalType": "address",
          "name": "to",
          "type": "address"
        },
        {
          "internalType": "uint256",
          "name": "tokenId",
          "type": "uint256"
        },
        {
          "internalType": "bytes",
          "name": "data",
          "type": "bytes"
        }
      ],
      "name": "safeTransferFrom",
      "outputs": [],
      "stateMutability": "nonpayable",
      "type": "function"
    },
    {
      "inputs": [
        {
          "internalType": "address",
          "name": "operator",
          "type": "address"
        },
        {
          "internalType": "bool",
          "name": "approved",
          "type": "bool"
        }
      ],
      "name": "setApprovalForAll",
      "outputs": [],
      "stateMutability": "nonpayable",
      "type": "function"
    },
    {
      "inputs": [
        {
          "internalType": "uint256",
          "name": "_ALPHA",
          "type": "uint256"
        },
        {
          "internalType": "uint256",
          "name": "_BETA",
          "type": "uint256"
        },
        {
          "internalType": "uint256",
          "name": "_K",
          "type": "uint256"
        }
      ],
      "name": "setConstants",
      "outputs": [],
      "stateMutability": "nonpayable",
      "type": "function"
    },
    {
      "inputs": [
        {
          "internalType": "bytes4",
          "name": "interfaceId",
          "type": "bytes4"
        }
      ],
      "name": "supportsInterface",
      "outputs": [
        {
          "internalType": "bool",
          "name": "",
          "type": "bool"
        }
      ],
      "stateMutability": "view",
      "type": "function"
    },
    {
      "inputs": [],
      "name": "symbol",
      "outputs": [
        {
          "internalType": "string",
          "name": "",
          "type": "string"
        }
      ],
      "stateMutability": "view",
      "type": "function"
    },
    {
      "inputs": [
        {
          "internalType": "uint256",
          "name": "index",
          "type": "uint256"
        }
      ],
      "name": "tokenByIndex",
      "outputs": [
        {
          "internalType": "uint256",
          "name": "",
          "type": "uint256"
        }
      ],
      "stateMutability": "view",
      "type": "function"
    },
    {
      "inputs": [
        {
          "internalType": "address",
          "name": "owner",
          "type": "address"
        },
        {
          "internalType": "uint256",
          "name": "index",
          "type": "uint256"
        }
      ],
      "name": "tokenOfOwnerByIndex",
      "outputs": [
        {
          "internalType": "uint256",
          "name": "",
          "type": "uint256"
        }
      ],
      "stateMutability": "view",
      "type": "function"
    },
    {
      "inputs": [
        {
          "internalType": "uint256",
          "name": "tokenId",
          "type": "uint256"
        }
      ],
      "name": "tokenURI",
      "outputs": [
        {
          "internalType": "string",
          "name": "",
          "type": "string"
        }
      ],
      "stateMutability": "view",
      "type": "function"
    },
    {
      "inputs": [],
      "name": "totalSupply",
      "outputs": [
        {
          "internalType": "uint256",
          "name": "",
          "type": "uint256"
        }
      ],
      "stateMutability": "view",
      "type": "function"
    },
    {
      "inputs": [
        {
          "internalType": "address",
          "name": "from",
          "type": "address"
        },
        {
          "internalType": "address",
          "name": "to",
          "type": "address"
        },
        {
          "internalType": "uint256",
          "name": "tokenId",
          "type": "uint256"
        }
      ],
      "name": "transferFrom",
      "outputs": [],
      "stateMutability": "nonpayable",
      "type": "function"
    },
    {
      "inputs": [
        {
          "internalType": "address",
          "name": "newOwner",
          "type": "address"
        }
      ],
      "name": "transferOwnership",
      "outputs": [],
      "stateMutability": "nonpayable",
      "type": "function"
    },
    {
      "inputs": [],
      "name": "unpause",
      "outputs": [],
      "stateMutability": "nonpayable",
      "type": "function"
    },
    {
      "inputs": [
        {
          "internalType": "address",
          "name": "user",
          "type": "address"
        }
      ],
      "name": "updateUserEvolution",
      "outputs": [
        {
          "internalType": "bool",
          "name": "",
          "type": "bool"
        },
        {
          "internalType": "uint256",
          "name": "",
          "type": "uint256"
        },
        {
          "internalType": "uint256",
          "name": "",
          "type": "uint256"
        }
      ],
      "stateMutability": "nonpayable",
      "type": "function"
    },
    {
      "inputs": [
        {
          "internalType": "address",
          "name": "",
          "type": "address"
        }
      ],
      "name": "userStakeInfo",
      "outputs": [
        {
          "internalType": "address",
          "name": "owner",
          "type": "address"
        },
        {
          "internalType": "uint256",
          "name": "stakeAmount",
          "type": "uint256"
        },
        {
          "internalType": "uint256",
          "name": "lastUpdatedTimestamp",
          "type": "uint256"
        },
        {
          "internalType": "uint256",
          "name": "xlevel",
          "type": "uint256"
        },
        {
          "internalType": "uint256",
          "name": "xexp",
          "type": "uint256"
        },
        {
          "internalType": "uint256",
          "name": "xNumber",
          "type": "uint256"
        }
      ],
      "stateMutability": "view",
      "type": "function"
    }
  ],
  "bytecode": "0x61016060405260016015556002601655600a6017553480156200002157600080fd5b506040518060400160405280600681526020017f566972656f5800000000000000000000000000000000000000000000000000008152506040518060400160405280600181526020017f31000000000000000000000000000000000000000000000000000000000000008152506040518060400160405280600681526020017f566972656f5800000000000000000000000000000000000000000000000000008152506040518060400160405280600681526020017f566972656f58000000000000000000000000000000000000000000000000000081525081600090816200010b91906200092d565b5080600190816200011d91906200092d565b5050506000600b60006101000a81548160ff0219169083151502179055506200015b6200014f620004b960201b60201c565b620004c160201b60201c565b62000171600c836200058760201b90919060201c565b61012081815250506200018f600d826200058760201b90919060201c565b6101408181525050818051906020012060e08181525050808051906020012061010081815250504660a08181525050620001ce620005df60201b60201c565b608081815250503073ffffffffffffffffffffffffffffffffffffffff1660c08173ffffffffffffffffffffffffffffffffffffffff168152505050506014604051806080016040528060648152602001600181526020016040518060400160405280600681526020017f566972656f41000000000000000000000000000000000000000000000000000081525081526020016040518060600160405280603581526020016200883a60359139815250908060018154018082558091505060019003906000526020600020906004020160009091909190915060008201518160000155602082015181600101556040820151816002019081620002d291906200092d565b506060820151816003019081620002ea91906200092d565b505050601460405180608001604052806103e88152602001600281526020016040518060400160405280600681526020017f566972656f42000000000000000000000000000000000000000000000000000081525081526020016040518060600160405280603581526020016200886f60359139815250908060018154018082558091505060019003906000526020600020906004020160009091909190915060008201518160000155602082015181600101556040820151816002019081620003b591906200092d565b506060820151816003019081620003cd91906200092d565b505050601460405180608001604052806127108152602001600381526020016040518060400160405280600681526020017f566972656f430000000000000000000000000000000000000000000000000000815250815260200160405180606001604052806035815260200162008805603591398152509080600181540180825580915050600190039060005260206000209060040201600090919091909150600082015181600001556020820151816001015560408201518160020190816200049891906200092d565b506060820151816003019081620004b091906200092d565b50505062000c37565b600033905090565b6000600b60019054906101000a900473ffffffffffffffffffffffffffffffffffffffff16905081600b60016101000a81548173ffffffffffffffffffffffffffffffffffffffff021916908373ffffffffffffffffffffffffffffffffffffffff1602179055508173ffffffffffffffffffffffffffffffffffffffff168173ffffffffffffffffffffffffffffffffffffffff167f8be0079c531659141344cd1fd0a4f28419497f9722a3daafe3b4186f6b6457e060405160405180910390a35050565b6000602083511015620005ad57620005a5836200063c60201b60201c565b9050620005d9565b82620005bf83620006a960201b60201c565b6000019081620005d091906200092d565b5060ff60001b90505b92915050565b60007f8b73c3c69bb8fe3d512ecc4cf759cc79239f7b179b0ffacaa9a75d522b39400f60e0516101005146306040516020016200062195949392919062000a85565b60405160208183030381529060405280519060200120905090565b600080829050601f815111156200068c57826040517f305a27a900000000000000000000000000000000000000000000000000000000815260040162000683919062000b71565b60405180910390fd5b8051816200069a9062000bc7565b60001c1760001b915050919050565b6000819050919050565b600081519050919050565b7f4e487b7100000000000000000000000000000000000000000000000000000000600052604160045260246000fd5b7f4e487b7100000000000000000000000000000000000000000000000000000000600052602260045260246000fd5b600060028204905060018216806200073557607f821691505b6020821081036200074b576200074a620006ed565b5b50919050565b60008190508160005260206000209050919050565b60006020601f8301049050919050565b600082821b905092915050565b600060088302620007b57fffffffffffffffffffffffffffffffffffffffffffffffffffffffffffffffff8262000776565b620007c1868362000776565b95508019841693508086168417925050509392505050565b6000819050919050565b6000819050919050565b60006200080e620008086200080284620007d9565b620007e3565b620007d9565b9050919050565b6000819050919050565b6200082a83620007ed565b62000842620008398262000815565b84845462000783565b825550505050565b600090565b620008596200084a565b620008668184846200081f565b505050565b5b818110156200088e57620008826000826200084f565b6001810190506200086c565b5050565b601f821115620008dd57620008a78162000751565b620008b28462000766565b81016020851015620008c2578190505b620008da620008d18562000766565b8301826200086b565b50505b505050565b600082821c905092915050565b60006200090260001984600802620008e2565b1980831691505092915050565b60006200091d8383620008ef565b9150826002028217905092915050565b6200093882620006b3565b67ffffffffffffffff811115620009545762000953620006be565b5b6200096082546200071c565b6200096d82828562000892565b600060209050601f831160018114620009a5576000841562000990578287015190505b6200099c85826200090f565b86555062000a0c565b601f198416620009b58662000751565b60005b82811015620009df57848901518255600182019150602085019450602081019050620009b8565b86831015620009ff5784890151620009fb601f891682620008ef565b8355505b6001600288020188555050505b505050505050565b6000819050919050565b62000a298162000a14565b82525050565b62000a3a81620007d9565b82525050565b600073ffffffffffffffffffffffffffffffffffffffff82169050919050565b600062000a6d8262000a40565b9050919050565b62000a7f8162000a60565b82525050565b600060a08201905062000a9c600083018862000a1e565b62000aab602083018762000a1e565b62000aba604083018662000a1e565b62000ac9606083018562000a2f565b62000ad8608083018462000a74565b9695505050505050565b600082825260208201905092915050565b60005b8381101562000b1357808201518184015260208101905062000af6565b60008484015250505050565b6000601f19601f8301169050919050565b600062000b3d82620006b3565b62000b49818562000ae2565b935062000b5b81856020860162000af3565b62000b668162000b1f565b840191505092915050565b6000602082019050818103600083015262000b8d818462000b30565b905092915050565b600081519050919050565b6000819050602082019050919050565b600062000bbe825162000a14565b80915050919050565b600062000bd48262000b95565b8262000be08462000ba0565b905062000bed8162000bb0565b9250602082101562000c305762000c2b7fffffffffffffffffffffffffffffffffffffffffffffffffffffffffffffffff8360200360080262000776565b831692505b5050919050565b60805160a05160c05160e051610100516101205161014051617b7362000c9260003960006114fc015260006114c801526000613507015260006134e6015260006126f80152600061274e015260006127770152617b736000f3fe608060405234801561001057600080fd5b506004361061028a5760003560e01c806370a082311161015c578063a932492f116100ce578063d0ee7a6411610087578063d0ee7a64146107f7578063dfb3357c14610829578063e1f09ddc14610845578063e985e9c514610861578063f2fde38b14610891578063fb60f17f146108ad5761028a565b8063a932492f14610737578063b0bb1c5a14610755578063b88d4fde14610773578063c3cda5201461078f578063c772745a146107ab578063c87b56dd146107c75761028a565b80638da5cb5b116101205780638da5cb5b146106615780638e539e8c1461067f57806391ddadf4146106af57806395d89b41146106cd5780639ab24eb0146106eb578063a22cb4651461071b5761028a565b806370a08231146105c9578063715018a6146105f95780637ecebe00146106035780638456cb591461063357806384b0196e1461063d5761028a565b80633f4ba83a116102005780634f6ccce7116101b95780634f6ccce7146104e3578063587cde1e146105135780635c19a95c146105435780635c975abb1461055f5780635f4d1e9d1461057d5780636352211e146105995761028a565b80633f4ba83a1461043257806342842e0e1461043c57806342966c6814610458578063443f8853146104745780634bf5d7e9146104905780634ead4327146104ae5761028a565b806318160ddd1161025257806318160ddd1461034757806323b872dd146103655780632f745c59146103815780633644e515146103b157806337151077146103cf5780633a46b1a8146104025761028a565b806301ffc9a71461028f57806306fdde03146102bf578063071a7541146102dd578063081812fc146102fb578063095ea7b31461032b575b600080fd5b6102a960048036038101906102a491906152da565b6108dd565b6040516102b69190615322565b60405180910390f35b6102c76108ef565b6040516102d491906153cd565b60405180910390f35b6102e5610981565b6040516102f29190615408565b60405180910390f35b6103156004803603810190610310919061544f565b610987565b60405161032291906154bd565b60405180910390f35b61034560048036038101906103409190615504565b6109cd565b005b61034f610ae4565b60405161035c9190615408565b60405180910390f35b61037f600480360381019061037a9190615544565b610af1565b005b61039b60048036038101906103969190615504565b610b51565b6040516103a89190615408565b60405180910390f35b6103b9610bf6565b6040516103c691906155b0565b60405180910390f35b6103e960048036038101906103e4919061544f565b610c05565b6040516103f994939291906155cb565b60405180910390f35b61041c60048036038101906104179190615504565b610d55565b6040516104299190615408565b60405180910390f35b61043a610e27565b005b61045660048036038101906104519190615544565b610e39565b005b610472600480360381019061046d919061544f565b610e59565b005b61048e60048036038101906104899190615753565b610eb5565b005b6104986110b0565b6040516104a591906153cd565b60405180910390f35b6104c860048036038101906104c391906157f2565b61113e565b6040516104da9695949392919061581f565b60405180910390f35b6104fd60048036038101906104f8919061544f565b61119a565b60405161050a9190615408565b60405180910390f35b61052d600480360381019061052891906157f2565b61120b565b60405161053a91906154bd565b60405180910390f35b61055d600480360381019061055891906157f2565b611274565b005b61056761128e565b6040516105749190615322565b60405180910390f35b61059760048036038101906105929190615880565b6112a5565b005b6105b360048036038101906105ae919061544f565b611302565b6040516105c091906154bd565b60405180910390f35b6105e360048036038101906105de91906157f2565b611388565b6040516105f09190615408565b60405180910390f35b61060161143f565b005b61061d600480360381019061061891906157f2565b611453565b60405161062a9190615408565b60405180910390f35b61063b6114a3565b005b6106456114b5565b60405161065897969594939291906159cc565b60405180910390f35b6106696115b7565b60405161067691906154bd565b60405180910390f35b6106996004803603810190610694919061544f565b6115e1565b6040516106a69190615408565b60405180910390f35b6106b7611675565b6040516106c49190615a71565b60405180910390f35b6106d5611685565b6040516106e291906153cd565b60405180910390f35b610705600480360381019061070091906157f2565b611717565b6040516107129190615408565b60405180910390f35b61073560048036038101906107309190615ab8565b611785565b005b61073f61179b565b60405161074c9190615408565b60405180910390f35b61075d6117a1565b60405161076a9190615408565b60405180910390f35b61078d60048036038101906107889190615b99565b6117a7565b005b6107a960048036038101906107a49190615c81565b611809565b005b6107c560048036038101906107c09190615d0e565b61190d565b005b6107e160048036038101906107dc919061544f565b61199d565b6040516107ee91906153cd565b60405180910390f35b610811600480360381019061080c91906157f2565b6119af565b60405161082093929190615d7d565b60405180910390f35b610843600480360381019061083e9190615504565b611dbc565b005b61085f600480360381019061085a9190615db4565b611eec565b005b61087b60048036038101906108769190615e3f565b6120a5565b6040516108889190615322565b60405180910390f35b6108ab60048036038101906108a691906157f2565b612139565b005b6108c760048036038101906108c29190615e7f565b6121bc565b6040516108d49190615408565b60405180910390f35b60006108e8826121f9565b9050919050565b6060600080546108fe90615eee565b80601f016020809104026020016040519081016040528092919081815260200182805461092a90615eee565b80156109775780601f1061094c57610100808354040283529160200191610977565b820191906000526020600020905b81548152906001019060200180831161095a57829003601f168201915b5050505050905090565b60165481565b60006109928261225a565b6004600083815260200190815260200160002060009054906101000a900473ffffffffffffffffffffffffffffffffffffffff169050919050565b60006109d882611302565b90508073ffffffffffffffffffffffffffffffffffffffff168373ffffffffffffffffffffffffffffffffffffffff1603610a48576040517f08c379a0000000000000000000000000000000000000000000000000000000008152600401610a3f90615f91565b60405180910390fd5b8073ffffffffffffffffffffffffffffffffffffffff16610a676122a5565b73ffffffffffffffffffffffffffffffffffffffff161480610a965750610a9581610a906122a5565b6120a5565b5b610ad5576040517f08c379a0000000000000000000000000000000000000000000000000000000008152600401610acc90616023565b60405180910390fd5b610adf83836122ad565b505050565b6000600880549050905090565b610b02610afc6122a5565b82612366565b610b41576040517f08c379a0000000000000000000000000000000000000000000000000000000008152600401610b38906160b5565b60405180910390fd5b610b4c8383836123fb565b505050565b6000610b5c83611388565b8210610b9d576040517f08c379a0000000000000000000000000000000000000000000000000000000008152600401610b9490616147565b60405180910390fd5b600660008473ffffffffffffffffffffffffffffffffffffffff1673ffffffffffffffffffffffffffffffffffffffff168152602001908152602001600020600083815260200190815260200160002054905092915050565b6000610c006126f4565b905090565b60148181548110610c1557600080fd5b9060005260206000209060040201600091509050806000015490806001015490806002018054610c4490615eee565b80601f0160208091040260200160405190810160405280929190818152602001828054610c7090615eee565b8015610cbd5780601f10610c9257610100808354040283529160200191610cbd565b820191906000526020600020905b815481529060010190602001808311610ca057829003601f168201915b505050505090806003018054610cd290615eee565b80601f0160208091040260200160405190810160405280929190818152602001828054610cfe90615eee565b8015610d4b5780601f10610d2057610100808354040283529160200191610d4b565b820191906000526020600020905b815481529060010190602001808311610d2e57829003601f168201915b5050505050905084565b6000610d5f611675565b65ffffffffffff168210610da8576040517f08c379a0000000000000000000000000000000000000000000000000000000008152600401610d9f906161b3565b60405180910390fd5b610e01610db4836127ab565b600f60008673ffffffffffffffffffffffffffffffffffffffff1673ffffffffffffffffffffffffffffffffffffffff1681526020019081526020016000206127fe90919063ffffffff16565b7bffffffffffffffffffffffffffffffffffffffffffffffffffffffff16905092915050565b610e2f6128f4565b610e37612972565b565b610e54838383604051806020016040528060008152506117a7565b505050565b610e6a610e646122a5565b82612366565b610ea9576040517f08c379a0000000000000000000000000000000000000000000000000000000008152600401610ea0906160b5565b60405180910390fd5b610eb2816129d5565b50565b610ebd6128f4565b60008411610f00576040517f08c379a0000000000000000000000000000000000000000000000000000000008152600401610ef790616245565b60405180910390fd5b60008311610f43576040517f08c379a0000000000000000000000000000000000000000000000000000000008152600401610f3a906162d7565b60405180910390fd5b6000825111610f87576040517f08c379a0000000000000000000000000000000000000000000000000000000008152600401610f7e90616369565b60405180910390fd5b6000815111610fcb576040517f08c379a0000000000000000000000000000000000000000000000000000000008152600401610fc2906163fb565b60405180910390fd5b6000600185610fda919061644a565b90508360148281548110610ff157610ff061647e565b5b906000526020600020906004020160000181905550826014828154811061101b5761101a61647e565b5b906000526020600020906004020160020190816110389190616659565b50816014828154811061104e5761104d61647e565b5b9060005260206000209060040201600301908161106b9190616659565b507fb1f99be01aeee853240abce95f8becd05c40b1b4507bb2726951ca4ee9d4a187858585856040516110a194939291906155cb565b60405180910390a15050505050565b6060436110bb611675565b65ffffffffffff1614611103576040517f08c379a00000000000000000000000000000000000000000000000000000000081526004016110fa90616777565b60405180910390fd5b6040518060400160405280601d81526020017f6d6f64653d626c6f636b6e756d6265722666726f6d3d64656661756c74000000815250905090565b60136020528060005260406000206000915090508060000160009054906101000a900473ffffffffffffffffffffffffffffffffffffffff16908060010154908060020154908060030154908060040154908060050154905086565b60006111a4610ae4565b82106111e5576040517f08c379a00000000000000000000000000000000000000000000000000000000081526004016111dc90616809565b60405180910390fd5b600882815481106111f9576111f861647e565b5b90600052602060002001549050919050565b6000600e60008373ffffffffffffffffffffffffffffffffffffffff1673ffffffffffffffffffffffffffffffffffffffff16815260200190815260200160002060009054906101000a900473ffffffffffffffffffffffffffffffffffffffff169050919050565b600061127e6122a5565b905061128a81836129e1565b5050565b6000600b60009054906101000a900460ff16905090565b6112ad6128f4565b8260158190555081601681905550806017819055507f036472323f83549c51c49ae04dba0ad2f0454dad11de50e54c2b08d24e33f2aa8383836040516112f593929190616829565b60405180910390a1505050565b60008061130e83612af5565b9050600073ffffffffffffffffffffffffffffffffffffffff168173ffffffffffffffffffffffffffffffffffffffff160361137f576040517f08c379a0000000000000000000000000000000000000000000000000000000008152600401611376906168ac565b60405180910390fd5b80915050919050565b60008073ffffffffffffffffffffffffffffffffffffffff168273ffffffffffffffffffffffffffffffffffffffff16036113f8576040517f08c379a00000000000000000000000000000000000000000000000000000000081526004016113ef9061693e565b60405180910390fd5b600360008373ffffffffffffffffffffffffffffffffffffffff1673ffffffffffffffffffffffffffffffffffffffff168152602001908152602001600020549050919050565b6114476128f4565b6114516000612b32565b565b600061149c601160008473ffffffffffffffffffffffffffffffffffffffff1673ffffffffffffffffffffffffffffffffffffffff168152602001908152602001600020612bf8565b9050919050565b6114ab6128f4565b6114b3612c06565b565b6000606080600080600060606114f5600c7f0000000000000000000000000000000000000000000000000000000000000000612c6990919063ffffffff16565b611529600d7f0000000000000000000000000000000000000000000000000000000000000000612c6990919063ffffffff16565b46306000801b600067ffffffffffffffff81111561154a57611549615628565b5b6040519080825280602002602001820160405280156115785781602001602082028036833780820191505090505b507f0f00000000000000000000000000000000000000000000000000000000000000959493929190965096509650965096509650965090919293949596565b6000600b60019054906101000a900473ffffffffffffffffffffffffffffffffffffffff16905090565b60006115eb611675565b65ffffffffffff168210611634576040517f08c379a000000000000000000000000000000000000000000000000000000000815260040161162b906161b3565b60405180910390fd5b611650611640836127ab565b60106127fe90919063ffffffff16565b7bffffffffffffffffffffffffffffffffffffffffffffffffffffffff169050919050565b600061168043612d19565b905090565b60606001805461169490615eee565b80601f01602080910402602001604051908101604052809291908181526020018280546116c090615eee565b801561170d5780601f106116e25761010080835404028352916020019161170d565b820191906000526020600020905b8154815290600101906020018083116116f057829003601f168201915b5050505050905090565b6000611760600f60008473ffffffffffffffffffffffffffffffffffffffff1673ffffffffffffffffffffffffffffffffffffffff168152602001908152602001600020612d6e565b7bffffffffffffffffffffffffffffffffffffffffffffffffffffffff169050919050565b6117976117906122a5565b8383612dd8565b5050565b60175481565b60155481565b6117b86117b26122a5565b83612366565b6117f7576040517f08c379a00000000000000000000000000000000000000000000000000000000081526004016117ee906160b5565b60405180910390fd5b61180384848484612f44565b50505050565b8342111561184c576040517f08c379a0000000000000000000000000000000000000000000000000000000008152600401611843906169aa565b60405180910390fd5b60006118ae6118a67fe48329057bfd03d55e49b547132e39cffd9c1820ad7b9d4c5307691425d15adf89898960405160200161188b94939291906169ca565b60405160208183030381529060405280519060200120612fa0565b858585612fba565b90506118b981612fe5565b86146118fa576040517f08c379a00000000000000000000000000000000000000000000000000000000081526004016118f190616a5b565b60405180910390fd5b61190481886129e1565b50505050505050565b6119156128f4565b600061192084611388565b14611960576040517f08c379a000000000000000000000000000000000000000000000000000000000815260040161195790616ac7565b60405180910390fd5b600061196c6012612bf8565b90506119786012613043565b6119828482613059565b61198c8184613077565b61199784838361311b565b50505050565b60606119a882613259565b9050919050565b60008060008073ffffffffffffffffffffffffffffffffffffffff16601360008673ffffffffffffffffffffffffffffffffffffffff1673ffffffffffffffffffffffffffffffffffffffff16815260200190815260200160002060000160009054906101000a900473ffffffffffffffffffffffffffffffffffffffff1673ffffffffffffffffffffffffffffffffffffffff1603611a84576040517f08c379a0000000000000000000000000000000000000000000000000000000008152600401611a7b90616b33565b60405180910390fd5b6000601360008673ffffffffffffffffffffffffffffffffffffffff1673ffffffffffffffffffffffffffffffffffffffff1681526020019081526020016000206040518060c00160405290816000820160009054906101000a900473ffffffffffffffffffffffffffffffffffffffff1673ffffffffffffffffffffffffffffffffffffffff1673ffffffffffffffffffffffffffffffffffffffff1681526020016001820154815260200160028201548152602001600382015481526020016004820154815260200160058201548152505090506000611b798260200151836040015142611b74919061644a565b6121bc565b90506000818360800151611b8d9190616b53565b905080601360008973ffffffffffffffffffffffffffffffffffffffff1673ffffffffffffffffffffffffffffffffffffffff16815260200190815260200160002060040181905550600083606001519050600081905060008290505b601480549050811015611c465760148181548110611c0b57611c0a61647e565b5b9060005260206000209060040201600001548410611c3357600181611c309190616b53565b91505b8080611c3e90616b87565b915050611bea565b5081811115611d5e5780601360008b73ffffffffffffffffffffffffffffffffffffffff1673ffffffffffffffffffffffffffffffffffffffff16815260200190815260200160002060030181905550611d5d8560a001516014600184611cad919061644a565b81548110611cbe57611cbd61647e565b5b90600052602060002090600402016003018054611cda90615eee565b80601f0160208091040260200160405190810160405280929190818152602001828054611d0690615eee565b8015611d535780601f10611d2857610100808354040283529160200191611d53565b820191906000526020600020905b815481529060010190602001808311611d3657829003601f168201915b5050505050613077565b5b42601360008b73ffffffffffffffffffffffffffffffffffffffff1673ffffffffffffffffffffffffffffffffffffffff16815260200190815260200160002060020181905550818111838297509750975050505050509193909250565b611dc46128f4565b600073ffffffffffffffffffffffffffffffffffffffff16601360008473ffffffffffffffffffffffffffffffffffffffff1673ffffffffffffffffffffffffffffffffffffffff16815260200190815260200160002060000160009054906101000a900473ffffffffffffffffffffffffffffffffffffffff1673ffffffffffffffffffffffffffffffffffffffff1603611e95576040517f08c379a0000000000000000000000000000000000000000000000000000000008152600401611e8c90616b33565b60405180910390fd5b611e9e826119af565b50505080601360008473ffffffffffffffffffffffffffffffffffffffff1673ffffffffffffffffffffffffffffffffffffffff168152602001908152602001600020600101819055505050565b611ef46128f4565b60008311611f37576040517f08c379a0000000000000000000000000000000000000000000000000000000008152600401611f2e906162d7565b60405180910390fd5b6000825111611f7b576040517f08c379a0000000000000000000000000000000000000000000000000000000008152600401611f7290616369565b60405180910390fd5b6000815111611fbf576040517f08c379a0000000000000000000000000000000000000000000000000000000008152600401611fb6906163fb565b60405180910390fd5b601460405180608001604052808581526020016001601480549050611fe49190616b53565b8152602001848152602001838152509080600181540180825580915050600190039060005260206000209060040201600090919091909150600082015181600001556020820151816001015560408201518160020190816120459190616659565b50606082015181600301908161205b9190616659565b5050507fc81f89fa5e618c95aaa3c1172b1c2d301e070d73740ea290639265a514c9286560148054905084848460405161209894939291906155cb565b60405180910390a1505050565b6000600560008473ffffffffffffffffffffffffffffffffffffffff1673ffffffffffffffffffffffffffffffffffffffff16815260200190815260200160002060008373ffffffffffffffffffffffffffffffffffffffff1673ffffffffffffffffffffffffffffffffffffffff16815260200190815260200160002060009054906101000a900460ff16905092915050565b6121416128f4565b600073ffffffffffffffffffffffffffffffffffffffff168173ffffffffffffffffffffffffffffffffffffffff16036121b0576040517f08c379a00000000000000000000000000000000000000000000000000000000081526004016121a790616c41565b60405180910390fd5b6121b981612b32565b50565b6000601654826121cc9190616d94565b601554846121da9190616d94565b6017546121e79190616ddf565b6121f19190616ddf565b905092915050565b6000634906490660e01b7bffffffffffffffffffffffffffffffffffffffffffffffffffffffff1916827bffffffffffffffffffffffffffffffffffffffffffffffffffffffff1916148061225357506122528261336b565b5b9050919050565b612263816133e5565b6122a2576040517f08c379a0000000000000000000000000000000000000000000000000000000008152600401612299906168ac565b60405180910390fd5b50565b600033905090565b816004600083815260200190815260200160002060006101000a81548173ffffffffffffffffffffffffffffffffffffffff021916908373ffffffffffffffffffffffffffffffffffffffff160217905550808273ffffffffffffffffffffffffffffffffffffffff1661232083611302565b73ffffffffffffffffffffffffffffffffffffffff167f8c5be1e5ebec7d5bd14f71427d1e84f3dd0314c0f7b2291e5b200ac8c7c3b92560405160405180910390a45050565b60008061237283611302565b90508073ffffffffffffffffffffffffffffffffffffffff168473ffffffffffffffffffffffffffffffffffffffff1614806123b457506123b381856120a5565b5b806123f257508373ffffffffffffffffffffffffffffffffffffffff166123da84610987565b73ffffffffffffffffffffffffffffffffffffffff16145b91505092915050565b8273ffffffffffffffffffffffffffffffffffffffff1661241b82611302565b73ffffffffffffffffffffffffffffffffffffffff1614612471576040517f08c379a000000000000000000000000000000000000000000000000000000000815260040161246890616e93565b60405180910390fd5b600073ffffffffffffffffffffffffffffffffffffffff168273ffffffffffffffffffffffffffffffffffffffff16036124e0576040517f08c379a00000000000000000000000000000000000000000000000000000000081526004016124d790616f25565b60405180910390fd5b6124ed8383836001613426565b8273ffffffffffffffffffffffffffffffffffffffff1661250d82611302565b73ffffffffffffffffffffffffffffffffffffffff1614612563576040517f08c379a000000000000000000000000000000000000000000000000000000000815260040161255a90616e93565b60405180910390fd5b6004600082815260200190815260200160002060006101000a81549073ffffffffffffffffffffffffffffffffffffffff02191690556001600360008573ffffffffffffffffffffffffffffffffffffffff1673ffffffffffffffffffffffffffffffffffffffff168152602001908152602001600020600082825403925050819055506001600360008473ffffffffffffffffffffffffffffffffffffffff1673ffffffffffffffffffffffffffffffffffffffff16815260200190815260200160002060008282540192505081905550816002600083815260200190815260200160002060006101000a81548173ffffffffffffffffffffffffffffffffffffffff021916908373ffffffffffffffffffffffffffffffffffffffff160217905550808273ffffffffffffffffffffffffffffffffffffffff168473ffffffffffffffffffffffffffffffffffffffff167fddf252ad1be2c89b69c2b068fc378daa952ba7f163c4a11628f55a4df523b3ef60405160405180910390a46126ef83838360016134af565b505050565b60007f000000000000000000000000000000000000000000000000000000000000000073ffffffffffffffffffffffffffffffffffffffff163073ffffffffffffffffffffffffffffffffffffffff1614801561277057507f000000000000000000000000000000000000000000000000000000000000000046145b1561279d577f000000000000000000000000000000000000000000000000000000000000000090506127a8565b6127a56134c1565b90505b90565b600063ffffffff80168211156127f6576040517f08c379a00000000000000000000000000000000000000000000000000000000081526004016127ed90616fb7565b60405180910390fd5b819050919050565b60008083600001805490509050600080829050600583111561288057600061282584613557565b84612830919061644a565b905061283f8760000182613650565b60000160009054906101000a900463ffffffff1663ffffffff168663ffffffff16101561286e5780915061287e565b60018161287b9190616b53565b92505b505b600061289187600001878585613665565b9050600081146128e5576128b4876000016001836128af919061644a565b613650565b60000160049054906101000a90047bffffffffffffffffffffffffffffffffffffffffffffffffffffffff166128e8565b60005b94505050505092915050565b6128fc6122a5565b73ffffffffffffffffffffffffffffffffffffffff1661291a6115b7565b73ffffffffffffffffffffffffffffffffffffffff1614612970576040517f08c379a000000000000000000000000000000000000000000000000000000000815260040161296790617023565b60405180910390fd5b565b61297a6136d8565b6000600b60006101000a81548160ff0219169083151502179055507f5db9ee0a495bf2e6ff9c91a7834c1ba4fdd244a5e8aa4e537bd38aeae4b073aa6129be6122a5565b6040516129cb91906154bd565b60405180910390a1565b6129de81613721565b50565b60006129ec8361120b565b905081600e60008573ffffffffffffffffffffffffffffffffffffffff1673ffffffffffffffffffffffffffffffffffffffff16815260200190815260200160002060006101000a81548173ffffffffffffffffffffffffffffffffffffffff021916908373ffffffffffffffffffffffffffffffffffffffff1602179055508173ffffffffffffffffffffffffffffffffffffffff168173ffffffffffffffffffffffffffffffffffffffff168473ffffffffffffffffffffffffffffffffffffffff167f3134e8a2e6d97e929a7e54011ea5485d7d196dd5f0ba4d4ef95803e8e3fc257f60405160405180910390a4612af08183612aeb86613774565b613786565b505050565b60006002600083815260200190815260200160002060009054906101000a900473ffffffffffffffffffffffffffffffffffffffff169050919050565b6000600b60019054906101000a900473ffffffffffffffffffffffffffffffffffffffff16905081600b60016101000a81548173ffffffffffffffffffffffffffffffffffffffff021916908373ffffffffffffffffffffffffffffffffffffffff1602179055508173ffffffffffffffffffffffffffffffffffffffff168173ffffffffffffffffffffffffffffffffffffffff167f8be0079c531659141344cd1fd0a4f28419497f9722a3daafe3b4186f6b6457e060405160405180910390a35050565b600081600001549050919050565b612c0e613a07565b6001600b60006101000a81548160ff0219169083151502179055507f62e78cea01bee320cd4e420270b5ea74000d11b0c9f74754ebdbfc544b05a258612c526122a5565b604051612c5f91906154bd565b60405180910390a1565b606060ff60001b8314612c8657612c7f83613a51565b9050612d13565b818054612c9290615eee565b80601f0160208091040260200160405190810160405280929190818152602001828054612cbe90615eee565b8015612d0b5780601f10612ce057610100808354040283529160200191612d0b565b820191906000526020600020905b815481529060010190602001808311612cee57829003601f168201915b505050505090505b92915050565b600065ffffffffffff8016821115612d66576040517f08c379a0000000000000000000000000000000000000000000000000000000008152600401612d5d906170b5565b60405180910390fd5b819050919050565b6000808260000180549050905060008114612dcd57612d9c83600001600183612d97919061644a565b613650565b60000160049054906101000a90047bffffffffffffffffffffffffffffffffffffffffffffffffffffffff16612dd0565b60005b915050919050565b8173ffffffffffffffffffffffffffffffffffffffff168373ffffffffffffffffffffffffffffffffffffffff1603612e46576040517f08c379a0000000000000000000000000000000000000000000000000000000008152600401612e3d90617121565b60405180910390fd5b80600560008573ffffffffffffffffffffffffffffffffffffffff1673ffffffffffffffffffffffffffffffffffffffff16815260200190815260200160002060008473ffffffffffffffffffffffffffffffffffffffff1673ffffffffffffffffffffffffffffffffffffffff16815260200190815260200160002060006101000a81548160ff0219169083151502179055508173ffffffffffffffffffffffffffffffffffffffff168373ffffffffffffffffffffffffffffffffffffffff167f17307eab39ab6107e8899845ad3d59bd9653f200f220920489ca2b5937696c3183604051612f379190615322565b60405180910390a3505050565b612f4f8484846123fb565b612f5b84848484613ac5565b612f9a576040517f08c379a0000000000000000000000000000000000000000000000000000000008152600401612f91906171b3565b60405180910390fd5b50505050565b6000612fb3612fad6126f4565b83613c4c565b9050919050565b6000806000612fcb87878787613c8d565b91509150612fd881613d6f565b8192505050949350505050565b600080601160008473ffffffffffffffffffffffffffffffffffffffff1673ffffffffffffffffffffffffffffffffffffffff168152602001908152602001600020905061303281612bf8565b915061303d81613043565b50919050565b6001816000016000828254019250508190555050565b613073828260405180602001604052806000815250613ed5565b5050565b613080826133e5565b6130bf576040517f08c379a00000000000000000000000000000000000000000000000000000000081526004016130b690617245565b60405180910390fd5b80600a600084815260200190815260200160002090816130df9190616659565b507ff8e1a15aba9398e019f0b49df1a4fde98ee17ae345cb5f6b5e2c27f5033e8ce78260405161310f9190615408565b60405180910390a15050565b6040518060c001604052808473ffffffffffffffffffffffffffffffffffffffff168152602001838152602001428152602001600181526020016000815260200182815250601360008573ffffffffffffffffffffffffffffffffffffffff1673ffffffffffffffffffffffffffffffffffffffff16815260200190815260200160002060008201518160000160006101000a81548173ffffffffffffffffffffffffffffffffffffffff021916908373ffffffffffffffffffffffffffffffffffffffff1602179055506020820151816001015560408201518160020155606082015181600301556080820151816004015560a082015181600501559050507f0f34ff3269219fb7570016be5c08b1b52e878972d6d9fa5f13ad8b9e852b8bd6838260405161324c929190617265565b60405180910390a1505050565b60606132648261225a565b6000600a6000848152602001908152602001600020805461328490615eee565b80601f01602080910402602001604051908101604052809291908181526020018280546132b090615eee565b80156132fd5780601f106132d2576101008083540402835291602001916132fd565b820191906000526020600020905b8154815290600101906020018083116132e057829003601f168201915b50505050509050600061330e613f30565b90506000815103613323578192505050613366565b6000825111156133585780826040516020016133409291906172ca565b60405160208183030381529060405292505050613366565b61336184613f6d565b925050505b919050565b60007f780e9d63000000000000000000000000000000000000000000000000000000007bffffffffffffffffffffffffffffffffffffffffffffffffffffffff1916827bffffffffffffffffffffffffffffffffffffffffffffffffffffffff191614806133de57506133dd82613fd5565b5b9050919050565b60008073ffffffffffffffffffffffffffffffffffffffff1661340783612af5565b73ffffffffffffffffffffffffffffffffffffffff1614159050919050565b61342e613a07565b600073ffffffffffffffffffffffffffffffffffffffff168473ffffffffffffffffffffffffffffffffffffffff161461349d576040517f08c379a00000000000000000000000000000000000000000000000000000000081526004016134949061733a565b60405180910390fd5b6134a9848484846140b7565b50505050565b6134bb84848484614215565b50505050565b60007f8b73c3c69bb8fe3d512ecc4cf759cc79239f7b179b0ffacaa9a75d522b39400f7f00000000000000000000000000000000000000000000000000000000000000007f0000000000000000000000000000000000000000000000000000000000000000463060405160200161353c95949392919061735a565b60405160208183030381529060405280519060200120905090565b6000808203613569576000905061364b565b6000600161357684614232565b901c6001901b905060018184816135905761358f6173ad565b5b048201901c905060018184816135a9576135a86173ad565b5b048201901c905060018184816135c2576135c16173ad565b5b048201901c905060018184816135db576135da6173ad565b5b048201901c905060018184816135f4576135f36173ad565b5b048201901c9050600181848161360d5761360c6173ad565b5b048201901c90506001818481613626576136256173ad565b5b048201901c905061364781828581613641576136406173ad565b5b04614313565b9150505b919050565b60008260005281602060002001905092915050565b60005b818310156136cd57600061367c848461432c565b90508463ffffffff1661368f8783613650565b60000160009054906101000a900463ffffffff1663ffffffff1611156136b7578092506136c7565b6001816136c49190616b53565b93505b50613668565b819050949350505050565b6136e061128e565b61371f576040517f08c379a000000000000000000000000000000000000000000000000000000000815260040161371690617428565b60405180910390fd5b565b61372a81614352565b6000600a6000838152602001908152602001600020805461374a90615eee565b90501461377157600a600082815260200190815260200160002060006137709190615211565b5b50565b600061377f82611388565b9050919050565b8173ffffffffffffffffffffffffffffffffffffffff168373ffffffffffffffffffffffffffffffffffffffff16141580156137c25750600081115b15613a0257600073ffffffffffffffffffffffffffffffffffffffff168373ffffffffffffffffffffffffffffffffffffffff16146138e457600080613851600f60008773ffffffffffffffffffffffffffffffffffffffff1673ffffffffffffffffffffffffffffffffffffffff1681526020019081526020016000206144a061384c866144b6565b614521565b7bffffffffffffffffffffffffffffffffffffffffffffffffffffffff1691507bffffffffffffffffffffffffffffffffffffffffffffffffffffffff1691508473ffffffffffffffffffffffffffffffffffffffff167fdec2bacdd2f05b59de34da9b523dff8be42e5e38e818c82fdb0bae774387a72483836040516138d9929190617448565b60405180910390a250505b600073ffffffffffffffffffffffffffffffffffffffff168273ffffffffffffffffffffffffffffffffffffffff1614613a015760008061396e600f60008673ffffffffffffffffffffffffffffffffffffffff1673ffffffffffffffffffffffffffffffffffffffff168152602001908152602001600020614571613969866144b6565b614521565b7bffffffffffffffffffffffffffffffffffffffffffffffffffffffff1691507bffffffffffffffffffffffffffffffffffffffffffffffffffffffff1691508373ffffffffffffffffffffffffffffffffffffffff167fdec2bacdd2f05b59de34da9b523dff8be42e5e38e818c82fdb0bae774387a72483836040516139f6929190617448565b60405180910390a250505b5b505050565b613a0f61128e565b15613a4f576040517f08c379a0000000000000000000000000000000000000000000000000000000008152600401613a46906174bd565b60405180910390fd5b565b60606000613a5e83614587565b90506000602067ffffffffffffffff811115613a7d57613a7c615628565b5b6040519080825280601f01601f191660200182016040528015613aaf5781602001600182028036833780820191505090505b5090508181528360208201528092505050919050565b6000613ae68473ffffffffffffffffffffffffffffffffffffffff166145d7565b15613c3f578373ffffffffffffffffffffffffffffffffffffffff1663150b7a02613b0f6122a5565b8786866040518563ffffffff1660e01b8152600401613b319493929190617532565b6020604051808303816000875af1925050508015613b6d57506040513d601f19601f82011682018060405250810190613b6a9190617593565b60015b613bef573d8060008114613b9d576040519150601f19603f3d011682016040523d82523d6000602084013e613ba2565b606091505b506000815103613be7576040517f08c379a0000000000000000000000000000000000000000000000000000000008152600401613bde906171b3565b60405180910390fd5b805181602001fd5b63150b7a0260e01b7bffffffffffffffffffffffffffffffffffffffffffffffffffffffff1916817bffffffffffffffffffffffffffffffffffffffffffffffffffffffff191614915050613c44565b600190505b949350505050565b60006040517f190100000000000000000000000000000000000000000000000000000000000081528360028201528260228201526042812091505092915050565b6000807f7fffffffffffffffffffffffffffffff5d576e7357a4501ddfe92f46681b20a08360001c1115613cc8576000600391509150613d66565b600060018787878760405160008152602001604052604051613ced94939291906175cf565b6020604051602081039080840390855afa158015613d0f573d6000803e3d6000fd5b505050602060405103519050600073ffffffffffffffffffffffffffffffffffffffff168173ffffffffffffffffffffffffffffffffffffffff1603613d5d57600060019250925050613d66565b80600092509250505b94509492505050565b60006004811115613d8357613d82617614565b5b816004811115613d9657613d95617614565b5b0315613ed25760016004811115613db057613daf617614565b5b816004811115613dc357613dc2617614565b5b03613e03576040517f08c379a0000000000000000000000000000000000000000000000000000000008152600401613dfa9061768f565b60405180910390fd5b60026004811115613e1757613e16617614565b5b816004811115613e2a57613e29617614565b5b03613e6a576040517f08c379a0000000000000000000000000000000000000000000000000000000008152600401613e61906176fb565b60405180910390fd5b60036004811115613e7e57613e7d617614565b5b816004811115613e9157613e90617614565b5b03613ed1576040517f08c379a0000000000000000000000000000000000000000000000000000000008152600401613ec89061778d565b60405180910390fd5b5b50565b613edf83836145fa565b613eec6000848484613ac5565b613f2b576040517f08c379a0000000000000000000000000000000000000000000000000000000008152600401613f22906171b3565b60405180910390fd5b505050565b60606040518060400160405280600481526020017f6874747000000000000000000000000000000000000000000000000000000000815250905090565b6060613f788261225a565b6000613f82613f30565b90506000815111613fa25760405180602001604052806000815250613fcd565b80613fac84614817565b604051602001613fbd9291906172ca565b6040516020818303038152906040525b915050919050565b60007f80ac58cd000000000000000000000000000000000000000000000000000000007bffffffffffffffffffffffffffffffffffffffffffffffffffffffff1916827bffffffffffffffffffffffffffffffffffffffffffffffffffffffff191614806140a057507f5b5e139f000000000000000000000000000000000000000000000000000000007bffffffffffffffffffffffffffffffffffffffffffffffffffffffff1916827bffffffffffffffffffffffffffffffffffffffffffffffffffffffff1916145b806140b057506140af826148e5565b5b9050919050565b6140c38484848461494f565b6001811115614107576040517f08c379a00000000000000000000000000000000000000000000000000000000081526004016140fe9061781f565b60405180910390fd5b6000829050600073ffffffffffffffffffffffffffffffffffffffff168573ffffffffffffffffffffffffffffffffffffffff160361414e5761414981614955565b61418d565b8373ffffffffffffffffffffffffffffffffffffffff168573ffffffffffffffffffffffffffffffffffffffff161461418c5761418b858261499e565b5b5b600073ffffffffffffffffffffffffffffffffffffffff168473ffffffffffffffffffffffffffffffffffffffff16036141cf576141ca81614b0b565b61420e565b8473ffffffffffffffffffffffffffffffffffffffff168473ffffffffffffffffffffffffffffffffffffffff161461420d5761420c8482614bdc565b5b5b5050505050565b614220848483614c5b565b61422c84848484614d15565b50505050565b600080600090506000608084901c111561425457608083901c92506080810190505b6000604084901c111561426f57604083901c92506040810190505b6000602084901c111561428a57602083901c92506020810190505b6000601084901c11156142a557601083901c92506010810190505b6000600884901c11156142c057600883901c92506008810190505b6000600484901c11156142db57600483901c92506004810190505b6000600284901c11156142f657600283901c92506002810190505b6000600184901c111561430a576001810190505b80915050919050565b60008183106143225781614324565b825b905092915050565b6000600282841861433d919061783f565b82841661434a9190616b53565b905092915050565b600061435d82611302565b905061436d816000846001613426565b61437682611302565b90506004600083815260200190815260200160002060006101000a81549073ffffffffffffffffffffffffffffffffffffffff02191690556001600360008373ffffffffffffffffffffffffffffffffffffffff1673ffffffffffffffffffffffffffffffffffffffff168152602001908152602001600020600082825403925050819055506002600083815260200190815260200160002060006101000a81549073ffffffffffffffffffffffffffffffffffffffff021916905581600073ffffffffffffffffffffffffffffffffffffffff168273ffffffffffffffffffffffffffffffffffffffff167fddf252ad1be2c89b69c2b068fc378daa952ba7f163c4a11628f55a4df523b3ef60405160405180910390a461449c8160008460016134af565b5050565b600081836144ae9190617898565b905092915050565b60007bffffffffffffffffffffffffffffffffffffffffffffffffffffffff8016821115614519576040517f08c379a00000000000000000000000000000000000000000000000000000000081526004016145109061795a565b60405180910390fd5b819050919050565b60008061456561453f614532611675565b65ffffffffffff166127ab565b61455561454b88612d6e565b868863ffffffff16565b87614d1b9092919063ffffffff16565b91509150935093915050565b6000818361457f919061797a565b905092915050565b60008060ff8360001c169050601f8111156145ce576040517fb3512b0c00000000000000000000000000000000000000000000000000000000815260040160405180910390fd5b80915050919050565b6000808273ffffffffffffffffffffffffffffffffffffffff163b119050919050565b600073ffffffffffffffffffffffffffffffffffffffff168273ffffffffffffffffffffffffffffffffffffffff1603614669576040517f08c379a000000000000000000000000000000000000000000000000000000000815260040161466090617a16565b60405180910390fd5b614672816133e5565b156146b2576040517f08c379a00000000000000000000000000000000000000000000000000000000081526004016146a990617a82565b60405180910390fd5b6146c0600083836001613426565b6146c9816133e5565b15614709576040517f08c379a000000000000000000000000000000000000000000000000000000000815260040161470090617a82565b60405180910390fd5b6001600360008473ffffffffffffffffffffffffffffffffffffffff1673ffffffffffffffffffffffffffffffffffffffff16815260200190815260200160002060008282540192505081905550816002600083815260200190815260200160002060006101000a81548173ffffffffffffffffffffffffffffffffffffffff021916908373ffffffffffffffffffffffffffffffffffffffff160217905550808273ffffffffffffffffffffffffffffffffffffffff16600073ffffffffffffffffffffffffffffffffffffffff167fddf252ad1be2c89b69c2b068fc378daa952ba7f163c4a11628f55a4df523b3ef60405160405180910390a46148136000838360016134af565b5050565b60606000600161482684614d38565b01905060008167ffffffffffffffff81111561484557614844615628565b5b6040519080825280601f01601f1916602001820160405280156148775781602001600182028036833780820191505090505b509050600082602001820190505b6001156148da578080600190039150507f3031323334353637383961626364656600000000000000000000000000000000600a86061a8153600a85816148ce576148cd6173ad565b5b04945060008503614885575b819350505050919050565b60007f01ffc9a7000000000000000000000000000000000000000000000000000000007bffffffffffffffffffffffffffffffffffffffffffffffffffffffff1916827bffffffffffffffffffffffffffffffffffffffffffffffffffffffff1916149050919050565b50505050565b6008805490506009600083815260200190815260200160002081905550600881908060018154018082558091505060019003906000526020600020016000909190919091505550565b600060016149ab84611388565b6149b5919061644a565b9050600060076000848152602001908152602001600020549050818114614a9a576000600660008673ffffffffffffffffffffffffffffffffffffffff1673ffffffffffffffffffffffffffffffffffffffff168152602001908152602001600020600084815260200190815260200160002054905080600660008773ffffffffffffffffffffffffffffffffffffffff1673ffffffffffffffffffffffffffffffffffffffff168152602001908152602001600020600084815260200190815260200160002081905550816007600083815260200190815260200160002081905550505b6007600084815260200190815260200160002060009055600660008573ffffffffffffffffffffffffffffffffffffffff1673ffffffffffffffffffffffffffffffffffffffff16815260200190815260200160002060008381526020019081526020016000206000905550505050565b60006001600880549050614b1f919061644a565b9050600060096000848152602001908152602001600020549050600060088381548110614b4f57614b4e61647e565b5b906000526020600020015490508060088381548110614b7157614b7061647e565b5b906000526020600020018190555081600960008381526020019081526020016000208190555060096000858152602001908152602001600020600090556008805480614bc057614bbf617aa2565b5b6001900381819060005260206000200160009055905550505050565b6000614be783611388565b905081600660008573ffffffffffffffffffffffffffffffffffffffff1673ffffffffffffffffffffffffffffffffffffffff168152602001908152602001600020600083815260200190815260200160002081905550806007600084815260200190815260200160002081905550505050565b600073ffffffffffffffffffffffffffffffffffffffff168373ffffffffffffffffffffffffffffffffffffffff1603614ca857614ca56010614571614ca0846144b6565b614521565b50505b600073ffffffffffffffffffffffffffffffffffffffff168273ffffffffffffffffffffffffffffffffffffffff1603614cf557614cf260106144a0614ced846144b6565b614521565b50505b614d10614d018461120b565b614d0a8461120b565b83613786565b505050565b50505050565b600080614d2c856000018585614e8b565b91509150935093915050565b600080600090507a184f03e93ff9f4daa797ed6e38ed64bf6a1f0100000000000000008310614d96577a184f03e93ff9f4daa797ed6e38ed64bf6a1f0100000000000000008381614d8c57614d8b6173ad565b5b0492506040810190505b6d04ee2d6d415b85acef81000000008310614dd3576d04ee2d6d415b85acef81000000008381614dc957614dc86173ad565b5b0492506020810190505b662386f26fc100008310614e0257662386f26fc100008381614df857614df76173ad565b5b0492506010810190505b6305f5e1008310614e2b576305f5e1008381614e2157614e206173ad565b5b0492506008810190505b6127108310614e50576127108381614e4657614e456173ad565b5b0492506004810190505b60648310614e735760648381614e6957614e686173ad565b5b0492506002810190505b600a8310614e82576001810190505b80915050919050565b6000806000858054905090506000811115615121576000614eb887600184614eb3919061644a565b613650565b6040518060400160405290816000820160009054906101000a900463ffffffff1663ffffffff1663ffffffff1681526020016000820160049054906101000a90047bffffffffffffffffffffffffffffffffffffffffffffffffffffffff167bffffffffffffffffffffffffffffffffffffffffffffffffffffffff167bffffffffffffffffffffffffffffffffffffffffffffffffffffffff168152505090508563ffffffff16816000015163ffffffff161115614fac576040517f08c379a0000000000000000000000000000000000000000000000000000000008152600401614fa390617b1d565b60405180910390fd5b8563ffffffff16816000015163ffffffff16036150305784614fda88600185614fd5919061644a565b613650565b60000160046101000a8154817bffffffffffffffffffffffffffffffffffffffffffffffffffffffff02191690837bffffffffffffffffffffffffffffffffffffffffffffffffffffffff160217905550615110565b8660405180604001604052808863ffffffff168152602001877bffffffffffffffffffffffffffffffffffffffffffffffffffffffff168152509080600181540180825580915050600190039060005260206000200160009091909190915060008201518160000160006101000a81548163ffffffff021916908363ffffffff16021790555060208201518160000160046101000a8154817bffffffffffffffffffffffffffffffffffffffffffffffffffffffff02191690837bffffffffffffffffffffffffffffffffffffffffffffffffffffffff16021790555050505b806020015185935093505050615209565b8560405180604001604052808763ffffffff168152602001867bffffffffffffffffffffffffffffffffffffffffffffffffffffffff168152509080600181540180825580915050600190039060005260206000200160009091909190915060008201518160000160006101000a81548163ffffffff021916908363ffffffff16021790555060208201518160000160046101000a8154817bffffffffffffffffffffffffffffffffffffffffffffffffffffffff02191690837bffffffffffffffffffffffffffffffffffffffffffffffffffffffff160217905550505060008492509250505b935093915050565b50805461521d90615eee565b6000825580601f1061522f575061524e565b601f01602090049060005260206000209081019061524d9190615251565b5b50565b5b8082111561526a576000816000905550600101615252565b5090565b6000604051905090565b600080fd5b600080fd5b60007fffffffff0000000000000000000000000000000000000000000000000000000082169050919050565b6152b781615282565b81146152c257600080fd5b50565b6000813590506152d4816152ae565b92915050565b6000602082840312156152f0576152ef615278565b5b60006152fe848285016152c5565b91505092915050565b60008115159050919050565b61531c81615307565b82525050565b60006020820190506153376000830184615313565b92915050565b600081519050919050565b600082825260208201905092915050565b60005b8381101561537757808201518184015260208101905061535c565b60008484015250505050565b6000601f19601f8301169050919050565b600061539f8261533d565b6153a98185615348565b93506153b9818560208601615359565b6153c281615383565b840191505092915050565b600060208201905081810360008301526153e78184615394565b905092915050565b6000819050919050565b615402816153ef565b82525050565b600060208201905061541d60008301846153f9565b92915050565b61542c816153ef565b811461543757600080fd5b50565b60008135905061544981615423565b92915050565b60006020828403121561546557615464615278565b5b60006154738482850161543a565b91505092915050565b600073ffffffffffffffffffffffffffffffffffffffff82169050919050565b60006154a78261547c565b9050919050565b6154b78161549c565b82525050565b60006020820190506154d260008301846154ae565b92915050565b6154e18161549c565b81146154ec57600080fd5b50565b6000813590506154fe816154d8565b92915050565b6000806040838503121561551b5761551a615278565b5b6000615529858286016154ef565b925050602061553a8582860161543a565b9150509250929050565b60008060006060848603121561555d5761555c615278565b5b600061556b868287016154ef565b935050602061557c868287016154ef565b925050604061558d8682870161543a565b9150509250925092565b6000819050919050565b6155aa81615597565b82525050565b60006020820190506155c560008301846155a1565b92915050565b60006080820190506155e060008301876153f9565b6155ed60208301866153f9565b81810360408301526155ff8185615394565b905081810360608301526156138184615394565b905095945050505050565b600080fd5b600080fd5b7f4e487b7100000000000000000000000000000000000000000000000000000000600052604160045260246000fd5b61566082615383565b810181811067ffffffffffffffff8211171561567f5761567e615628565b5b80604052505050565b600061569261526e565b905061569e8282615657565b919050565b600067ffffffffffffffff8211156156be576156bd615628565b5b6156c782615383565b9050602081019050919050565b82818337600083830152505050565b60006156f66156f1846156a3565b615688565b90508281526020810184848401111561571257615711615623565b5b61571d8482856156d4565b509392505050565b600082601f83011261573a5761573961561e565b5b813561574a8482602086016156e3565b91505092915050565b6000806000806080858703121561576d5761576c615278565b5b600061577b8782880161543a565b945050602061578c8782880161543a565b935050604085013567ffffffffffffffff8111156157ad576157ac61527d565b5b6157b987828801615725565b925050606085013567ffffffffffffffff8111156157da576157d961527d565b5b6157e687828801615725565b91505092959194509250565b60006020828403121561580857615807615278565b5b6000615816848285016154ef565b91505092915050565b600060c08201905061583460008301896154ae565b61584160208301886153f9565b61584e60408301876153f9565b61585b60608301866153f9565b61586860808301856153f9565b61587560a08301846153f9565b979650505050505050565b60008060006060848603121561589957615898615278565b5b60006158a78682870161543a565b93505060206158b88682870161543a565b92505060406158c98682870161543a565b9150509250925092565b60007fff0000000000000000000000000000000000000000000000000000000000000082169050919050565b615908816158d3565b82525050565b600081519050919050565b600082825260208201905092915050565b6000819050602082019050919050565b615943816153ef565b82525050565b6000615955838361593a565b60208301905092915050565b6000602082019050919050565b60006159798261590e565b6159838185615919565b935061598e8361592a565b8060005b838110156159bf5781516159a68882615949565b97506159b183615961565b925050600181019050615992565b5085935050505092915050565b600060e0820190506159e1600083018a6158ff565b81810360208301526159f38189615394565b90508181036040830152615a078188615394565b9050615a1660608301876153f9565b615a2360808301866154ae565b615a3060a08301856155a1565b81810360c0830152615a42818461596e565b905098975050505050505050565b600065ffffffffffff82169050919050565b615a6b81615a50565b82525050565b6000602082019050615a866000830184615a62565b92915050565b615a9581615307565b8114615aa057600080fd5b50565b600081359050615ab281615a8c565b92915050565b60008060408385031215615acf57615ace615278565b5b6000615add858286016154ef565b9250506020615aee85828601615aa3565b9150509250929050565b600067ffffffffffffffff821115615b1357615b12615628565b5b615b1c82615383565b9050602081019050919050565b6000615b3c615b3784615af8565b615688565b905082815260208101848484011115615b5857615b57615623565b5b615b638482856156d4565b509392505050565b600082601f830112615b8057615b7f61561e565b5b8135615b90848260208601615b29565b91505092915050565b60008060008060808587031215615bb357615bb2615278565b5b6000615bc1878288016154ef565b9450506020615bd2878288016154ef565b9350506040615be38782880161543a565b925050606085013567ffffffffffffffff811115615c0457615c0361527d565b5b615c1087828801615b6b565b91505092959194509250565b600060ff82169050919050565b615c3281615c1c565b8114615c3d57600080fd5b50565b600081359050615c4f81615c29565b92915050565b615c5e81615597565b8114615c6957600080fd5b50565b600081359050615c7b81615c55565b92915050565b60008060008060008060c08789031215615c9e57615c9d615278565b5b6000615cac89828a016154ef565b9650506020615cbd89828a0161543a565b9550506040615cce89828a0161543a565b9450506060615cdf89828a01615c40565b9350506080615cf089828a01615c6c565b92505060a0615d0189828a01615c6c565b9150509295509295509295565b600080600060608486031215615d2757615d26615278565b5b6000615d35868287016154ef565b935050602084013567ffffffffffffffff811115615d5657615d5561527d565b5b615d6286828701615725565b9250506040615d738682870161543a565b9150509250925092565b6000606082019050615d926000830186615313565b615d9f60208301856153f9565b615dac60408301846153f9565b949350505050565b600080600060608486031215615dcd57615dcc615278565b5b6000615ddb8682870161543a565b935050602084013567ffffffffffffffff811115615dfc57615dfb61527d565b5b615e0886828701615725565b925050604084013567ffffffffffffffff811115615e2957615e2861527d565b5b615e3586828701615725565b9150509250925092565b60008060408385031215615e5657615e55615278565b5b6000615e64858286016154ef565b9250506020615e75858286016154ef565b9150509250929050565b60008060408385031215615e9657615e95615278565b5b6000615ea48582860161543a565b9250506020615eb58582860161543a565b9150509250929050565b7f4e487b7100000000000000000000000000000000000000000000000000000000600052602260045260246000fd5b60006002820490506001821680615f0657607f821691505b602082108103615f1957615f18615ebf565b5b50919050565b7f4552433732313a20617070726f76616c20746f2063757272656e74206f776e6560008201527f7200000000000000000000000000000000000000000000000000000000000000602082015250565b6000615f7b602183615348565b9150615f8682615f1f565b604082019050919050565b60006020820190508181036000830152615faa81615f6e565b9050919050565b7f4552433732313a20617070726f76652063616c6c6572206973206e6f7420746f60008201527f6b656e206f776e6572206f7220617070726f76656420666f7220616c6c000000602082015250565b600061600d603d83615348565b915061601882615fb1565b604082019050919050565b6000602082019050818103600083015261603c81616000565b9050919050565b7f4552433732313a2063616c6c6572206973206e6f7420746f6b656e206f776e6560008201527f72206f7220617070726f76656400000000000000000000000000000000000000602082015250565b600061609f602d83615348565b91506160aa82616043565b604082019050919050565b600060208201905081810360008301526160ce81616092565b9050919050565b7f455243373231456e756d657261626c653a206f776e657220696e646578206f7560008201527f74206f6620626f756e6473000000000000000000000000000000000000000000602082015250565b6000616131602b83615348565b915061613c826160d5565b604082019050919050565b6000602082019050818103600083015261616081616124565b9050919050565b7f566f7465733a20667574757265206c6f6f6b7570000000000000000000000000600082015250565b600061619d601483615348565b91506161a882616167565b602082019050919050565b600060208201905081810360008301526161cc81616190565b9050919050565b7f566972656f583a206c6576656c206d757374206265206772656174657220746860008201527f616e203000000000000000000000000000000000000000000000000000000000602082015250565b600061622f602483615348565b915061623a826161d3565b604082019050919050565b6000602082019050818103600083015261625e81616222565b9050919050565b7f566972656f583a207374616e64617264457870206d757374206265206772656160008201527f746572207468616e203000000000000000000000000000000000000000000000602082015250565b60006162c1602a83615348565b91506162cc82616265565b604082019050919050565b600060208201905081810360008301526162f0816162b4565b9050919050565b7f566972656f583a206c6576656c4e616d65206d7573742062652067726561746560008201527f72207468616e2030000000000000000000000000000000000000000000000000602082015250565b6000616353602883615348565b915061635e826162f7565b604082019050919050565b6000602082019050818103600083015261638281616346565b9050919050565b7f566972656f583a20757269206d7573742062652067726561746572207468616e60008201527f2030000000000000000000000000000000000000000000000000000000000000602082015250565b60006163e5602283615348565b91506163f082616389565b604082019050919050565b60006020820190508181036000830152616414816163d8565b9050919050565b7f4e487b7100000000000000000000000000000000000000000000000000000000600052601160045260246000fd5b6000616455826153ef565b9150616460836153ef565b92508282039050818111156164785761647761641b565b5b92915050565b7f4e487b7100000000000000000000000000000000000000000000000000000000600052603260045260246000fd5b60008190508160005260206000209050919050565b60006020601f8301049050919050565b600082821b905092915050565b60006008830261650f7fffffffffffffffffffffffffffffffffffffffffffffffffffffffffffffffff826164d2565b61651986836164d2565b95508019841693508086168417925050509392505050565b6000819050919050565b600061655661655161654c846153ef565b616531565b6153ef565b9050919050565b6000819050919050565b6165708361653b565b61658461657c8261655d565b8484546164df565b825550505050565b600090565b61659961658c565b6165a4818484616567565b505050565b5b818110156165c8576165bd600082616591565b6001810190506165aa565b5050565b601f82111561660d576165de816164ad565b6165e7846164c2565b810160208510156165f6578190505b61660a616602856164c2565b8301826165a9565b50505b505050565b600082821c905092915050565b600061663060001984600802616612565b1980831691505092915050565b6000616649838361661f565b9150826002028217905092915050565b6166628261533d565b67ffffffffffffffff81111561667b5761667a615628565b5b6166858254615eee565b6166908282856165cc565b600060209050601f8311600181146166c357600084156166b1578287015190505b6166bb858261663d565b865550616723565b601f1984166166d1866164ad565b60005b828110156166f9578489015182556001820191506020850194506020810190506166d4565b868310156167165784890151616712601f89168261661f565b8355505b6001600288020188555050505b505050505050565b7f566f7465733a2062726f6b656e20636c6f636b206d6f64650000000000000000600082015250565b6000616761601883615348565b915061676c8261672b565b602082019050919050565b6000602082019050818103600083015261679081616754565b9050919050565b7f455243373231456e756d657261626c653a20676c6f62616c20696e646578206f60008201527f7574206f6620626f756e64730000000000000000000000000000000000000000602082015250565b60006167f3602c83615348565b91506167fe82616797565b604082019050919050565b60006020820190508181036000830152616822816167e6565b9050919050565b600060608201905061683e60008301866153f9565b61684b60208301856153f9565b61685860408301846153f9565b949350505050565b7f4552433732313a20696e76616c696420746f6b656e2049440000000000000000600082015250565b6000616896601883615348565b91506168a182616860565b602082019050919050565b600060208201905081810360008301526168c581616889565b9050919050565b7f4552433732313a2061646472657373207a65726f206973206e6f74206120766160008201527f6c6964206f776e65720000000000000000000000000000000000000000000000602082015250565b6000616928602983615348565b9150616933826168cc565b604082019050919050565b600060208201905081810360008301526169578161691b565b9050919050565b7f566f7465733a207369676e617475726520657870697265640000000000000000600082015250565b6000616994601883615348565b915061699f8261695e565b602082019050919050565b600060208201905081810360008301526169c381616987565b9050919050565b60006080820190506169df60008301876155a1565b6169ec60208301866154ae565b6169f960408301856153f9565b616a0660608301846153f9565b95945050505050565b7f566f7465733a20696e76616c6964206e6f6e6365000000000000000000000000600082015250565b6000616a45601483615348565b9150616a5082616a0f565b602082019050919050565b60006020820190508181036000830152616a7481616a38565b9050919050565b7f566972656f583a20616c7265616479206d696e74656400000000000000000000600082015250565b6000616ab1601683615348565b9150616abc82616a7b565b602082019050919050565b60006020820190508181036000830152616ae081616aa4565b9050919050565b7f566972656f583a207573657220686173206e6f74207374616b65640000000000600082015250565b6000616b1d601b83615348565b9150616b2882616ae7565b602082019050919050565b60006020820190508181036000830152616b4c81616b10565b9050919050565b6000616b5e826153ef565b9150616b69836153ef565b9250828201905080821115616b8157616b8061641b565b5b92915050565b6000616b92826153ef565b91507fffffffffffffffffffffffffffffffffffffffffffffffffffffffffffffffff8203616bc457616bc361641b565b5b600182019050919050565b7f4f776e61626c653a206e6577206f776e657220697320746865207a65726f206160008201527f6464726573730000000000000000000000000000000000000000000000000000602082015250565b6000616c2b602683615348565b9150616c3682616bcf565b604082019050919050565b60006020820190508181036000830152616c5a81616c1e565b9050919050565b60008160011c9050919050565b6000808291508390505b6001851115616cb857808604811115616c9457616c9361641b565b5b6001851615616ca35780820291505b8081029050616cb185616c61565b9450616c78565b94509492505050565b600082616cd15760019050616d8d565b81616cdf5760009050616d8d565b8160018114616cf55760028114616cff57616d2e565b6001915050616d8d565b60ff841115616d1157616d1061641b565b5b8360020a915084821115616d2857616d2761641b565b5b50616d8d565b5060208310610133831016604e8410600b8410161715616d635782820a905083811115616d5e57616d5d61641b565b5b616d8d565b616d708484846001616c6e565b92509050818404811115616d8757616d8661641b565b5b81810290505b9392505050565b6000616d9f826153ef565b9150616daa836153ef565b9250616dd77fffffffffffffffffffffffffffffffffffffffffffffffffffffffffffffffff8484616cc1565b905092915050565b6000616dea826153ef565b9150616df5836153ef565b9250828202616e03816153ef565b91508282048414831517616e1a57616e1961641b565b5b5092915050565b7f4552433732313a207472616e736665722066726f6d20696e636f72726563742060008201527f6f776e6572000000000000000000000000000000000000000000000000000000602082015250565b6000616e7d602583615348565b9150616e8882616e21565b604082019050919050565b60006020820190508181036000830152616eac81616e70565b9050919050565b7f4552433732313a207472616e7366657220746f20746865207a65726f2061646460008201527f7265737300000000000000000000000000000000000000000000000000000000602082015250565b6000616f0f602483615348565b9150616f1a82616eb3565b604082019050919050565b60006020820190508181036000830152616f3e81616f02565b9050919050565b7f53616665436173743a2076616c756520646f65736e27742066697420696e203360008201527f3220626974730000000000000000000000000000000000000000000000000000602082015250565b6000616fa1602683615348565b9150616fac82616f45565b604082019050919050565b60006020820190508181036000830152616fd081616f94565b9050919050565b7f4f776e61626c653a2063616c6c6572206973206e6f7420746865206f776e6572600082015250565b600061700d602083615348565b915061701882616fd7565b602082019050919050565b6000602082019050818103600083015261703c81617000565b9050919050565b7f53616665436173743a2076616c756520646f65736e27742066697420696e203460008201527f3820626974730000000000000000000000000000000000000000000000000000602082015250565b600061709f602683615348565b91506170aa82617043565b604082019050919050565b600060208201905081810360008301526170ce81617092565b9050919050565b7f4552433732313a20617070726f766520746f2063616c6c657200000000000000600082015250565b600061710b601983615348565b9150617116826170d5565b602082019050919050565b6000602082019050818103600083015261713a816170fe565b9050919050565b7f4552433732313a207472616e7366657220746f206e6f6e20455243373231526560008201527f63656976657220696d706c656d656e7465720000000000000000000000000000602082015250565b600061719d603283615348565b91506171a882617141565b604082019050919050565b600060208201905081810360008301526171cc81617190565b9050919050565b7f45524337323155524953746f726167653a2055524920736574206f66206e6f6e60008201527f6578697374656e7420746f6b656e000000000000000000000000000000000000602082015250565b600061722f602e83615348565b915061723a826171d3565b604082019050919050565b6000602082019050818103600083015261725e81617222565b9050919050565b600060408201905061727a60008301856154ae565b61728760208301846153f9565b9392505050565b600081905092915050565b60006172a48261533d565b6172ae818561728e565b93506172be818560208601615359565b80840191505092915050565b60006172d68285617299565b91506172e28284617299565b91508190509392505050565b7f566972656f583a206e6f7420616c6c6f77656420746f207472616e7366657200600082015250565b6000617324601f83615348565b915061732f826172ee565b602082019050919050565b6000602082019050818103600083015261735381617317565b9050919050565b600060a08201905061736f60008301886155a1565b61737c60208301876155a1565b61738960408301866155a1565b61739660608301856153f9565b6173a360808301846154ae565b9695505050505050565b7f4e487b7100000000000000000000000000000000000000000000000000000000600052601260045260246000fd5b7f5061757361626c653a206e6f7420706175736564000000000000000000000000600082015250565b6000617412601483615348565b915061741d826173dc565b602082019050919050565b6000602082019050818103600083015261744181617405565b9050919050565b600060408201905061745d60008301856153f9565b61746a60208301846153f9565b9392505050565b7f5061757361626c653a2070617573656400000000000000000000000000000000600082015250565b60006174a7601083615348565b91506174b282617471565b602082019050919050565b600060208201905081810360008301526174d68161749a565b9050919050565b600081519050919050565b600082825260208201905092915050565b6000617504826174dd565b61750e81856174e8565b935061751e818560208601615359565b61752781615383565b840191505092915050565b600060808201905061754760008301876154ae565b61755460208301866154ae565b61756160408301856153f9565b818103606083015261757381846174f9565b905095945050505050565b60008151905061758d816152ae565b92915050565b6000602082840312156175a9576175a8615278565b5b60006175b78482850161757e565b91505092915050565b6175c981615c1c565b82525050565b60006080820190506175e460008301876155a1565b6175f160208301866175c0565b6175fe60408301856155a1565b61760b60608301846155a1565b95945050505050565b7f4e487b7100000000000000000000000000000000000000000000000000000000600052602160045260246000fd5b7f45434453413a20696e76616c6964207369676e61747572650000000000000000600082015250565b6000617679601883615348565b915061768482617643565b602082019050919050565b600060208201905081810360008301526176a88161766c565b9050919050565b7f45434453413a20696e76616c6964207369676e6174757265206c656e67746800600082015250565b60006176e5601f83615348565b91506176f0826176af565b602082019050919050565b60006020820190508181036000830152617714816176d8565b9050919050565b7f45434453413a20696e76616c6964207369676e6174757265202773272076616c60008201527f7565000000000000000000000000000000000000000000000000000000000000602082015250565b6000617777602283615348565b91506177828261771b565b604082019050919050565b600060208201905081810360008301526177a68161776a565b9050919050565b7f455243373231456e756d657261626c653a20636f6e736563757469766520747260008201527f616e7366657273206e6f7420737570706f727465640000000000000000000000602082015250565b6000617809603583615348565b9150617814826177ad565b604082019050919050565b60006020820190508181036000830152617838816177fc565b9050919050565b600061784a826153ef565b9150617855836153ef565b925082617865576178646173ad565b5b828204905092915050565b60007bffffffffffffffffffffffffffffffffffffffffffffffffffffffff82169050919050565b60006178a382617870565b91506178ae83617870565b925082820390507bffffffffffffffffffffffffffffffffffffffffffffffffffffffff8111156178e2576178e161641b565b5b92915050565b7f53616665436173743a2076616c756520646f65736e27742066697420696e203260008201527f3234206269747300000000000000000000000000000000000000000000000000602082015250565b6000617944602783615348565b915061794f826178e8565b604082019050919050565b6000602082019050818103600083015261797381617937565b9050919050565b600061798582617870565b915061799083617870565b925082820190507bffffffffffffffffffffffffffffffffffffffffffffffffffffffff8111156179c4576179c361641b565b5b92915050565b7f4552433732313a206d696e7420746f20746865207a65726f2061646472657373600082015250565b6000617a00602083615348565b9150617a0b826179ca565b602082019050919050565b60006020820190508181036000830152617a2f816179f3565b9050919050565b7f4552433732313a20746f6b656e20616c7265616479206d696e74656400000000600082015250565b6000617a6c601c83615348565b9150617a7782617a36565b602082019050919050565b60006020820190508181036000830152617a9b81617a5f565b9050919050565b7f4e487b7100000000000000000000000000000000000000000000000000000000600052603160045260246000fd5b7f436865636b706f696e743a2064656372656173696e67206b6579730000000000600082015250565b6000617b07601b83615348565b9150617b1282617ad1565b602082019050919050565b60006020820190508181036000830152617b3681617afa565b905091905056fea26469706673582212206a902a8f92c57a7e867b0969e756e12f57384b70080396c4d613f1bf38ebafb064736f6c63430008130033697066733a2f2f516d505037576a517967593673725a7272544b50484d4b5344794245595a666b70636e5243586459655157555533697066733a2f2f516d6133714c767a58395a7563364337765250616e474448684b4447484d42566e4b7842777a4b6e4a65375a626b697066733a2f2f516d504c624b425038334656337568644c48706b5a5a5465445a6b4a51737459454e675636455067796234426241",
  "linkReferences": {},
  "deployedLinkReferences": {}
}